{
  "address": "0x327bea93A89A02d8844f7c2EA57F2d73C88868c2",
  "abi": [
    {
      "anonymous": false,
      "inputs": [
        {
          "indexed": true,
          "internalType": "address",
          "name": "owner",
          "type": "address"
        },
        {
          "indexed": true,
          "internalType": "address",
          "name": "approved",
          "type": "address"
        },
        {
          "indexed": true,
          "internalType": "uint256",
          "name": "tokenId",
          "type": "uint256"
        }
      ],
      "name": "Approval",
      "type": "event"
    },
    {
      "anonymous": false,
      "inputs": [
        {
          "indexed": true,
          "internalType": "address",
          "name": "owner",
          "type": "address"
        },
        {
          "indexed": true,
          "internalType": "address",
          "name": "operator",
          "type": "address"
        },
        {
          "indexed": false,
          "internalType": "bool",
          "name": "approved",
          "type": "bool"
        }
      ],
      "name": "ApprovalForAll",
      "type": "event"
    },
    {
      "anonymous": false,
      "inputs": [
        {
          "indexed": false,
          "internalType": "address",
          "name": "account",
          "type": "address"
        }
      ],
      "name": "Paused",
      "type": "event"
    },
    {
      "anonymous": false,
      "inputs": [
        {
          "indexed": true,
          "internalType": "address",
          "name": "operator",
          "type": "address"
        },
        {
          "indexed": false,
          "internalType": "address",
          "name": "seller",
          "type": "address"
        },
        {
          "indexed": true,
          "internalType": "address",
          "name": "collector",
          "type": "address"
        },
        {
          "indexed": true,
          "internalType": "uint256",
          "name": "tokenId",
          "type": "uint256"
        },
        {
          "indexed": false,
          "internalType": "uint256",
          "name": "feePaid",
          "type": "uint256"
        }
      ],
      "name": "ProtocolFeePaid",
      "type": "event"
    },
    {
      "anonymous": false,
      "inputs": [
        {
          "indexed": true,
          "internalType": "bytes32",
          "name": "role",
          "type": "bytes32"
        },
        {
          "indexed": true,
          "internalType": "bytes32",
          "name": "previousAdminRole",
          "type": "bytes32"
        },
        {
          "indexed": true,
          "internalType": "bytes32",
          "name": "newAdminRole",
          "type": "bytes32"
        }
      ],
      "name": "RoleAdminChanged",
      "type": "event"
    },
    {
      "anonymous": false,
      "inputs": [
        {
          "indexed": true,
          "internalType": "bytes32",
          "name": "role",
          "type": "bytes32"
        },
        {
          "indexed": true,
          "internalType": "address",
          "name": "account",
          "type": "address"
        },
        {
          "indexed": true,
          "internalType": "address",
          "name": "sender",
          "type": "address"
        }
      ],
      "name": "RoleGranted",
      "type": "event"
    },
    {
      "anonymous": false,
      "inputs": [
        {
          "indexed": true,
          "internalType": "bytes32",
          "name": "role",
          "type": "bytes32"
        },
        {
          "indexed": true,
          "internalType": "address",
          "name": "account",
          "type": "address"
        },
        {
          "indexed": true,
          "internalType": "address",
          "name": "sender",
          "type": "address"
        }
      ],
      "name": "RoleRevoked",
      "type": "event"
    },
    {
      "anonymous": false,
      "inputs": [
        {
          "indexed": false,
          "internalType": "address",
          "name": "approver",
          "type": "address"
        },
        {
          "indexed": true,
          "internalType": "address",
          "name": "author",
          "type": "address"
        },
        {
          "indexed": false,
          "internalType": "string",
          "name": "hash",
          "type": "string"
        },
        {
          "indexed": false,
          "internalType": "uint256",
          "name": "reward",
          "type": "uint256"
        }
      ],
      "name": "SubmissionApproved",
      "type": "event"
    },
    {
      "anonymous": false,
      "inputs": [
        {
          "indexed": true,
          "internalType": "address",
          "name": "submitter",
          "type": "address"
        },
        {
          "indexed": true,
          "internalType": "uint256",
          "name": "tokenId",
          "type": "uint256"
        },
        {
          "indexed": false,
          "internalType": "string",
          "name": "hash",
          "type": "string"
        },
        {
          "indexed": false,
          "internalType": "uint256",
          "name": "addedValue",
          "type": "uint256"
        },
        {
          "indexed": false,
          "internalType": "uint256",
          "name": "deposit",
          "type": "uint256"
        }
      ],
      "name": "SubmissionCreated",
      "type": "event"
    },
    {
      "anonymous": false,
      "inputs": [
        {
          "indexed": true,
          "internalType": "address",
          "name": "operator",
          "type": "address"
        },
        {
          "indexed": true,
          "internalType": "address",
          "name": "collector",
          "type": "address"
        },
        {
          "indexed": true,
          "internalType": "uint256",
          "name": "tokenId",
          "type": "uint256"
        },
        {
          "indexed": false,
          "internalType": "string",
          "name": "submissionHash",
          "type": "string"
        },
        {
          "indexed": false,
          "internalType": "uint256",
          "name": "appreciatedPrice",
          "type": "uint256"
        },
        {
          "indexed": false,
          "internalType": "uint256",
          "name": "payment",
          "type": "uint256"
        }
      ],
      "name": "SubmissionFunded",
      "type": "event"
    },
    {
      "anonymous": false,
      "inputs": [
        {
          "indexed": false,
          "internalType": "address",
          "name": "approver",
          "type": "address"
        },
        {
          "indexed": true,
          "internalType": "address",
          "name": "author",
          "type": "address"
        },
        {
          "indexed": false,
          "internalType": "string",
          "name": "hash",
          "type": "string"
        }
      ],
      "name": "SubmissionRejected",
      "type": "event"
    },
    {
      "anonymous": false,
      "inputs": [
        {
          "indexed": true,
          "internalType": "address",
          "name": "submitter",
          "type": "address"
        },
        {
          "indexed": false,
          "internalType": "string",
          "name": "hash",
          "type": "string"
        },
        {
          "indexed": false,
          "internalType": "uint256",
          "name": "addedValue",
          "type": "uint256"
        }
      ],
      "name": "SubmissionUpdated",
      "type": "event"
    },
    {
      "anonymous": false,
      "inputs": [
        {
          "indexed": true,
          "internalType": "address",
          "name": "from",
          "type": "address"
        },
        {
          "indexed": true,
          "internalType": "address",
          "name": "to",
          "type": "address"
        },
        {
          "indexed": true,
          "internalType": "uint256",
          "name": "tokenId",
          "type": "uint256"
        }
      ],
      "name": "Transfer",
      "type": "event"
    },
    {
      "anonymous": false,
      "inputs": [
        {
          "indexed": true,
          "internalType": "address",
          "name": "operator",
          "type": "address"
        },
        {
          "indexed": true,
          "internalType": "address",
          "name": "owner",
          "type": "address"
        },
        {
          "indexed": true,
          "internalType": "uint256",
          "name": "tokenId",
          "type": "uint256"
        },
        {
          "indexed": false,
          "internalType": "uint256",
          "name": "additionalCollateral",
          "type": "uint256"
        }
      ],
      "name": "UniquetteCollateralIncreased",
      "type": "event"
    },
    {
      "anonymous": false,
      "inputs": [
        {
          "indexed": false,
          "internalType": "address",
          "name": "operator",
          "type": "address"
        },
        {
          "indexed": true,
          "internalType": "address",
          "name": "seller",
          "type": "address"
        },
        {
          "indexed": true,
          "internalType": "address",
          "name": "collector",
          "type": "address"
        },
        {
          "indexed": true,
          "internalType": "uint256",
          "name": "tokenId",
          "type": "uint256"
        },
        {
          "indexed": false,
          "internalType": "uint256",
          "name": "effectivePrice",
          "type": "uint256"
        },
        {
          "indexed": false,
          "internalType": "uint256",
          "name": "appreciatedPrice",
          "type": "uint256"
        },
        {
          "indexed": false,
          "internalType": "uint256",
          "name": "principalAmount",
          "type": "uint256"
        }
      ],
      "name": "UniquetteCollected",
      "type": "event"
    },
    {
      "anonymous": false,
      "inputs": [
        {
          "indexed": false,
          "internalType": "address",
          "name": "approver",
          "type": "address"
        },
        {
          "indexed": true,
          "internalType": "address",
          "name": "submitter",
          "type": "address"
        },
        {
          "indexed": false,
          "internalType": "string",
          "name": "hash",
          "type": "string"
        }
      ],
      "name": "UniquetteRejected",
      "type": "event"
    },
    {
      "anonymous": false,
      "inputs": [
        {
          "indexed": false,
          "internalType": "address",
          "name": "account",
          "type": "address"
        }
      ],
      "name": "Unpaused",
      "type": "event"
    },
    {
      "inputs": [],
      "name": "DEFAULT_ADMIN_ROLE",
      "outputs": [
        {
          "internalType": "bytes32",
          "name": "",
          "type": "bytes32"
        }
      ],
      "stateMutability": "view",
      "type": "function"
    },
    {
      "inputs": [],
      "name": "GOVERNOR_ROLE",
      "outputs": [
        {
          "internalType": "bytes32",
          "name": "",
          "type": "bytes32"
        }
      ],
      "stateMutability": "view",
      "type": "function"
    },
    {
      "inputs": [
        {
          "internalType": "address",
          "name": "to",
          "type": "address"
        },
        {
          "internalType": "uint256",
          "name": "tokenId",
          "type": "uint256"
        }
      ],
      "name": "approve",
      "outputs": [],
      "stateMutability": "nonpayable",
      "type": "function"
    },
    {
      "inputs": [
        {
          "internalType": "address",
          "name": "owner",
          "type": "address"
        }
      ],
      "name": "balanceOf",
      "outputs": [
        {
          "internalType": "uint256",
          "name": "",
          "type": "uint256"
        }
      ],
      "stateMutability": "view",
      "type": "function"
    },
    {
      "inputs": [
        {
          "internalType": "uint256[]",
          "name": "tokenIds",
          "type": "uint256[]"
        }
      ],
      "name": "batchBurn",
      "outputs": [],
      "stateMutability": "nonpayable",
      "type": "function"
    },
    {
      "inputs": [
        {
          "internalType": "uint256",
          "name": "tokenId",
          "type": "uint256"
        }
      ],
      "name": "burn",
      "outputs": [],
      "stateMutability": "nonpayable",
      "type": "function"
    },
    {
      "inputs": [
        {
          "internalType": "uint256",
          "name": "tokenId",
          "type": "uint256"
        }
      ],
      "name": "getApproved",
      "outputs": [
        {
          "internalType": "address",
          "name": "",
          "type": "address"
        }
      ],
      "stateMutability": "view",
      "type": "function"
    },
    {
      "inputs": [],
      "name": "getParameters",
      "outputs": [
        {
          "internalType": "uint256",
          "name": "protocolFee",
          "type": "uint256"
        },
        {
          "internalType": "uint256",
          "name": "currentMetadataVersion",
          "type": "uint256"
        },
        {
          "internalType": "uint256",
          "name": "minMetadataVersion",
          "type": "uint256"
        },
        {
          "internalType": "uint256",
          "name": "maxPriceAppreciation",
          "type": "uint256"
        },
        {
          "internalType": "uint256",
          "name": "submissionDeposit",
          "type": "uint256"
        }
      ],
      "stateMutability": "view",
      "type": "function"
    },
    {
      "inputs": [
        {
          "internalType": "bytes32",
          "name": "role",
          "type": "bytes32"
        }
      ],
      "name": "getRoleAdmin",
      "outputs": [
        {
          "internalType": "bytes32",
          "name": "",
          "type": "bytes32"
        }
      ],
      "stateMutability": "view",
      "type": "function"
    },
    {
      "inputs": [
        {
          "internalType": "bytes32",
          "name": "role",
          "type": "bytes32"
        },
        {
          "internalType": "address",
          "name": "account",
          "type": "address"
        }
      ],
      "name": "grantRole",
      "outputs": [],
      "stateMutability": "nonpayable",
      "type": "function"
    },
    {
      "inputs": [
        {
          "internalType": "bytes32",
          "name": "role",
          "type": "bytes32"
        },
        {
          "internalType": "address",
          "name": "account",
          "type": "address"
        }
      ],
      "name": "hasRole",
      "outputs": [
        {
          "internalType": "bool",
          "name": "",
          "type": "bool"
        }
      ],
      "stateMutability": "view",
      "type": "function"
    },
    {
      "inputs": [
        {
          "internalType": "string",
          "name": "name",
          "type": "string"
        },
        {
          "internalType": "string",
          "name": "symbol",
          "type": "string"
        },
        {
          "internalType": "string",
          "name": "tokensBaseURI",
          "type": "string"
        },
        {
          "internalType": "address",
          "name": "token",
          "type": "address"
        },
        {
          "internalType": "address payable",
          "name": "vault",
          "type": "address"
        },
        {
          "internalType": "address payable",
          "name": "treasury",
          "type": "address"
        },
        {
          "internalType": "address payable",
          "name": "marketer",
          "type": "address"
        },
        {
          "internalType": "uint256",
          "name": "protocolFee",
          "type": "uint256"
        },
        {
          "internalType": "uint256",
          "name": "minMetadataVersion",
          "type": "uint256"
        },
        {
          "internalType": "uint256",
          "name": "currentMetadataVersion",
          "type": "uint256"
        },
        {
          "internalType": "uint256",
          "name": "maxPriceAppreciation",
          "type": "uint256"
        },
        {
          "internalType": "uint256",
          "name": "submissionDeposit",
          "type": "uint256"
        }
      ],
      "name": "initialize",
      "outputs": [],
      "stateMutability": "nonpayable",
      "type": "function"
    },
    {
      "inputs": [
        {
          "internalType": "address",
          "name": "account",
          "type": "address"
        },
        {
          "internalType": "address",
          "name": "operator",
          "type": "address"
        }
      ],
      "name": "isApprovedForAll",
      "outputs": [
        {
          "internalType": "bool",
          "name": "",
          "type": "bool"
        }
      ],
      "stateMutability": "view",
      "type": "function"
    },
    {
      "inputs": [],
      "name": "name",
      "outputs": [
        {
          "internalType": "string",
          "name": "",
          "type": "string"
        }
      ],
      "stateMutability": "view",
      "type": "function"
    },
    {
      "inputs": [
        {
          "internalType": "uint256",
          "name": "tokenId",
          "type": "uint256"
        }
      ],
      "name": "ownerOf",
      "outputs": [
        {
          "internalType": "address",
          "name": "",
          "type": "address"
        }
      ],
      "stateMutability": "view",
      "type": "function"
    },
    {
      "inputs": [],
      "name": "pause",
      "outputs": [],
      "stateMutability": "nonpayable",
      "type": "function"
    },
    {
      "inputs": [],
      "name": "paused",
      "outputs": [
        {
          "internalType": "bool",
          "name": "",
          "type": "bool"
        }
      ],
      "stateMutability": "view",
      "type": "function"
    },
    {
      "inputs": [
        {
          "internalType": "bytes32",
          "name": "role",
          "type": "bytes32"
        },
        {
          "internalType": "address",
          "name": "account",
          "type": "address"
        }
      ],
      "name": "renounceRole",
      "outputs": [],
      "stateMutability": "nonpayable",
      "type": "function"
    },
    {
      "inputs": [
        {
          "internalType": "bytes32",
          "name": "role",
          "type": "bytes32"
        },
        {
          "internalType": "address",
          "name": "account",
          "type": "address"
        }
      ],
      "name": "revokeRole",
      "outputs": [],
      "stateMutability": "nonpayable",
      "type": "function"
    },
    {
      "inputs": [
        {
          "internalType": "address",
          "name": "from",
          "type": "address"
        },
        {
          "internalType": "address",
          "name": "to",
          "type": "address"
        },
        {
          "internalType": "uint256",
          "name": "tokenId",
          "type": "uint256"
        }
      ],
      "name": "safeTransferFrom",
      "outputs": [],
      "stateMutability": "nonpayable",
      "type": "function"
    },
    {
      "inputs": [
        {
          "internalType": "address",
          "name": "from",
          "type": "address"
        },
        {
          "internalType": "address",
          "name": "to",
          "type": "address"
        },
        {
          "internalType": "uint256",
          "name": "tokenId",
          "type": "uint256"
        },
        {
          "internalType": "bytes",
          "name": "_data",
          "type": "bytes"
        }
      ],
      "name": "safeTransferFrom",
      "outputs": [],
      "stateMutability": "nonpayable",
      "type": "function"
    },
    {
      "inputs": [
        {
          "internalType": "address",
          "name": "operator",
          "type": "address"
        },
        {
          "internalType": "bool",
          "name": "approved",
          "type": "bool"
        }
      ],
      "name": "setApprovalForAll",
      "outputs": [],
      "stateMutability": "nonpayable",
      "type": "function"
    },
    {
      "inputs": [
        {
          "internalType": "uint256",
          "name": "newValue",
          "type": "uint256"
        }
      ],
      "name": "setCurrentMetadataVersion",
      "outputs": [],
      "stateMutability": "nonpayable",
      "type": "function"
    },
    {
      "inputs": [
        {
          "internalType": "address payable",
          "name": "newAddress",
          "type": "address"
        }
      ],
      "name": "setMarketerAddress",
      "outputs": [],
      "stateMutability": "nonpayable",
      "type": "function"
    },
    {
      "inputs": [
        {
          "internalType": "uint256",
          "name": "newValue",
          "type": "uint256"
        }
      ],
      "name": "setMaxPriceAppreciation",
      "outputs": [],
      "stateMutability": "nonpayable",
      "type": "function"
    },
    {
      "inputs": [
        {
          "internalType": "uint256",
          "name": "newValue",
          "type": "uint256"
        }
      ],
      "name": "setMinMetadataVersion",
      "outputs": [],
      "stateMutability": "nonpayable",
      "type": "function"
    },
    {
      "inputs": [
        {
          "internalType": "uint256",
          "name": "newValue",
          "type": "uint256"
        }
      ],
      "name": "setProtocolFee",
      "outputs": [],
      "stateMutability": "nonpayable",
      "type": "function"
    },
    {
      "inputs": [
        {
          "internalType": "uint256",
          "name": "newValue",
          "type": "uint256"
        }
      ],
      "name": "setSubmissionDeposit",
      "outputs": [],
      "stateMutability": "nonpayable",
      "type": "function"
    },
    {
      "inputs": [
        {
          "internalType": "address",
          "name": "newAddress",
          "type": "address"
        }
      ],
      "name": "setTokenAddress",
      "outputs": [],
      "stateMutability": "nonpayable",
      "type": "function"
    },
    {
      "inputs": [
        {
          "internalType": "address payable",
          "name": "newAddress",
          "type": "address"
        }
      ],
      "name": "setTreasuryAddress",
      "outputs": [],
      "stateMutability": "nonpayable",
      "type": "function"
    },
    {
      "inputs": [
        {
          "internalType": "address payable",
          "name": "newAddress",
          "type": "address"
        }
      ],
      "name": "setVaultAddress",
      "outputs": [],
      "stateMutability": "nonpayable",
      "type": "function"
    },
    {
      "inputs": [
        {
          "internalType": "string",
          "name": "hash",
          "type": "string"
        },
        {
          "internalType": "uint256",
          "name": "rewardOverride",
          "type": "uint256"
        }
      ],
      "name": "submissionApprove",
      "outputs": [],
      "stateMutability": "nonpayable",
      "type": "function"
    },
    {
      "inputs": [
        {
          "internalType": "string[]",
          "name": "hashes",
          "type": "string[]"
        },
        {
          "internalType": "uint256[]",
          "name": "rewards",
          "type": "uint256[]"
        }
      ],
      "name": "submissionApproveBulk",
      "outputs": [],
      "stateMutability": "nonpayable",
      "type": "function"
    },
    {
      "inputs": [
        {
          "internalType": "uint256",
          "name": "tokenId",
          "type": "uint256"
        },
        {
          "internalType": "string",
          "name": "hash",
          "type": "string"
        },
        {
          "internalType": "uint256",
          "name": "metadataVersion",
          "type": "uint256"
        },
        {
          "internalType": "uint256",
          "name": "addedValue",
          "type": "uint256"
        }
      ],
      "name": "submissionCreate",
      "outputs": [],
      "stateMutability": "payable",
      "type": "function"
    },
    {
      "inputs": [
        {
          "internalType": "string[]",
          "name": "hashes",
          "type": "string[]"
        },
        {
          "internalType": "uint256[]",
          "name": "metadataVersions",
          "type": "uint256[]"
        },
        {
          "internalType": "uint256[]",
          "name": "tokenIds",
          "type": "uint256[]"
        },
        {
          "internalType": "uint256[]",
          "name": "addedValues",
          "type": "uint256[]"
        }
      ],
      "name": "submissionCreateBulk",
      "outputs": [],
      "stateMutability": "payable",
      "type": "function"
    },
    {
      "inputs": [
        {
          "internalType": "address",
          "name": "to",
          "type": "address"
        },
        {
          "internalType": "uint256",
          "name": "tokenId",
          "type": "uint256"
        },
        {
          "internalType": "string",
          "name": "submissionHash",
          "type": "string"
        }
      ],
      "name": "submissionFund",
      "outputs": [],
      "stateMutability": "payable",
      "type": "function"
    },
    {
      "inputs": [
        {
          "internalType": "string",
          "name": "hash",
          "type": "string"
        }
      ],
      "name": "submissionGetByHash",
      "outputs": [
        {
          "components": [
            {
              "internalType": "address",
              "name": "author",
              "type": "address"
            },
            {
              "internalType": "uint256",
              "name": "addedValue",
              "type": "uint256"
            },
            {
              "internalType": "uint256",
              "name": "reward",
              "type": "uint256"
            },
            {
              "internalType": "uint256",
              "name": "metadataVersion",
              "type": "uint256"
            },
            {
              "internalType": "uint256",
              "name": "tokenId",
              "type": "uint256"
            },
            {
              "internalType": "uint256",
              "name": "deposit",
              "type": "uint256"
            },
            {
              "internalType": "enum Submissions.SubmissionStatus",
              "name": "status",
              "type": "uint8"
            }
          ],
          "internalType": "struct Submissions.Submission",
          "name": "",
          "type": "tuple"
        }
      ],
      "stateMutability": "view",
      "type": "function"
    },
    {
      "inputs": [
        {
          "internalType": "string",
          "name": "hash",
          "type": "string"
        }
      ],
      "name": "submissionReject",
      "outputs": [],
      "stateMutability": "nonpayable",
      "type": "function"
    },
    {
      "inputs": [
        {
          "internalType": "string",
          "name": "hash",
          "type": "string"
        },
        {
          "internalType": "uint256",
          "name": "tokenId",
          "type": "uint256"
        },
        {
          "internalType": "uint256",
          "name": "addedValue",
          "type": "uint256"
        }
      ],
      "name": "submissionUpdate",
      "outputs": [],
      "stateMutability": "nonpayable",
      "type": "function"
    },
    {
      "inputs": [
        {
          "internalType": "bytes4",
          "name": "interfaceId",
          "type": "bytes4"
        }
      ],
      "name": "supportsInterface",
      "outputs": [
        {
          "internalType": "bool",
          "name": "",
          "type": "bool"
        }
      ],
      "stateMutability": "view",
      "type": "function"
    },
    {
      "inputs": [],
      "name": "symbol",
      "outputs": [
        {
          "internalType": "string",
          "name": "",
          "type": "string"
        }
      ],
      "stateMutability": "view",
      "type": "function"
    },
    {
      "inputs": [
        {
          "internalType": "uint256",
          "name": "index",
          "type": "uint256"
        }
      ],
      "name": "tokenByIndex",
      "outputs": [
        {
          "internalType": "uint256",
          "name": "",
          "type": "uint256"
        }
      ],
      "stateMutability": "view",
      "type": "function"
    },
    {
      "inputs": [
        {
          "internalType": "address",
          "name": "owner",
          "type": "address"
        },
        {
          "internalType": "uint256",
          "name": "index",
          "type": "uint256"
        }
      ],
      "name": "tokenOfOwnerByIndex",
      "outputs": [
        {
          "internalType": "uint256",
          "name": "",
          "type": "uint256"
        }
      ],
      "stateMutability": "view",
      "type": "function"
    },
    {
      "inputs": [
        {
          "internalType": "uint256",
          "name": "tokenId",
          "type": "uint256"
        }
      ],
      "name": "tokenURI",
      "outputs": [
        {
          "internalType": "string",
          "name": "",
          "type": "string"
        }
      ],
      "stateMutability": "view",
      "type": "function"
    },
    {
      "inputs": [],
      "name": "totalSupply",
      "outputs": [
        {
          "internalType": "uint256",
          "name": "",
          "type": "uint256"
        }
      ],
      "stateMutability": "view",
      "type": "function"
    },
    {
      "inputs": [
        {
          "internalType": "address",
          "name": "from",
          "type": "address"
        },
        {
          "internalType": "address",
          "name": "to",
          "type": "address"
        },
        {
          "internalType": "uint256",
          "name": "tokenId",
          "type": "uint256"
        }
      ],
      "name": "transferFrom",
      "outputs": [],
      "stateMutability": "nonpayable",
      "type": "function"
    },
    {
      "inputs": [
        {
          "internalType": "address",
          "name": "to",
          "type": "address"
        },
        {
          "internalType": "uint256",
          "name": "tokenId",
          "type": "uint256"
        }
      ],
      "name": "uniquetteCollect",
      "outputs": [],
      "stateMutability": "payable",
      "type": "function"
    },
    {
      "inputs": [
        {
          "internalType": "uint256",
          "name": "tokenId",
          "type": "uint256"
        }
      ],
      "name": "uniquetteGetById",
      "outputs": [
        {
          "components": [
            {
              "internalType": "uint256",
              "name": "tokenId",
              "type": "uint256"
            },
            {
              "internalType": "address",
              "name": "owner",
              "type": "address"
            },
            {
              "internalType": "uint256",
              "name": "collateralValue",
              "type": "uint256"
            },
            {
              "internalType": "uint256",
              "name": "lastPurchaseAmount",
              "type": "uint256"
            }
          ],
          "internalType": "struct Uniquettes.Uniquette",
          "name": "",
          "type": "tuple"
        }
      ],
      "stateMutability": "view",
      "type": "function"
    },
    {
      "inputs": [
        {
          "internalType": "uint256",
          "name": "tokenId",
          "type": "uint256"
        }
      ],
      "name": "uniquetteGetFundedSubmission",
      "outputs": [
        {
          "internalType": "string",
          "name": "",
          "type": "string"
        }
      ],
      "stateMutability": "view",
      "type": "function"
    },
    {
      "inputs": [
        {
          "internalType": "uint256",
          "name": "tokenId",
          "type": "uint256"
        }
      ],
      "name": "uniquetteIncreaseCollateral",
      "outputs": [],
      "stateMutability": "payable",
      "type": "function"
    },
    {
      "inputs": [],
      "name": "unpause",
      "outputs": [],
      "stateMutability": "nonpayable",
      "type": "function"
    }
  ],
  "transactionHash": "0xc5d8c3fecbb8e9f1a9b63990234df6a144bed7eccf2f3e339c84c532c6f7a494",
  "args": [],
  "solcInputHash": "aee98443a86041c9d3c457183295c025",
  "bytecode": "0x608060405234801561001057600080fd5b506154c8806100206000396000f3fe6080604052600436106102435760003560e01c8062f1e4cb1461024857806301ffc9a71461025d57806306fdde0314610292578063081812fc146102b4578063095ea7b3146102e157806318160ddd14610301578063194aaa131461032057806320cbbb0c146103335780632324eef01461038f57806323b872dd146103af578063248a9ca3146103cf57806326a4e8d2146103ef5780632c1da7f31461040f5780632f2ff15d1461042f5780632f745c591461044f57806332f72e391461046f57806336568abe1461048f5780633f4ba83a146104af57806342842e0e146104c457806342966c68146104e45780634c11893c146105045780634f6ccce7146105245780635c975abb146105445780636352211e1461055c57806363ff2c261461057c5780636605bfda1461059c57806370a08231146105bc578063714b63dc146105dc57806372491ead146105fc578063787dce3d1461060f5780637d36b3481461062f5780638456cb591461064f57806385535cc51461066457806391d148541461068457806395d89b41146106a45780639b7bddb0146106b9578063a217fddf146106e6578063a22cb465146106fb578063a5ea11da1461071b578063b88d4fde14610764578063bde1312d14610784578063bf14057214610797578063c7771a3f146107b7578063c87b56dd146107d7578063ccc57490146107f7578063d547741f14610819578063dc8e92ea14610839578063e65e1a1014610859578063e985e9c51461086c578063ee4993751461088c578063ffe329d9146108ac575b600080fd5b61025b610256366004614802565b6108cc565b005b34801561026957600080fd5b5061027d610278366004614a37565b6109d9565b60405190151581526020015b60405180910390f35b34801561029e57600080fd5b506102a76109ec565b6040516102899190614f48565b3480156102c057600080fd5b506102d46102cf3660046149fb565b610a7e565b6040516102899190614e38565b3480156102ed57600080fd5b5061025b6102fc366004614802565b610b06565b34801561030d57600080fd5b5060cb545b604051908152602001610289565b61025b61032e36600461482d565b610b6e565b34801561033f57600080fd5b5061035361034e3660046149fb565b610e68565b6040516102899190815181526020808301516001600160a01b031690820152604080830151908201526060918201519181019190915260800190565b34801561039b57600080fd5b5061025b6103aa3660046149fb565b610f30565b3480156103bb57600080fd5b5061025b6103ca366004614719565b610f6a565b3480156103db57600080fd5b506103126103ea3660046149fb565b610fa0565b3480156103fb57600080fd5b5061025b61040a3660046146c5565b610fb5565b34801561041b57600080fd5b5061025b61042a366004614886565b61100c565b34801561043b57600080fd5b5061025b61044a366004614a13565b61114b565b34801561045b57600080fd5b5061031261046a366004614802565b611169565b34801561047b57600080fd5b5061025b61048a3660046149fb565b6111ff565b34801561049b57600080fd5b5061025b6104aa366004614a13565b611239565b3480156104bb57600080fd5b5061025b6112b7565b3480156104d057600080fd5b5061025b6104df366004614719565b6112f5565b3480156104f057600080fd5b5061025b6104ff3660046149fb565b611310565b34801561051057600080fd5b5061025b61051f366004614aeb565b6113ed565b34801561053057600080fd5b5061031261053f3660046149fb565b611679565b34801561055057600080fd5b5060fb5460ff1661027d565b34801561056857600080fd5b506102d46105773660046149fb565b61171a565b34801561058857600080fd5b5061025b610597366004614b39565b611791565b3480156105a857600080fd5b5061025b6105b73660046146c5565b611898565b3480156105c857600080fd5b506103126105d73660046146c5565b6118e1565b3480156105e857600080fd5b5061025b6105f7366004614a6f565b611968565b61025b61060a3660046148e2565b611bb0565b34801561061b57600080fd5b5061025b61062a3660046149fb565b611e17565b34801561063b57600080fd5b5061025b61064a366004614aa2565b611e51565b34801561065b57600080fd5b5061025b611ec5565b34801561067057600080fd5b5061025b61067f3660046146c5565b611f01565b34801561069057600080fd5b5061027d61069f366004614a13565b611f58565b3480156106b057600080fd5b506102a7611f83565b3480156106c557600080fd5b506106d96106d4366004614a6f565b611f92565b60405161028991906151c6565b3480156106f257600080fd5b50610312600081565b34801561070757600080fd5b5061025b6107163660046147d5565b6120b8565b34801561072757600080fd5b506101915461019254610193546101945461019554604080519586526020860194909452928401919091526060830152608082015260a001610289565b34801561077057600080fd5b5061025b61077f366004614759565b612130565b61025b610792366004614c3f565b612168565b3480156107a357600080fd5b5061025b6107b23660046149fb565b612435565b3480156107c357600080fd5b506102a76107d23660046149fb565b61246f565b3480156107e357600080fd5b506102a76107f23660046149fb565b612512565b34801561080357600080fd5b5061031260008051602061543383398151915281565b34801561082557600080fd5b5061025b610834366004614a13565b612593565b34801561084557600080fd5b5061025b6108543660046149a0565b6125b0565b61025b6108673660046149fb565b612681565b34801561087857600080fd5b5061027d6108873660046146e1565b612782565b34801561089857600080fd5b5061025b6108a73660046146c5565b612805565b3480156108b857600080fd5b5061025b6108c73660046149fb565b61285c565b806108d681612896565b80156108f05750600081815261019c602052604090205415155b6109155760405162461bcd60e51b815260040161090c90615128565b60405180910390fd5b600261015f5414156109395760405162461bcd60e51b815260040161090c9061518f565b600261015f55600082815261019e6020526040812080546109599061535d565b9050116109bd5760405162461bcd60e51b815260206004820152602c60248201527f4449524543544f52592f4e4f5f5355424d495353494f4e5f46554e4445445f4660448201526b4f525f554e4951554554544560a01b606482015260840161090c565b6109ca33848460006128b3565b5050600161015f555050505050565b60006109e482612ced565b90505b919050565b6060609780546109fb9061535d565b80601f0160208091040260200160405190810160405280929190818152602001828054610a279061535d565b8015610a745780601f10610a4957610100808354040283529160200191610a74565b820191906000526020600020905b815481529060010190602001808311610a5757829003601f168201915b5050505050905090565b6000610a8982612896565b610aea5760405162461bcd60e51b815260206004820152602c60248201527f4552433732313a20617070726f76656420717565727920666f72206e6f6e657860448201526b34b9ba32b73a103a37b5b2b760a11b606482015260840161090c565b506000908152609b60205260409020546001600160a01b031690565b60405162461bcd60e51b815260206004820152603760248201527f4469726563746f72793a20617070726f7665206e6f7420737570706f72746564604482015276206f6e20756e69717565747465207472616e736665727360481b606482015260840161090c565b82610b7881612896565b8015610b925750600081815261019c602052604090205415155b610bae5760405162461bcd60e51b815260040161090c90615128565b828260006001600160a01b03166101978383604051610bce929190614d88565b908152604051908190036020019020546001600160a01b03161415610c055760405162461bcd60e51b815260040161090c90614fad565b848460016101978383604051610c1c929190614d88565b9081526040519081900360200190206006015460ff166002811115610c5157634e487b7160e01b600052602160045260246000fd5b14610c6e5760405162461bcd60e51b815260040161090c90614fe1565b8686610193546101978383604051610c87929190614d88565b9081526020016040518091039020600301541015610cb75760405162461bcd60e51b815260040161090c90615061565b600261015f541415610cdb5760405162461bcd60e51b815260040161090c9061518f565b600261015f556000610ced8a8a611f92565b90508a816080015114610d555760405162461bcd60e51b815260206004820152602a60248201527f4449524543544f52592f494e56414c49445f5355424d495353494f4e5f464f526044820152695f554e4951554554544560b01b606482015260840161090c565b60008b815261019e60205260409020610d6f908b8b61442d565b50610d7a8a8a612cf8565b6000610d8c338e8e85602001516128b3565b505061019f54845160408087015190516340c10f1960e01b81529395506001600160a01b0390921693506340c10f1992610dc99290600401614ee4565b600060405180830381600087803b158015610de357600080fd5b505af1158015610df7573d6000803e3d6000fd5b505050508b8d6001600160a01b0316610e0d3390565b6001600160a01b03167f1e0392d89fc63a5033fa3b8ccb7befb7fd00ac557728fa9518a257c0fb6e08f88e8e8634604051610e4b9493929190614f21565b60405180910390a45050600161015f555050505050505050505050565b610e9c60405180608001604052806000815260200160006001600160a01b0316815260200160008152602001600081525090565b81610ea681612896565b8015610ec05750600081815261019c602052604090205415155b610edc5760405162461bcd60e51b815260040161090c90615128565b600083815261019c602090815260409182902082516080810184528154815260018201546001600160a01b031692810192909252600281015492820192909252600390910154606082015291505b50919050565b610f486000805160206154338339815191523361069f565b610f645760405162461bcd60e51b815260040161090c9061515b565b61019255565b610f743382612e14565b610f905760405162461bcd60e51b815260040161090c906150d7565b610f9b838383612f0e565b505050565b60009081526065602052604090206001015490565b610fcd6000805160206154338339815191523361069f565b610fe95760405162461bcd60e51b815260040161090c9061515b565b61019880546001600160a01b0319166001600160a01b0392909216919091179055565b6110246000805160206154338339815191523361069f565b6110405760405162461bcd60e51b815260040161090c9061515b565b600261015f5414156110645760405162461bcd60e51b815260040161090c9061518f565b600261015f558281146110c25760405162461bcd60e51b81526020600482015260326024820152600080516020615473833981519152604482015271206e6f74206d61746368207265776172647360701b606482015260840161090c565b60005b8381101561113e5761112e8585838181106110f057634e487b7160e01b600052603260045260246000fd5b90506020028101906111029190615268565b85858581811061112257634e487b7160e01b600052603260045260246000fd5b905060200201356130a7565b61113781615392565b90506110c5565b5050600161015f55505050565b61115482610fa0565b61115f81335b6132e6565b610f9b838361334a565b6000611174836118e1565b82106111d65760405162461bcd60e51b815260206004820152602b60248201527f455243373231456e756d657261626c653a206f776e657220696e646578206f7560448201526a74206f6620626f756e647360a81b606482015260840161090c565b506001600160a01b0391909116600090815260c960209081526040808320938352929052205490565b6112176000805160206154338339815191523361069f565b6112335760405162461bcd60e51b815260040161090c9061515b565b61019555565b6001600160a01b03811633146112a95760405162461bcd60e51b815260206004820152602f60248201527f416363657373436f6e74726f6c3a2063616e206f6e6c792072656e6f756e636560448201526e103937b632b9903337b91039b2b63360891b606482015260840161090c565b6112b382826133d0565b5050565b6112cf6000805160206154338339815191523361069f565b6112eb5760405162461bcd60e51b815260040161090c9061515b565b6112f3613437565b565b610f9b83838360405180602001604052806000815250612130565b6113286000805160206154338339815191523361069f565b6113445760405162461bcd60e51b815260040161090c9061515b565b600081815261019c602090815260409182902082516080810184528154815260018201546001600160a01b03908116938201849052600283015494820194909452600390910154606082015261019954909216146113e45760405162461bcd60e51b815260206004820152601d60248201527f554e49515545545445532f4e4f545f4f574e45445f42595f5641554c54000000604482015260640161090c565b6112b3826134c4565b838360006001600160a01b0316610197838360405161140d929190614d88565b908152604051908190036020019020546001600160a01b031614156114445760405162461bcd60e51b815260040161090c90614fad565b85856000610197838360405161145b929190614d88565b9081526040519081900360200190206006015460ff16600281111561149057634e487b7160e01b600052602160045260246000fd5b146114ad5760405162461bcd60e51b815260040161090c906150a6565b87876101935461019783836040516114c6929190614d88565b90815260200160405180910390206003015410156114f65760405162461bcd60e51b815260040161090c90615061565b600261015f54141561151a5760405162461bcd60e51b815260040161090c9061518f565b600261015f55336001600160a01b03166101978b8b60405161153d929190614d88565b908152604051908190036020019020546001600160a01b0316148061157557506115756000805160206154338339815191523361069f565b6115cc5760405162461bcd60e51b815260206004820152602260248201527f5355424d495353494f4e532f4e4f545f415554484f525f4f525f474f5645524e60448201526127a960f11b606482015260840161090c565b876101978b8b6040516115e0929190614d88565b908152602001604051809103902060040181905550866101978b8b604051611609929190614d88565b908152604051908190036020019020600101556116233390565b6001600160a01b03167f5d65f7cb575787e992f9f65bcde54aff4e5796220138384beb8d746b439a4aad8b8b8a60405161165f93929190614efd565b60405180910390a25050600161015f555050505050505050565b600061168460cb5490565b82106116e75760405162461bcd60e51b815260206004820152602c60248201527f455243373231456e756d657261626c653a20676c6f62616c20696e646578206f60448201526b7574206f6620626f756e647360a01b606482015260840161090c565b60cb828154811061170857634e487b7160e01b600052603260045260246000fd5b90600052602060002001549050919050565b6000818152609960205260408120546001600160a01b0316806109e45760405162461bcd60e51b815260206004820152602960248201527f4552433732313a206f776e657220717565727920666f72206e6f6e657869737460448201526832b73a103a37b5b2b760b91b606482015260840161090c565b600054610100900460ff16806117aa575060005460ff16155b6117c65760405162461bcd60e51b815260040161090c90615013565b600054610100900460ff161580156117e8576000805461ffff19166101011790555b6117f58686868686613559565b6118038d8d8c8c8c8c61360b565b61180c886136cb565b61019f80546001600160a01b03808d166001600160a01b0319928316179092556101a08054928c16929091169190911790558a51611852906101a19060208e01906144b1565b5061185f6000335b613777565b6118776000805160206154338339815191523361185a565b8015611889576000805461ff00191690555b50505050505050505050505050565b6118b06000805160206154338339815191523361069f565b6118cc5760405162461bcd60e51b815260040161090c9061515b565b6118d581613781565b6118de816137d8565b50565b60006001600160a01b03821661194c5760405162461bcd60e51b815260206004820152602a60248201527f4552433732313a2062616c616e636520717565727920666f7220746865207a65604482015269726f206164647265737360b01b606482015260840161090c565b506001600160a01b03166000908152609a602052604090205490565b6119806000805160206154338339815191523361069f565b61199c5760405162461bcd60e51b815260040161090c9061515b565b818160006001600160a01b031661019783836040516119bc929190614d88565b908152604051908190036020019020546001600160a01b031614156119f35760405162461bcd60e51b815260040161090c90614fad565b838360006101978383604051611a0a929190614d88565b9081526040519081900360200190206006015460ff166002811115611a3f57634e487b7160e01b600052602160045260246000fd5b14611a5c5760405162461bcd60e51b815260040161090c906150a6565b600261015f541415611a805760405162461bcd60e51b815260040161090c9061518f565b600261015f5560405160009061019790611a9d9089908990614d88565b908152604051908190036020018120546001600160a01b0316915060009061019790611acc908a908a90614d88565b90815260200160405180910390206005015490506101978888604051611af3929190614d88565b90815260405190819003602001902080546001600160a01b03191681556000600182018190556002820181905560038201819055600482018190556005820155600601805460ff191690558015611b5b5761019654611b5b906001600160a01b03168261382f565b6001600160a01b0382167fd0ebb0eea23bb48fde00a512003aa8e1a997969ece3a7bd7bd867b0b4fe2e698338a8a604051611b9893929190614e89565b60405180910390a25050600161015f55505050505050565b600261015f541415611bd45760405162461bcd60e51b815260040161090c9061518f565b600261015f55868514611c3b5760405162461bcd60e51b815260206004820152603b602482015260008051602061547383398151915260448201527a206e6f74206d61746368206d6574616461746156657273696f6e7360281b606482015260840161090c565b868314611c945760405162461bcd60e51b81526020600482015260336024820152600080516020615473833981519152604482015272206e6f74206d6174636820746f6b656e49647360681b606482015260840161090c565b868114611ceb5760405162461bcd60e51b81526020600482015260316024820152600080516020615473833981519152604482015270206e6f74206d617463682076616c75657360781b606482015260840161090c565b60005b87811015611e06573063bde1312d868684818110611d1c57634e487b7160e01b600052603260045260246000fd5b905060200201358b8b85818110611d4357634e487b7160e01b600052603260045260246000fd5b9050602002810190611d559190615268565b8b8b87818110611d7557634e487b7160e01b600052603260045260246000fd5b90506020020135888888818110611d9c57634e487b7160e01b600052603260045260246000fd5b905060200201356040518663ffffffff1660e01b8152600401611dc395949392919061523a565b600060405180830381600087803b158015611ddd57600080fd5b505af1158015611df1573d6000803e3d6000fd5b5050505080611dff90615392565b9050611cee565b5050600161015f5550505050505050565b611e2f6000805160206154338339815191523361069f565b611e4b5760405162461bcd60e51b815260040161090c9061515b565b61019155565b611e696000805160206154338339815191523361069f565b611e855760405162461bcd60e51b815260040161090c9061515b565b600261015f541415611ea95760405162461bcd60e51b815260040161090c9061518f565b600261015f55611eba8383836130a7565b5050600161015f5550565b611edd6000805160206154338339815191523361069f565b611ef95760405162461bcd60e51b815260040161090c9061515b565b6112f3613945565b611f196000805160206154338339815191523361069f565b611f355760405162461bcd60e51b815260040161090c9061515b565b61019980546001600160a01b0319166001600160a01b0392909216919091179055565b60009182526065602090815260408084206001600160a01b0393909316845291905290205460ff1690565b6060609880546109fb9061535d565b611f9a614525565b828260006001600160a01b03166101978383604051611fba929190614d88565b908152604051908190036020019020546001600160a01b03161415611ff15760405162461bcd60e51b815260040161090c90614fad565b6101978585604051612004929190614d88565b90815260408051918290036020908101832060e08401835280546001600160a01b03168452600181015491840191909152600280820154928401929092526003810154606084015260048101546080840152600581015460a08401526006810154909160c084019160ff169081111561208d57634e487b7160e01b600052602160045260246000fd5b60028111156120ac57634e487b7160e01b600052602160045260246000fd5b90525095945050505050565b60405162461bcd60e51b815260206004820152604160248201527f4469726563746f72793a20736574417070726f76616c466f72416c6c206e6f7460448201527f20737570706f72746564206f6e20756e69717565747465207472616e736665726064820152607360f81b608482015260a40161090c565b61213a3383612e14565b6121565760405162461bcd60e51b815260040161090c906150d7565b612162848484846139c0565b50505050565b60006001600160a01b03166101978585604051612186929190614d88565b908152604051908190036020019020546001600160a01b0316146121ea5760405162461bcd60e51b815260206004820152601b60248201527a14d550935254d4d253d394cbd053149150511657d0d49150551151602a1b604482015260640161090c565b6101955434146122475760405162461bcd60e51b815260206004820152602260248201527f5355424d495353494f4e532f45584143545f4445504f5349545f524551554952604482015261115160f21b606482015260840161090c565b610193548210156122ab5760405162461bcd60e51b815260206004820152602860248201527f5355424d495353494f4e532f554e535550504f525445445f4d455441444154416044820152672fab22a929a4a7a760c11b606482015260840161090c565b3361019785856040516122bf929190614d88565b90815260405190819003602001812080546001600160a01b03939093166001600160a01b0319909316929092179091558590610197906123029087908790614d88565b90815260200160405180910390206004018190555081610197858560405161232b929190614d88565b908152602001604051809103902060030181905550806101978585604051612354929190614d88565b90815260200160405180910390206001018190555034610197858560405161237d929190614d88565b908152602001604051809103902060050181905550600061019785856040516123a7929190614d88565b908152604051908190036020019020600601805460ff191660018360028111156123e157634e487b7160e01b600052602160045260246000fd5b021790555084336001600160a01b03167f4d66d41804994e0b3749bf214861b72fe46575c5645646e020570c8403e7a1d6868685346040516124269493929190614f21565b60405180910390a35050505050565b61244d6000805160206154338339815191523361069f565b6124695760405162461bcd60e51b815260040161090c9061515b565b61019355565b600081815261019e6020526040902080546060919061248d9061535d565b80601f01602080910402602001604051908101604052809291908181526020018280546124b99061535d565b80156125065780601f106124db57610100808354040283529160200191612506565b820191906000526020600020905b8154815290600101906020018083116124e957829003601f168201915b50505050509050919050565b60608161251e81612896565b80156125385750600081815261019c602052604090205415155b6125545760405162461bcd60e51b815260040161090c90615128565b6101a161019e600085815260200190815260200160002060405160200161257c929190614db4565b604051602081830303815290604052915050919050565b61259c82610fa0565b6125a6813361115a565b610f9b83836133d0565b6125c86000805160206154338339815191523361069f565b6125e45760405162461bcd60e51b815260040161090c9061515b565b60005b81811015610f9b57600083838381811061261157634e487b7160e01b600052603260045260246000fd5b604051630852cd8d60e31b81526020909102929092013560048301819052925030916342966c689150602401600060405180830381600087803b15801561265757600080fd5b505af115801561266b573d6000803e3d6000fd5b50505050508061267a90615392565b90506125e7565b8061268b81612896565b80156126a55750600081815261019c602052604090205415155b6126c15760405162461bcd60e51b815260040161090c90615128565b600261015f5414156126e55760405162461bcd60e51b815260040161090c9061518f565b600261015f5561019954612702906001600160a01b03163461382f565b600082815261019c6020526040812060020180543492906127249084906152ac565b9091555050600082815261019c602052604090206001015482906001600160a01b0316336001600160a01b03166000805160206154138339815191523460405161277091815260200190565b60405180910390a45050600161015f55565b600061279c60008051602061543383398151915283611f58565b806127b5575061019b546001600160a01b038381169116145b806127ce5750610199546001600160a01b038381169116145b806127fe57506001600160a01b038084166000908152609c602090815260408083209386168352929052205460ff165b9392505050565b61281d6000805160206154338339815191523361069f565b6128395760405162461bcd60e51b815260040161090c9061515b565b61019b80546001600160a01b0319166001600160a01b0392909216919091179055565b6128746000805160206154338339815191523361069f565b6128905760405162461bcd60e51b815260040161090c9061515b565b61019455565b6000908152609960205260409020546001600160a01b0316151590565b600080600080856128c381612896565b80156128dd5750600081815261019c602052604090205415155b6128f95760405162461bcd60e51b815260040161090c90615128565b6001600160a01b03881661294f5760405162461bcd60e51b815260206004820152601f60248201527f554e49515545545445532f434f4c4c4543545f544f5f5a45524f5f4144445200604482015260640161090c565b600061295a88610e68565b9050600034116129aa5760405162461bcd60e51b815260206004820152601b60248201527a15539254555155151154cbd410565351539517d491545552549151602a1b604482015260640161090c565b6129b3816139f3565b95506129bf87876152ac565b945061271061019154866129d391906152e4565b6129dd91906152c4565b92506129e98334615303565b935084841015612a3b5760405162461bcd60e51b815260206004820152601f60248201527f554e49515545545445532f4e4f545f454e4f5547485f5052494e434950414c00604482015260640161090c565b6000612a478786615303565b905060008411612a995760405162461bcd60e51b815260206004820152601e60248201527f554e49515545545445532f554e45585045435445445f5a45524f5f4645450000604482015260640161090c565b86861015612af95760405162461bcd60e51b815260206004820152602760248201527f554e49515545545445532f554e45585045435445445f44455052454349415445604482015266445f505249434560c81b606482015260840161090c565b34811115612b595760405162461bcd60e51b815260206004820152602760248201527f554e49515545545445532f554e45585045435445445f4558434553535f434f4c6044820152661310551154905360ca1b606482015260840161090c565b600089815261019c602052604081206002018054839290612b7b9084906152ac565b9091555050600089815261019c60209081526040909120600301879055820151612ba58c8b613a6a565b612bb0818c8c612f0e565b604080516001600160a01b038e81168252602082018b9052918101899052606081018890528b91808e1691908416907f6fdb2ff779ec4d72d0b11602f19b1511c6e1af12f133f56c677fbd3e0f252a059060800160405180910390a461019a54612c23906001600160a01b03168661382f565b898b6001600160a01b03168d6001600160a01b03167f5d90ed55018a812d5146da57fe239c218fe08dfd6c476b2df791ecd2744d91148489604051612c69929190614ee4565b60405180910390a4612c846001600160a01b0382168961382f565b8115612cde5761019954612ca1906001600160a01b03168361382f565b898b6001600160a01b03168d6001600160a01b031660008051602061541383398151915285604051612cd591815260200190565b60405180910390a45b50505050945094509450949050565b60006109e482613ad8565b818160006001600160a01b03166101978383604051612d18929190614d88565b908152604051908190036020019020546001600160a01b03161415612d4f5760405162461bcd60e51b815260040161090c90614fad565b838360016101978383604051612d66929190614d88565b9081526040519081900360200190206006015460ff166002811115612d9b57634e487b7160e01b600052602160045260246000fd5b14612db85760405162461bcd60e51b815260040161090c90614fe1565b60026101978787604051612dcd929190614d88565b908152604051908190036020019020600601805460ff19166001836002811115612e0757634e487b7160e01b600052602160045260246000fd5b0217905550505050505050565b600081612e2081612896565b8015612e3a5750600081815261019c602052604090205415155b612e565760405162461bcd60e51b815260040161090c90615128565b6000612e618461171a565b9050846001600160a01b0316612e7685610a7e565b6001600160a01b03161480612f05575060405163e985e9c560e01b81526001600160a01b03808316600483015286166024820152309063e985e9c59060440160206040518083038186803b158015612ecd57600080fd5b505afa158015612ee1573d6000803e3d6000fd5b505050506040513d601f19601f82011682018060405250810190612f0591906149df565b95945050505050565b826001600160a01b0316612f218261171a565b6001600160a01b031614612f895760405162461bcd60e51b815260206004820152602960248201527f4552433732313a207472616e73666572206f6620746f6b656e2074686174206960448201526839903737ba1037bbb760b91b606482015260840161090c565b6001600160a01b038216612feb5760405162461bcd60e51b8152602060048201526024808201527f4552433732313a207472616e7366657220746f20746865207a65726f206164646044820152637265737360e01b606482015260840161090c565b612ff6838383613ae3565b613001600082613a6a565b6001600160a01b0383166000908152609a6020526040812080546001929061302a908490615303565b90915550506001600160a01b0382166000908152609a602052604081208054600192906130589084906152ac565b909155505060008181526099602052604080822080546001600160a01b0319166001600160a01b03868116918217909255915184939187169160008051602061545383398151915291a4505050565b828260006001600160a01b031661019783836040516130c7929190614d88565b908152604051908190036020019020546001600160a01b031614156130fe5760405162461bcd60e51b815260040161090c90614fad565b848460006101978383604051613115929190614d88565b9081526040519081900360200190206006015460ff16600281111561314a57634e487b7160e01b600052602160045260246000fd5b146131675760405162461bcd60e51b815260040161090c906150a6565b8686610193546101978383604051613180929190614d88565b90815260200160405180910390206003015410156131b05760405162461bcd60e51b815260040161090c90615061565b866101978a8a6040516131c4929190614d88565b90815260200160405180910390206002018190555060016101978a8a6040516131ee929190614d88565b908152604051908190036020019020600601805460ff1916600183600281111561322857634e487b7160e01b600052602160045260246000fd5b021790555061326c89898080601f016020809104026020016040519081016040528093929190818152602001838380828437600092019190915250613b1992505050565b610197898960405161327f929190614d88565b908152604051908190036020019020546001600160a01b03167f5bea5396cded2d11968478f123d99353c403ea9476cb3ef522fc1548d0cd61416132c03390565b8b8b8b6040516132d39493929190614eae565b60405180910390a2505050505050505050565b6132f08282611f58565b6112b357613308816001600160a01b03166014613c1d565b613313836020613c1d565b604051602001613324929190614dc9565b60408051601f198184030181529082905262461bcd60e51b825261090c91600401614f48565b6133548282611f58565b6112b35760008281526065602090815260408083206001600160a01b03851684529091529020805460ff1916600117905561338c3390565b6001600160a01b0316816001600160a01b0316837f2f8788117e7eff1d82e926ec794901d17c78024a50270940304540a733656f0d60405160405180910390a45050565b6133da8282611f58565b156112b35760008281526065602090815260408083206001600160a01b0385168085529252808320805460ff1916905551339285917ff6391f5c32d9c69d2a47ea670b442974b53935d1edc7fd64eb21e047a839171b9190a45050565b60fb5460ff166134805760405162461bcd60e51b815260206004820152601460248201527314185d5cd8589b194e881b9bdd081c185d5cd95960621b604482015260640161090c565b60fb805460ff191690557f5db9ee0a495bf2e6ff9c91a7834c1ba4fdd244a5e8aa4e537bd38aeae4b073aa335b6040516134ba9190614e38565b60405180910390a1565b60006134cf8261171a565b90506134dd81600084613ae3565b6134e8600083613a6a565b6001600160a01b0381166000908152609a60205260408120805460019290613511908490615303565b909155505060008281526099602052604080822080546001600160a01b0319169055518391906001600160a01b03841690600080516020615453833981519152908390a45050565b600054610100900460ff1680613572575060005460ff16155b61358e5760405162461bcd60e51b815260040161090c90615013565b600054610100900460ff161580156135b0576000805461ffff19166101011790555b6101918690556101938590556101928490556101948390556101958290556135d960003361185a565b6135f16000805160206154338339815191523361185a565b8015613603576000805461ff00191690555b505050505050565b600054610100900460ff1680613624575060005460ff16155b6136405760405162461bcd60e51b815260040161090c90615013565b600054610100900460ff16158015613662576000805461ffff19166101011790555b61019880546001600160a01b038088166001600160a01b031992831617909255610199805487841690831617905561019a805486841690831617905561019b80549285169290911691909117905580156136c2576000805461ff00191690555b50505050505050565b600054610100900460ff16806136e4575060005460ff16155b6137005760405162461bcd60e51b815260040161090c90615013565b600054610100900460ff16158015613722576000805461ffff19166101011790555b61019680546001600160a01b0319166001600160a01b03841617905561374a600061185a3390565b6137626000805160206154338339815191523361185a565b80156112b3576000805461ff00191690555050565b6112b3828261334a565b6137996000805160206154338339815191523361069f565b6137b55760405162461bcd60e51b815260040161090c9061515b565b61019a80546001600160a01b0319166001600160a01b0392909216919091179055565b6137f06000805160206154338339815191523361069f565b61380c5760405162461bcd60e51b815260040161090c9061515b565b61019680546001600160a01b0319166001600160a01b0392909216919091179055565b8047101561387f5760405162461bcd60e51b815260206004820152601d60248201527f416464726573733a20696e73756666696369656e742062616c616e6365000000604482015260640161090c565b6000826001600160a01b03168260405160006040518083038185875af1925050503d80600081146138cc576040519150601f19603f3d011682016040523d82523d6000602084013e6138d1565b606091505b5050905080610f9b5760405162461bcd60e51b815260206004820152603a60248201527f416464726573733a20756e61626c6520746f2073656e642076616c75652c20726044820152791958da5c1a595b9d081b585e481a185d99481c995d995c9d195960321b606482015260840161090c565b60fb5460ff161561398b5760405162461bcd60e51b815260206004820152601060248201526f14185d5cd8589b194e881c185d5cd95960821b604482015260640161090c565b60fb805460ff191660011790557f62e78cea01bee320cd4e420270b5ea74000d11b0c9f74754ebdbfc544b05a2586134ad3390565b6139cb848484612f0e565b6139d784848484613dfe565b6121625760405162461bcd60e51b815260040161090c90614f5b565b6000816040015182606001511015613a3b57612710610194548360400151613a1b91906152e4565b613a2591906152c4565b8260400151613a3491906152ac565b90506109e7565b612710610194548360600151613a5191906152e4565b613a5b91906152c4565b8260600151613a3491906152ac565b6000818152609b6020526040902080546001600160a01b0319166001600160a01b0384169081179091558190613a9f8261171a565b6001600160a01b03167f8c5be1e5ebec7d5bd14f71427d1e84f3dd0314c0f7b2291e5b200ac8c7c3b92560405160405180910390a45050565b60006109e482613f0c565b600081815261019c6020526040902060010180546001600160a01b0319166001600160a01b038416179055610f9b838383613f31565b600061019782604051613b2c9190614d98565b9081526020016040518091039020600401541115613b49576118de565b600161019782604051613b5c9190614d98565b9081526040519081900360200190206006015460ff166002811115613b9157634e487b7160e01b600052602160045260246000fd5b14613be85760405162461bcd60e51b815260206004820152602160248201527f4449524543544f52592f5355424d495353494f4e5f4e4f545f415050524f56456044820152601160fa1b606482015260840161090c565b6000613bf2613fa3565b90508061019783604051613c069190614d98565b908152604051908190036020019020600401555050565b60606000613c2c8360026152e4565b613c379060026152ac565b6001600160401b03811115613c5c57634e487b7160e01b600052604160045260246000fd5b6040519080825280601f01601f191660200182016040528015613c86576020820181803683370190505b509050600360fc1b81600081518110613caf57634e487b7160e01b600052603260045260246000fd5b60200101906001600160f81b031916908160001a905350600f60fb1b81600181518110613cec57634e487b7160e01b600052603260045260246000fd5b60200101906001600160f81b031916908160001a9053506000613d108460026152e4565b613d1b9060016152ac565b90505b6001811115613daf576f181899199a1a9b1b9c1cb0b131b232b360811b85600f1660108110613d5d57634e487b7160e01b600052603260045260246000fd5b1a60f81b828281518110613d8157634e487b7160e01b600052603260045260246000fd5b60200101906001600160f81b031916908160001a90535060049490941c93613da881615346565b9050613d1e565b5083156127fe5760405162461bcd60e51b815260206004820181905260248201527f537472696e67733a20686578206c656e67746820696e73756666696369656e74604482015260640161090c565b60006001600160a01b0384163b15613f0057604051630a85bd0160e11b81526001600160a01b0385169063150b7a0290613e42903390899088908890600401614e4c565b602060405180830381600087803b158015613e5c57600080fd5b505af1925050508015613e8c575060408051601f3d908101601f19168201909252613e8991810190614a53565b60015b613ee6573d808015613eba576040519150601f19603f3d011682016040523d82523d6000602084013e613ebf565b606091505b508051613ede5760405162461bcd60e51b815260040161090c90614f5b565b805181602001fd5b6001600160e01b031916630a85bd0160e11b149050613f04565b5060015b949350505050565b60006001600160e01b0319821663780e9d6360e01b14806109e457506109e482614015565b613f3c838383614055565b60fb5460ff1615610f9b5760405162461bcd60e51b815260206004820152602b60248201527f4552433732315061757361626c653a20746f6b656e207472616e73666572207760448201526a1a1a5b19481c185d5cd95960aa1b606482015260840161090c565b6000613fb461019d80546001019055565b6000613fc061019d5490565b6101998054600083815261019c602052604081206001810180546001600160a01b0319166001600160a01b0394851617905584815560028101829055600301559054919250614010911682614112565b905090565b60006001600160e01b031982166380ac58cd60e01b148061404657506001600160e01b03198216635b5e139f60e01b145b806109e457506109e48261423e565b6001600160a01b0383166140b0576140ab8160cb8054600083815260cc60205260408120829055600182018355919091527fa7ce836d032b2bf62b7e2097a8e0a6d8aeb35405ad15271e96d3b0188a1d06fb0155565b6140d3565b816001600160a01b0316836001600160a01b0316146140d3576140d38382614273565b6001600160a01b0382166140ef576140ea81614310565b610f9b565b826001600160a01b0316826001600160a01b031614610f9b57610f9b82826143e9565b6001600160a01b0382166141685760405162461bcd60e51b815260206004820181905260248201527f4552433732313a206d696e7420746f20746865207a65726f2061646472657373604482015260640161090c565b61417181612896565b156141bd5760405162461bcd60e51b815260206004820152601c60248201527b115490cdcc8c4e881d1bdad95b88185b1c9958591e481b5a5b9d195960221b604482015260640161090c565b6141c960008383613ae3565b6001600160a01b0382166000908152609a602052604081208054600192906141f29084906152ac565b909155505060008181526099602052604080822080546001600160a01b0319166001600160a01b0386169081179091559051839290600080516020615453833981519152908290a45050565b60006001600160e01b03198216637965db0b60e01b14806109e457506301ffc9a760e01b6001600160e01b03198316146109e4565b60006001614280846118e1565b61428a9190615303565b600083815260ca60205260409020549091508082146142dd576001600160a01b038416600090815260c960209081526040808320858452825280832054848452818420819055835260ca90915290208190555b50600091825260ca602090815260408084208490556001600160a01b03909416835260c981528383209183525290812055565b60cb5460009061432290600190615303565b600083815260cc602052604081205460cb805493945090928490811061435857634e487b7160e01b600052603260045260246000fd5b906000526020600020015490508060cb838154811061438757634e487b7160e01b600052603260045260246000fd5b600091825260208083209091019290925582815260cc909152604080822084905585825281205560cb8054806143cd57634e487b7160e01b600052603160045260246000fd5b6001900381819060005260206000200160009055905550505050565b60006143f4836118e1565b6001600160a01b03909316600090815260c960209081526040808320868452825280832085905593825260ca9052919091209190915550565b8280546144399061535d565b90600052602060002090601f01602090048101928261445b57600085556144a1565b82601f106144745782800160ff198235161785556144a1565b828001600101855582156144a1579182015b828111156144a1578235825591602001919060010190614486565b506144ad929150614589565b5090565b8280546144bd9061535d565b90600052602060002090601f0160209004810192826144df57600085556144a1565b82601f106144f857805160ff19168380011785556144a1565b828001600101855582156144a1579182015b828111156144a157825182559160200191906001019061450a565b6040518060e0016040528060006001600160a01b0316815260200160008152602001600081526020016000815260200160008152602001600081526020016000600281111561458457634e487b7160e01b600052602160045260246000fd5b905290565b5b808211156144ad576000815560010161458a565b60006001600160401b03808411156145b8576145b86153c3565b604051601f8501601f19908116603f011681019082821181831017156145e0576145e06153c3565b816040528093508581528686860111156145f957600080fd5b858560208301376000602087830101525050509392505050565b80356109e7816153d9565b60008083601f84011261462f578182fd5b5081356001600160401b03811115614645578182fd5b6020830191508360208260051b850101111561466057600080fd5b9250929050565b60008083601f840112614678578182fd5b5081356001600160401b0381111561468e578182fd5b60208301915083602082850101111561466057600080fd5b600082601f8301126146b6578081fd5b6127fe8383356020850161459e565b6000602082840312156146d6578081fd5b81356127fe816153d9565b600080604083850312156146f3578081fd5b82356146fe816153d9565b9150602083013561470e816153d9565b809150509250929050565b60008060006060848603121561472d578081fd5b8335614738816153d9565b92506020840135614748816153d9565b929592945050506040919091013590565b6000806000806080858703121561476e578081fd5b8435614779816153d9565b93506020850135614789816153d9565b92506040850135915060608501356001600160401b038111156147aa578182fd5b8501601f810187136147ba578182fd5b6147c98782356020840161459e565b91505092959194509250565b600080604083850312156147e7578182fd5b82356147f2816153d9565b9150602083013561470e816153ee565b60008060408385031215614814578182fd5b823561481f816153d9565b946020939093013593505050565b60008060008060608587031215614842578384fd5b843561484d816153d9565b93506020850135925060408501356001600160401b0381111561486e578283fd5b61487a87828801614667565b95989497509550505050565b6000806000806040858703121561489b578384fd5b84356001600160401b03808211156148b1578586fd5b6148bd8883890161461e565b909650945060208701359150808211156148d5578384fd5b5061487a8782880161461e565b6000806000806000806000806080898b0312156148fd578586fd5b88356001600160401b0380821115614913578788fd5b61491f8c838d0161461e565b909a50985060208b0135915080821115614937578788fd5b6149438c838d0161461e565b909850965060408b013591508082111561495b578586fd5b6149678c838d0161461e565b909650945060608b013591508082111561497f578384fd5b5061498c8b828c0161461e565b999c989b5096995094979396929594505050565b600080602083850312156149b2578182fd5b82356001600160401b038111156149c7578283fd5b6149d38582860161461e565b90969095509350505050565b6000602082840312156149f0578081fd5b81516127fe816153ee565b600060208284031215614a0c578081fd5b5035919050565b60008060408385031215614a25578182fd5b82359150602083013561470e816153d9565b600060208284031215614a48578081fd5b81356127fe816153fc565b600060208284031215614a64578081fd5b81516127fe816153fc565b60008060208385031215614a81578182fd5b82356001600160401b03811115614a96578283fd5b6149d385828601614667565b600080600060408486031215614ab6578081fd5b83356001600160401b03811115614acb578182fd5b614ad786828701614667565b909790965060209590950135949350505050565b60008060008060608587031215614b00578182fd5b84356001600160401b03811115614b15578283fd5b614b2187828801614667565b90989097506020870135966040013595509350505050565b6000806000806000806000806000806000806101808d8f031215614b5b578586fd5b6001600160401b038d351115614b6f578586fd5b614b7c8e8e358f016146a6565b9b506001600160401b0360208e01351115614b95578586fd5b614ba58e60208f01358f016146a6565b9a506001600160401b0360408e01351115614bbe578586fd5b614bce8e60408f01358f016146a6565b9950614bdc60608e01614613565b9850614bea60808e01614613565b9750614bf860a08e01614613565b9650614c0660c08e01614613565b955060e08d013594506101008d013593506101208d013592506101408d013591506101608d013590509295989b509295989b509295989b565b600080600080600060808688031215614c56578283fd5b8535945060208601356001600160401b03811115614c72578384fd5b614c7e88828901614667565b9699909850959660408101359660609091013595509350505050565b60008151808452614cb281602086016020860161531a565b601f01601f19169290920160200192915050565b60008284528282602086013780602084860101526020601f19601f85011685010190509392505050565b8054600090600181811c9080831680614d0a57607f831692505b6020808410821415614d2a57634e487b7160e01b86526022600452602486fd5b818015614d3e5760018114614d4f57614d7c565b60ff19861689528489019650614d7c565b60008881526020902060005b86811015614d745781548b820152908501908301614d5b565b505084890196505b50505050505092915050565b6000828483379101908152919050565b60008251614daa81846020870161531a565b9190910192915050565b6000613f04614dc38386614cf0565b84614cf0565b600076020b1b1b2b9b9a1b7b73a3937b61d1030b1b1b7bab73a1604d1b82528351614dfb81601785016020880161531a565b7001034b99036b4b9b9b4b733903937b6329607d1b6017918401918201528351614e2c81602884016020880161531a565b01602801949350505050565b6001600160a01b0391909116815260200190565b6001600160a01b0385811682528416602082015260408101839052608060608201819052600090614e7f90830184614c9a565b9695505050505050565b6001600160a01b0384168152604060208201819052600090612f059083018486614cc6565b6001600160a01b0385168152606060208201819052600090614ed39083018587614cc6565b905082604083015295945050505050565b6001600160a01b03929092168252602082015260400190565b600060408252614f11604083018587614cc6565b9050826020830152949350505050565b600060608252614f35606083018688614cc6565b6020830194909452506040015292915050565b6000602082526127fe6020830184614c9a565b60208082526032908201527f4552433732313a207472616e7366657220746f206e6f6e20455243373231526560408201527131b2b4bb32b91034b6b83632b6b2b73a32b960711b606082015260800190565b6020808252601a908201527914d550935254d4d253d394cbd113d154d7d393d517d1561254d560321b604082015260600190565b60208082526018908201527714d550935254d4d253d394cbd393d517d054141493d5915160421b604082015260600190565b6020808252602e908201527f496e697469616c697a61626c653a20636f6e747261637420697320616c72656160408201526d191e481a5b9a5d1a585b1a5e995960921b606082015260800190565b60208082526025908201527f5355424d495353494f4e532f4f555444415445445f4d455441444154415f56456040820152642929a4a7a760d91b606082015260800190565b6020808252601790820152765355424d495353494f4e532f4e4f545f50454e44494e4760481b604082015260600190565b60208082526031908201527f4552433732313a207472616e736665722063616c6c6572206973206e6f74206f6040820152701ddb995c881b9bdc88185c1c1c9bdd9959607a1b606082015260800190565b60208082526019908201527815539254555155151154cbd113d154d7d393d517d1561254d5603a1b604082015260600190565b6020808252601a908201527921a7a6a6a7a717a1a0a62622a92fa727aa2fa3a7ab22a92727a960311b604082015260600190565b6020808252601f908201527f5265656e7472616e637947756172643a207265656e7472616e742063616c6c00604082015260600190565b81516001600160a01b031681526020808301519082015260408083015190820152606080830151908201526080808301519082015260a0828101519082015260c082015160e08201906003811061522d57634e487b7160e01b600052602160045260246000fd5b8060c08401525092915050565b600086825260806020830152615254608083018688614cc6565b604083019490945250606001529392505050565b6000808335601e1984360301811261527e578283fd5b8301803591506001600160401b03821115615297578283fd5b60200191503681900382131561466057600080fd5b600082198211156152bf576152bf6153ad565b500190565b6000826152df57634e487b7160e01b81526012600452602481fd5b500490565b60008160001904831182151516156152fe576152fe6153ad565b500290565b600082821015615315576153156153ad565b500390565b60005b8381101561533557818101518382015260200161531d565b838111156121625750506000910152565b600081615355576153556153ad565b506000190190565b600181811c9082168061537157607f821691505b60208210811415610f2a57634e487b7160e01b600052602260045260246000fd5b60006000198214156153a6576153a66153ad565b5060010190565b634e487b7160e01b600052601160045260246000fd5b634e487b7160e01b600052604160045260246000fd5b6001600160a01b03811681146118de57600080fd5b80151581146118de57600080fd5b6001600160e01b0319811681146118de57600080fdfe0a7607b0b6665c6192e995edd0c765abfbeeb267a2ea3248d0b9125c3c1f42087935bd0ae54bc31f548c14dba4d37c5c64b3f8ca900cb468fb8abd54d5894f55ddf252ad1be2c89b69c2b068fc378daa952ba7f163c4a11628f55a4df523b3ef5375626d697373696f6e733a206e756d626572206f662068617368657320646fa26469706673582212208c91072192c5711aaa756fee997b2791b1c36338f535a4cd18128f695c016af164736f6c63430008030033",
  "devdoc": {
    "kind": "dev",
    "methods": {
      "approve(address,uint256)": {
        "details": "See {IERC721-approve}."
      },
      "balanceOf(address)": {
        "details": "See {IERC721-balanceOf}."
      },
      "getApproved(uint256)": {
        "details": "See {IERC721-getApproved}."
      },
      "getRoleAdmin(bytes32)": {
        "details": "Returns the admin role that controls `role`. See {grantRole} and {revokeRole}. To change a role's admin, use {_setRoleAdmin}."
      },
      "grantRole(bytes32,address)": {
        "details": "Grants `role` to `account`. If `account` had not been already granted `role`, emits a {RoleGranted} event. Requirements: - the caller must have ``role``'s admin role."
      },
      "hasRole(bytes32,address)": {
        "details": "Returns `true` if `account` has been granted `role`."
      },
      "name()": {
        "details": "See {IERC721Metadata-name}."
      },
      "ownerOf(uint256)": {
        "details": "See {IERC721-ownerOf}."
      },
      "paused()": {
        "details": "Returns true if the contract is paused, and false otherwise."
      },
      "renounceRole(bytes32,address)": {
        "details": "Revokes `role` from the calling account. Roles are often managed via {grantRole} and {revokeRole}: this function's purpose is to provide a mechanism for accounts to lose their privileges if they are compromised (such as when a trusted device is misplaced). If the calling account had been granted `role`, emits a {RoleRevoked} event. Requirements: - the caller must be `account`."
      },
      "revokeRole(bytes32,address)": {
        "details": "Revokes `role` from `account`. If `account` had been granted `role`, emits a {RoleRevoked} event. Requirements: - the caller must have ``role``'s admin role."
      },
      "safeTransferFrom(address,address,uint256)": {
        "details": "See {IERC721-safeTransferFrom}."
      },
      "safeTransferFrom(address,address,uint256,bytes)": {
        "details": "See {IERC721-safeTransferFrom}."
      },
      "setApprovalForAll(address,bool)": {
        "details": "See {IERC721-setApprovalForAll}."
      },
      "symbol()": {
        "details": "See {IERC721Metadata-symbol}."
      },
      "tokenByIndex(uint256)": {
        "details": "See {IERC721Enumerable-tokenByIndex}."
      },
      "tokenOfOwnerByIndex(address,uint256)": {
        "details": "See {IERC721Enumerable-tokenOfOwnerByIndex}."
      },
      "tokenURI(uint256)": {
        "details": "See {IERC721Metadata-tokenURI}."
      },
      "totalSupply()": {
        "details": "See {IERC721Enumerable-totalSupply}."
      },
      "transferFrom(address,address,uint256)": {
        "details": "See {IERC721-transferFrom}."
      }
    },
    "version": 1
  },
  "userdoc": {
    "kind": "user",
    "methods": {},
    "version": 1
  },
  "storageLayout": {
    "storage": [
      {
        "astId": 622,
        "contract": "contracts/Directory.sol:Directory",
        "label": "_initialized",
        "offset": 0,
        "slot": "0",
        "type": "t_bool"
      },
      {
        "astId": 625,
        "contract": "contracts/Directory.sol:Directory",
        "label": "_initializing",
        "offset": 1,
        "slot": "0",
        "type": "t_bool"
      },
      {
        "astId": 4046,
        "contract": "contracts/Directory.sol:Directory",
        "label": "__gap",
        "offset": 0,
        "slot": "1",
        "type": "t_array(t_uint256)50_storage"
      },
      {
        "astId": 4649,
        "contract": "contracts/Directory.sol:Directory",
        "label": "__gap",
        "offset": 0,
        "slot": "51",
        "type": "t_array(t_uint256)50_storage"
      },
      {
        "astId": 307,
        "contract": "contracts/Directory.sol:Directory",
        "label": "_roles",
        "offset": 0,
        "slot": "101",
        "type": "t_mapping(t_bytes32,t_struct(RoleData)302_storage)"
      },
      {
        "astId": 615,
        "contract": "contracts/Directory.sol:Directory",
        "label": "__gap",
        "offset": 0,
        "slot": "102",
        "type": "t_array(t_uint256)49_storage"
      },
      {
        "astId": 2228,
        "contract": "contracts/Directory.sol:Directory",
        "label": "_name",
        "offset": 0,
        "slot": "151",
        "type": "t_string_storage"
      },
      {
        "astId": 2230,
        "contract": "contracts/Directory.sol:Directory",
        "label": "_symbol",
        "offset": 0,
        "slot": "152",
        "type": "t_string_storage"
      },
      {
        "astId": 2234,
        "contract": "contracts/Directory.sol:Directory",
        "label": "_owners",
        "offset": 0,
        "slot": "153",
        "type": "t_mapping(t_uint256,t_address)"
      },
      {
        "astId": 2238,
        "contract": "contracts/Directory.sol:Directory",
        "label": "_balances",
        "offset": 0,
        "slot": "154",
        "type": "t_mapping(t_address,t_uint256)"
      },
      {
        "astId": 2242,
        "contract": "contracts/Directory.sol:Directory",
        "label": "_tokenApprovals",
        "offset": 0,
        "slot": "155",
        "type": "t_mapping(t_uint256,t_address)"
      },
      {
        "astId": 2248,
        "contract": "contracts/Directory.sol:Directory",
        "label": "_operatorApprovals",
        "offset": 0,
        "slot": "156",
        "type": "t_mapping(t_address,t_mapping(t_address,t_bool))"
      },
      {
        "astId": 3046,
        "contract": "contracts/Directory.sol:Directory",
        "label": "__gap",
        "offset": 0,
        "slot": "157",
        "type": "t_array(t_uint256)44_storage"
      },
      {
        "astId": 3220,
        "contract": "contracts/Directory.sol:Directory",
        "label": "_ownedTokens",
        "offset": 0,
        "slot": "201",
        "type": "t_mapping(t_address,t_mapping(t_uint256,t_uint256))"
      },
      {
        "astId": 3224,
        "contract": "contracts/Directory.sol:Directory",
        "label": "_ownedTokensIndex",
        "offset": 0,
        "slot": "202",
        "type": "t_mapping(t_uint256,t_uint256)"
      },
      {
        "astId": 3227,
        "contract": "contracts/Directory.sol:Directory",
        "label": "_allTokens",
        "offset": 0,
        "slot": "203",
        "type": "t_array(t_uint256)dyn_storage"
      },
      {
        "astId": 3231,
        "contract": "contracts/Directory.sol:Directory",
        "label": "_allTokensIndex",
        "offset": 0,
        "slot": "204",
        "type": "t_mapping(t_uint256,t_uint256)"
      },
      {
        "astId": 3546,
        "contract": "contracts/Directory.sol:Directory",
        "label": "__gap",
        "offset": 0,
        "slot": "205",
        "type": "t_array(t_uint256)46_storage"
      },
      {
        "astId": 683,
        "contract": "contracts/Directory.sol:Directory",
        "label": "_paused",
        "offset": 0,
        "slot": "251",
        "type": "t_bool"
      },
      {
        "astId": 774,
        "contract": "contracts/Directory.sol:Directory",
        "label": "__gap",
        "offset": 0,
        "slot": "252",
        "type": "t_array(t_uint256)49_storage"
      },
      {
        "astId": 3614,
        "contract": "contracts/Directory.sol:Directory",
        "label": "__gap",
        "offset": 0,
        "slot": "301",
        "type": "t_array(t_uint256)50_storage"
      },
      {
        "astId": 789,
        "contract": "contracts/Directory.sol:Directory",
        "label": "_status",
        "offset": 0,
        "slot": "351",
        "type": "t_uint256"
      },
      {
        "astId": 832,
        "contract": "contracts/Directory.sol:Directory",
        "label": "__gap",
        "offset": 0,
        "slot": "352",
        "type": "t_array(t_uint256)49_storage"
      },
      {
        "astId": 5662,
        "contract": "contracts/Directory.sol:Directory",
        "label": "_protocolFee",
        "offset": 0,
        "slot": "401",
        "type": "t_uint256"
      },
      {
        "astId": 5664,
        "contract": "contracts/Directory.sol:Directory",
        "label": "_currentMetadataVersion",
        "offset": 0,
        "slot": "402",
        "type": "t_uint256"
      },
      {
        "astId": 5666,
        "contract": "contracts/Directory.sol:Directory",
        "label": "_minMetadataVersion",
        "offset": 0,
        "slot": "403",
        "type": "t_uint256"
      },
      {
        "astId": 5668,
        "contract": "contracts/Directory.sol:Directory",
        "label": "_maxPriceAppreciation",
        "offset": 0,
        "slot": "404",
        "type": "t_uint256"
      },
      {
        "astId": 5670,
        "contract": "contracts/Directory.sol:Directory",
        "label": "_submissionDeposit",
        "offset": 0,
        "slot": "405",
        "type": "t_uint256"
      },
      {
        "astId": 6402,
        "contract": "contracts/Directory.sol:Directory",
        "label": "_treasury",
        "offset": 0,
        "slot": "406",
        "type": "t_contract(Treasury)7326"
      },
      {
        "astId": 6407,
        "contract": "contracts/Directory.sol:Directory",
        "label": "_submissions",
        "offset": 0,
        "slot": "407",
        "type": "t_mapping(t_string_memory_ptr,t_struct(Submission)6361_storage)"
      },
      {
        "astId": 7426,
        "contract": "contracts/Directory.sol:Directory",
        "label": "_token",
        "offset": 0,
        "slot": "408",
        "type": "t_contract(Token)7125"
      },
      {
        "astId": 7429,
        "contract": "contracts/Directory.sol:Directory",
        "label": "_vault",
        "offset": 0,
        "slot": "409",
        "type": "t_contract(Vault)8372"
      },
      {
        "astId": 7432,
        "contract": "contracts/Directory.sol:Directory",
        "label": "_treasury",
        "offset": 0,
        "slot": "410",
        "type": "t_contract(Treasury)7326"
      },
      {
        "astId": 7435,
        "contract": "contracts/Directory.sol:Directory",
        "label": "_marketer",
        "offset": 0,
        "slot": "411",
        "type": "t_contract(Marketer)6289"
      },
      {
        "astId": 7440,
        "contract": "contracts/Directory.sol:Directory",
        "label": "_uniquettes",
        "offset": 0,
        "slot": "412",
        "type": "t_mapping(t_uint256,t_struct(Uniquette)7377_storage)"
      },
      {
        "astId": 7443,
        "contract": "contracts/Directory.sol:Directory",
        "label": "_tokenIdTracker",
        "offset": 0,
        "slot": "413",
        "type": "t_struct(Counter)4053_storage"
      },
      {
        "astId": 5874,
        "contract": "contracts/Directory.sol:Directory",
        "label": "_fundedSubmissionHashByUniquetteTokenId",
        "offset": 0,
        "slot": "414",
        "type": "t_mapping(t_uint256,t_string_storage)"
      },
      {
        "astId": 5877,
        "contract": "contracts/Directory.sol:Directory",
        "label": "_token",
        "offset": 0,
        "slot": "415",
        "type": "t_contract(Token)7125"
      },
      {
        "astId": 5880,
        "contract": "contracts/Directory.sol:Directory",
        "label": "_vault",
        "offset": 0,
        "slot": "416",
        "type": "t_contract(Vault)8372"
      },
      {
        "astId": 5882,
        "contract": "contracts/Directory.sol:Directory",
        "label": "_tokensBaseURI",
        "offset": 0,
        "slot": "417",
        "type": "t_string_storage"
      }
    ],
    "types": {
      "t_address": {
        "encoding": "inplace",
        "label": "address",
        "numberOfBytes": "20"
      },
      "t_array(t_uint256)44_storage": {
        "base": "t_uint256",
        "encoding": "inplace",
        "label": "uint256[44]",
        "numberOfBytes": "1408"
      },
      "t_array(t_uint256)46_storage": {
        "base": "t_uint256",
        "encoding": "inplace",
        "label": "uint256[46]",
        "numberOfBytes": "1472"
      },
      "t_array(t_uint256)49_storage": {
        "base": "t_uint256",
        "encoding": "inplace",
        "label": "uint256[49]",
        "numberOfBytes": "1568"
      },
      "t_array(t_uint256)50_storage": {
        "base": "t_uint256",
        "encoding": "inplace",
        "label": "uint256[50]",
        "numberOfBytes": "1600"
      },
      "t_array(t_uint256)dyn_storage": {
        "base": "t_uint256",
        "encoding": "dynamic_array",
        "label": "uint256[]",
        "numberOfBytes": "32"
      },
      "t_bool": {
        "encoding": "inplace",
        "label": "bool",
        "numberOfBytes": "1"
      },
      "t_bytes32": {
        "encoding": "inplace",
        "label": "bytes32",
        "numberOfBytes": "32"
      },
      "t_contract(Marketer)6289": {
        "encoding": "inplace",
        "label": "contract Marketer",
        "numberOfBytes": "20"
      },
      "t_contract(Token)7125": {
        "encoding": "inplace",
        "label": "contract Token",
        "numberOfBytes": "20"
      },
      "t_contract(Treasury)7326": {
        "encoding": "inplace",
        "label": "contract Treasury",
        "numberOfBytes": "20"
      },
      "t_contract(Vault)8372": {
        "encoding": "inplace",
        "label": "contract Vault",
        "numberOfBytes": "20"
      },
      "t_enum(SubmissionStatus)6345": {
        "encoding": "inplace",
        "label": "enum Submissions.SubmissionStatus",
        "numberOfBytes": "1"
      },
      "t_mapping(t_address,t_bool)": {
        "encoding": "mapping",
        "key": "t_address",
        "label": "mapping(address => bool)",
        "numberOfBytes": "32",
        "value": "t_bool"
      },
      "t_mapping(t_address,t_mapping(t_address,t_bool))": {
        "encoding": "mapping",
        "key": "t_address",
        "label": "mapping(address => mapping(address => bool))",
        "numberOfBytes": "32",
        "value": "t_mapping(t_address,t_bool)"
      },
      "t_mapping(t_address,t_mapping(t_uint256,t_uint256))": {
        "encoding": "mapping",
        "key": "t_address",
        "label": "mapping(address => mapping(uint256 => uint256))",
        "numberOfBytes": "32",
        "value": "t_mapping(t_uint256,t_uint256)"
      },
      "t_mapping(t_address,t_uint256)": {
        "encoding": "mapping",
        "key": "t_address",
        "label": "mapping(address => uint256)",
        "numberOfBytes": "32",
        "value": "t_uint256"
      },
      "t_mapping(t_bytes32,t_struct(RoleData)302_storage)": {
        "encoding": "mapping",
        "key": "t_bytes32",
        "label": "mapping(bytes32 => struct AccessControlUpgradeable.RoleData)",
        "numberOfBytes": "32",
        "value": "t_struct(RoleData)302_storage"
      },
      "t_mapping(t_string_memory_ptr,t_struct(Submission)6361_storage)": {
        "encoding": "mapping",
        "key": "t_string_memory_ptr",
        "label": "mapping(string => struct Submissions.Submission)",
        "numberOfBytes": "32",
        "value": "t_struct(Submission)6361_storage"
      },
      "t_mapping(t_uint256,t_address)": {
        "encoding": "mapping",
        "key": "t_uint256",
        "label": "mapping(uint256 => address)",
        "numberOfBytes": "32",
        "value": "t_address"
      },
      "t_mapping(t_uint256,t_string_storage)": {
        "encoding": "mapping",
        "key": "t_uint256",
        "label": "mapping(uint256 => string)",
        "numberOfBytes": "32",
        "value": "t_string_storage"
      },
      "t_mapping(t_uint256,t_struct(Uniquette)7377_storage)": {
        "encoding": "mapping",
        "key": "t_uint256",
        "label": "mapping(uint256 => struct Uniquettes.Uniquette)",
        "numberOfBytes": "32",
        "value": "t_struct(Uniquette)7377_storage"
      },
      "t_mapping(t_uint256,t_uint256)": {
        "encoding": "mapping",
        "key": "t_uint256",
        "label": "mapping(uint256 => uint256)",
        "numberOfBytes": "32",
        "value": "t_uint256"
      },
      "t_string_memory_ptr": {
        "encoding": "bytes",
        "label": "string",
        "numberOfBytes": "32"
      },
      "t_string_storage": {
        "encoding": "bytes",
        "label": "string",
        "numberOfBytes": "32"
      },
      "t_struct(Counter)4053_storage": {
        "encoding": "inplace",
        "label": "struct CountersUpgradeable.Counter",
        "members": [
          {
            "astId": 4052,
            "contract": "contracts/Directory.sol:Directory",
            "label": "_value",
            "offset": 0,
            "slot": "0",
            "type": "t_uint256"
          }
        ],
        "numberOfBytes": "32"
      },
      "t_struct(RoleData)302_storage": {
        "encoding": "inplace",
        "label": "struct AccessControlUpgradeable.RoleData",
        "members": [
          {
            "astId": 299,
            "contract": "contracts/Directory.sol:Directory",
            "label": "members",
            "offset": 0,
            "slot": "0",
            "type": "t_mapping(t_address,t_bool)"
          },
          {
            "astId": 301,
            "contract": "contracts/Directory.sol:Directory",
            "label": "adminRole",
            "offset": 0,
            "slot": "1",
            "type": "t_bytes32"
          }
        ],
        "numberOfBytes": "64"
      },
      "t_struct(Submission)6361_storage": {
        "encoding": "inplace",
        "label": "struct Submissions.Submission",
        "members": [
          {
            "astId": 6347,
            "contract": "contracts/Directory.sol:Directory",
            "label": "author",
            "offset": 0,
            "slot": "0",
            "type": "t_address"
          },
          {
            "astId": 6349,
            "contract": "contracts/Directory.sol:Directory",
            "label": "addedValue",
            "offset": 0,
            "slot": "1",
            "type": "t_uint256"
          },
          {
            "astId": 6351,
            "contract": "contracts/Directory.sol:Directory",
            "label": "reward",
            "offset": 0,
            "slot": "2",
            "type": "t_uint256"
          },
          {
            "astId": 6353,
            "contract": "contracts/Directory.sol:Directory",
            "label": "metadataVersion",
            "offset": 0,
            "slot": "3",
            "type": "t_uint256"
          },
          {
            "astId": 6355,
            "contract": "contracts/Directory.sol:Directory",
            "label": "tokenId",
            "offset": 0,
            "slot": "4",
            "type": "t_uint256"
          },
          {
            "astId": 6357,
            "contract": "contracts/Directory.sol:Directory",
            "label": "deposit",
            "offset": 0,
            "slot": "5",
            "type": "t_uint256"
          },
          {
            "astId": 6360,
            "contract": "contracts/Directory.sol:Directory",
            "label": "status",
            "offset": 0,
            "slot": "6",
            "type": "t_enum(SubmissionStatus)6345"
          }
        ],
        "numberOfBytes": "224"
      },
      "t_struct(Uniquette)7377_storage": {
        "encoding": "inplace",
        "label": "struct Uniquettes.Uniquette",
        "members": [
          {
            "astId": 7370,
            "contract": "contracts/Directory.sol:Directory",
            "label": "tokenId",
            "offset": 0,
            "slot": "0",
            "type": "t_uint256"
          },
          {
            "astId": 7372,
            "contract": "contracts/Directory.sol:Directory",
            "label": "owner",
            "offset": 0,
            "slot": "1",
            "type": "t_address"
          },
          {
            "astId": 7374,
            "contract": "contracts/Directory.sol:Directory",
            "label": "collateralValue",
            "offset": 0,
            "slot": "2",
            "type": "t_uint256"
          },
          {
            "astId": 7376,
            "contract": "contracts/Directory.sol:Directory",
            "label": "lastPurchaseAmount",
            "offset": 0,
            "slot": "3",
            "type": "t_uint256"
          }
        ],
        "numberOfBytes": "128"
      },
      "t_uint256": {
        "encoding": "inplace",
        "label": "uint256",
        "numberOfBytes": "32"
      }
    }
  }
}