{
  "address": "0x6114D14349602a7B683283FC6F074132232352A3",
  "abi": [
    {
      "anonymous": false,
      "inputs": [
        {
          "indexed": true,
          "internalType": "address",
          "name": "owner",
          "type": "address"
        },
        {
          "indexed": true,
          "internalType": "address",
          "name": "approved",
          "type": "address"
        },
        {
          "indexed": true,
          "internalType": "uint256",
          "name": "tokenId",
          "type": "uint256"
        }
      ],
      "name": "Approval",
      "type": "event"
    },
    {
      "anonymous": false,
      "inputs": [
        {
          "indexed": true,
          "internalType": "address",
          "name": "owner",
          "type": "address"
        },
        {
          "indexed": true,
          "internalType": "address",
          "name": "operator",
          "type": "address"
        },
        {
          "indexed": false,
          "internalType": "bool",
          "name": "approved",
          "type": "bool"
        }
      ],
      "name": "ApprovalForAll",
      "type": "event"
    },
    {
      "anonymous": false,
      "inputs": [
        {
          "indexed": false,
          "internalType": "address",
          "name": "account",
          "type": "address"
        }
      ],
      "name": "Paused",
      "type": "event"
    },
    {
      "anonymous": false,
      "inputs": [
        {
          "indexed": true,
          "internalType": "address",
          "name": "operator",
          "type": "address"
        },
        {
          "indexed": false,
          "internalType": "address",
          "name": "seller",
          "type": "address"
        },
        {
          "indexed": true,
          "internalType": "address",
          "name": "collector",
          "type": "address"
        },
        {
          "indexed": true,
          "internalType": "uint256",
          "name": "tokenId",
          "type": "uint256"
        },
        {
          "indexed": false,
          "internalType": "uint256",
          "name": "feePaid",
          "type": "uint256"
        }
      ],
      "name": "ProtocolFeePaid",
      "type": "event"
    },
    {
      "anonymous": false,
      "inputs": [
        {
          "indexed": true,
          "internalType": "bytes32",
          "name": "role",
          "type": "bytes32"
        },
        {
          "indexed": true,
          "internalType": "bytes32",
          "name": "previousAdminRole",
          "type": "bytes32"
        },
        {
          "indexed": true,
          "internalType": "bytes32",
          "name": "newAdminRole",
          "type": "bytes32"
        }
      ],
      "name": "RoleAdminChanged",
      "type": "event"
    },
    {
      "anonymous": false,
      "inputs": [
        {
          "indexed": true,
          "internalType": "bytes32",
          "name": "role",
          "type": "bytes32"
        },
        {
          "indexed": true,
          "internalType": "address",
          "name": "account",
          "type": "address"
        },
        {
          "indexed": true,
          "internalType": "address",
          "name": "sender",
          "type": "address"
        }
      ],
      "name": "RoleGranted",
      "type": "event"
    },
    {
      "anonymous": false,
      "inputs": [
        {
          "indexed": true,
          "internalType": "bytes32",
          "name": "role",
          "type": "bytes32"
        },
        {
          "indexed": true,
          "internalType": "address",
          "name": "account",
          "type": "address"
        },
        {
          "indexed": true,
          "internalType": "address",
          "name": "sender",
          "type": "address"
        }
      ],
      "name": "RoleRevoked",
      "type": "event"
    },
    {
      "anonymous": false,
      "inputs": [
        {
          "indexed": true,
          "internalType": "address",
          "name": "from",
          "type": "address"
        },
        {
          "indexed": true,
          "internalType": "address",
          "name": "to",
          "type": "address"
        },
        {
          "indexed": true,
          "internalType": "uint256",
          "name": "tokenId",
          "type": "uint256"
        }
      ],
      "name": "Transfer",
      "type": "event"
    },
    {
      "anonymous": false,
      "inputs": [
        {
          "indexed": false,
          "internalType": "address",
          "name": "approver",
          "type": "address"
        },
        {
          "indexed": true,
          "internalType": "address",
          "name": "submitter",
          "type": "address"
        },
        {
          "indexed": false,
          "internalType": "string",
          "name": "hash",
          "type": "string"
        },
        {
          "indexed": true,
          "internalType": "uint256",
          "name": "tokenId",
          "type": "uint256"
        },
        {
          "indexed": false,
          "internalType": "uint256",
          "name": "submissionReward",
          "type": "uint256"
        }
      ],
      "name": "UniquetteApproved",
      "type": "event"
    },
    {
      "anonymous": false,
      "inputs": [
        {
          "indexed": true,
          "internalType": "address",
          "name": "operator",
          "type": "address"
        },
        {
          "indexed": true,
          "internalType": "address",
          "name": "owner",
          "type": "address"
        },
        {
          "indexed": true,
          "internalType": "uint256",
          "name": "tokenId",
          "type": "uint256"
        },
        {
          "indexed": false,
          "internalType": "uint256",
          "name": "additionalCollateral",
          "type": "uint256"
        }
      ],
      "name": "UniquetteCollateralIncreased",
      "type": "event"
    },
    {
      "anonymous": false,
      "inputs": [
        {
          "indexed": false,
          "internalType": "address",
          "name": "operator",
          "type": "address"
        },
        {
          "indexed": true,
          "internalType": "address",
          "name": "seller",
          "type": "address"
        },
        {
          "indexed": true,
          "internalType": "address",
          "name": "collector",
          "type": "address"
        },
        {
          "indexed": true,
          "internalType": "uint256",
          "name": "tokenId",
          "type": "uint256"
        },
        {
          "indexed": false,
          "internalType": "uint256",
          "name": "salePrice",
          "type": "uint256"
        }
      ],
      "name": "UniquetteCollected",
      "type": "event"
    },
    {
      "anonymous": false,
      "inputs": [
        {
          "indexed": true,
          "internalType": "address",
          "name": "operator",
          "type": "address"
        },
        {
          "indexed": true,
          "internalType": "address",
          "name": "seller",
          "type": "address"
        },
        {
          "indexed": true,
          "internalType": "uint256",
          "name": "tokenId",
          "type": "uint256"
        },
        {
          "indexed": false,
          "internalType": "string",
          "name": "hash",
          "type": "string"
        },
        {
          "indexed": false,
          "internalType": "uint256",
          "name": "price",
          "type": "uint256"
        }
      ],
      "name": "UniquettePutOnSale",
      "type": "event"
    },
    {
      "anonymous": false,
      "inputs": [
        {
          "indexed": false,
          "internalType": "address",
          "name": "approver",
          "type": "address"
        },
        {
          "indexed": true,
          "internalType": "address",
          "name": "submitter",
          "type": "address"
        },
        {
          "indexed": false,
          "internalType": "string",
          "name": "hash",
          "type": "string"
        }
      ],
      "name": "UniquetteRejected",
      "type": "event"
    },
    {
      "anonymous": false,
      "inputs": [
        {
          "indexed": true,
          "internalType": "address",
          "name": "submitter",
          "type": "address"
        },
        {
          "indexed": false,
          "internalType": "string",
          "name": "hash",
          "type": "string"
        },
        {
          "indexed": false,
          "internalType": "uint256",
          "name": "collateral",
          "type": "uint256"
        }
      ],
      "name": "UniquetteSubmitted",
      "type": "event"
    },
    {
      "anonymous": false,
      "inputs": [
        {
          "indexed": true,
          "internalType": "address",
          "name": "operator",
          "type": "address"
        },
        {
          "indexed": true,
          "internalType": "address",
          "name": "seller",
          "type": "address"
        },
        {
          "indexed": true,
          "internalType": "uint256",
          "name": "tokenId",
          "type": "uint256"
        },
        {
          "indexed": false,
          "internalType": "string",
          "name": "hash",
          "type": "string"
        }
      ],
      "name": "UniquetteTookOffSale",
      "type": "event"
    },
    {
      "anonymous": false,
      "inputs": [
        {
          "indexed": false,
          "internalType": "address",
          "name": "account",
          "type": "address"
        }
      ],
      "name": "Unpaused",
      "type": "event"
    },
    {
      "inputs": [],
      "name": "DEFAULT_ADMIN_ROLE",
      "outputs": [
        {
          "internalType": "bytes32",
          "name": "",
          "type": "bytes32"
        }
      ],
      "stateMutability": "view",
      "type": "function"
    },
    {
      "inputs": [],
      "name": "GOVERNOR_ROLE",
      "outputs": [
        {
          "internalType": "bytes32",
          "name": "",
          "type": "bytes32"
        }
      ],
      "stateMutability": "view",
      "type": "function"
    },
    {
      "inputs": [
        {
          "internalType": "address",
          "name": "to",
          "type": "address"
        },
        {
          "internalType": "uint256",
          "name": "tokenId",
          "type": "uint256"
        }
      ],
      "name": "approve",
      "outputs": [],
      "stateMutability": "nonpayable",
      "type": "function"
    },
    {
      "inputs": [
        {
          "internalType": "address",
          "name": "owner",
          "type": "address"
        }
      ],
      "name": "balanceOf",
      "outputs": [
        {
          "internalType": "uint256",
          "name": "",
          "type": "uint256"
        }
      ],
      "stateMutability": "view",
      "type": "function"
    },
    {
      "inputs": [
        {
          "internalType": "uint256[]",
          "name": "tokenIds",
          "type": "uint256[]"
        }
      ],
      "name": "batchBurn",
      "outputs": [],
      "stateMutability": "nonpayable",
      "type": "function"
    },
    {
      "inputs": [
        {
          "internalType": "uint256",
          "name": "tokenId",
          "type": "uint256"
        }
      ],
      "name": "burn",
      "outputs": [],
      "stateMutability": "nonpayable",
      "type": "function"
    },
    {
      "inputs": [
        {
          "internalType": "uint256",
          "name": "tokenId",
          "type": "uint256"
        }
      ],
      "name": "getApproved",
      "outputs": [
        {
          "internalType": "address",
          "name": "",
          "type": "address"
        }
      ],
      "stateMutability": "view",
      "type": "function"
    },
    {
      "inputs": [],
      "name": "getParameters",
      "outputs": [
        {
          "internalType": "uint256",
          "name": "initialUniquettePrice",
          "type": "uint256"
        },
        {
          "internalType": "uint256",
          "name": "originalAuthorShare",
          "type": "uint256"
        },
        {
          "internalType": "uint256",
          "name": "protocolFee",
          "type": "uint256"
        },
        {
          "internalType": "uint256",
          "name": "submissionDeposit",
          "type": "uint256"
        },
        {
          "internalType": "uint256",
          "name": "firstSaleDeadline",
          "type": "uint256"
        },
        {
          "internalType": "uint256",
          "name": "currentMetadataVersion",
          "type": "uint256"
        },
        {
          "internalType": "uint256",
          "name": "minMetadataVersion",
          "type": "uint256"
        },
        {
          "internalType": "uint256",
          "name": "maxPriceIncrease",
          "type": "uint256"
        }
      ],
      "stateMutability": "view",
      "type": "function"
    },
    {
      "inputs": [
        {
          "internalType": "bytes32",
          "name": "role",
          "type": "bytes32"
        }
      ],
      "name": "getRoleAdmin",
      "outputs": [
        {
          "internalType": "bytes32",
          "name": "",
          "type": "bytes32"
        }
      ],
      "stateMutability": "view",
      "type": "function"
    },
    {
      "inputs": [
        {
          "internalType": "bytes32",
          "name": "role",
          "type": "bytes32"
        },
        {
          "internalType": "address",
          "name": "account",
          "type": "address"
        }
      ],
      "name": "grantRole",
      "outputs": [],
      "stateMutability": "nonpayable",
      "type": "function"
    },
    {
      "inputs": [
        {
          "internalType": "bytes32",
          "name": "role",
          "type": "bytes32"
        },
        {
          "internalType": "address",
          "name": "account",
          "type": "address"
        }
      ],
      "name": "hasRole",
      "outputs": [
        {
          "internalType": "bool",
          "name": "",
          "type": "bool"
        }
      ],
      "stateMutability": "view",
      "type": "function"
    },
    {
      "inputs": [
        {
          "internalType": "string",
          "name": "name",
          "type": "string"
        },
        {
          "internalType": "string",
          "name": "symbol",
          "type": "string"
        },
        {
          "internalType": "string",
          "name": "tokensBaseURI",
          "type": "string"
        },
        {
          "internalType": "address",
          "name": "token",
          "type": "address"
        },
        {
          "internalType": "address payable",
          "name": "vault",
          "type": "address"
        },
        {
          "internalType": "address payable",
          "name": "treasury",
          "type": "address"
        },
        {
          "internalType": "address payable",
          "name": "marketer",
          "type": "address"
        },
        {
          "internalType": "uint256[8]",
          "name": "uints",
          "type": "uint256[8]"
        }
      ],
      "name": "initialize",
      "outputs": [],
      "stateMutability": "nonpayable",
      "type": "function"
    },
    {
      "inputs": [
        {
          "internalType": "address",
          "name": "account",
          "type": "address"
        },
        {
          "internalType": "address",
          "name": "operator",
          "type": "address"
        }
      ],
      "name": "isApprovedForAll",
      "outputs": [
        {
          "internalType": "bool",
          "name": "",
          "type": "bool"
        }
      ],
      "stateMutability": "view",
      "type": "function"
    },
    {
      "inputs": [],
      "name": "name",
      "outputs": [
        {
          "internalType": "string",
          "name": "",
          "type": "string"
        }
      ],
      "stateMutability": "view",
      "type": "function"
    },
    {
      "inputs": [
        {
          "internalType": "uint256",
          "name": "tokenId",
          "type": "uint256"
        }
      ],
      "name": "ownerOf",
      "outputs": [
        {
          "internalType": "address",
          "name": "",
          "type": "address"
        }
      ],
      "stateMutability": "view",
      "type": "function"
    },
    {
      "inputs": [],
      "name": "pause",
      "outputs": [],
      "stateMutability": "nonpayable",
      "type": "function"
    },
    {
      "inputs": [],
      "name": "paused",
      "outputs": [
        {
          "internalType": "bool",
          "name": "",
          "type": "bool"
        }
      ],
      "stateMutability": "view",
      "type": "function"
    },
    {
      "inputs": [
        {
          "internalType": "bytes32",
          "name": "role",
          "type": "bytes32"
        },
        {
          "internalType": "address",
          "name": "account",
          "type": "address"
        }
      ],
      "name": "renounceRole",
      "outputs": [],
      "stateMutability": "nonpayable",
      "type": "function"
    },
    {
      "inputs": [
        {
          "internalType": "bytes32",
          "name": "role",
          "type": "bytes32"
        },
        {
          "internalType": "address",
          "name": "account",
          "type": "address"
        }
      ],
      "name": "revokeRole",
      "outputs": [],
      "stateMutability": "nonpayable",
      "type": "function"
    },
    {
      "inputs": [
        {
          "internalType": "address",
          "name": "from",
          "type": "address"
        },
        {
          "internalType": "address",
          "name": "to",
          "type": "address"
        },
        {
          "internalType": "uint256",
          "name": "tokenId",
          "type": "uint256"
        }
      ],
      "name": "safeTransferFrom",
      "outputs": [],
      "stateMutability": "nonpayable",
      "type": "function"
    },
    {
      "inputs": [
        {
          "internalType": "address",
          "name": "from",
          "type": "address"
        },
        {
          "internalType": "address",
          "name": "to",
          "type": "address"
        },
        {
          "internalType": "uint256",
          "name": "tokenId",
          "type": "uint256"
        },
        {
          "internalType": "bytes",
          "name": "_data",
          "type": "bytes"
        }
      ],
      "name": "safeTransferFrom",
      "outputs": [],
      "stateMutability": "nonpayable",
      "type": "function"
    },
    {
      "inputs": [
        {
          "internalType": "address",
          "name": "operator",
          "type": "address"
        },
        {
          "internalType": "bool",
          "name": "approved",
          "type": "bool"
        }
      ],
      "name": "setApprovalForAll",
      "outputs": [],
      "stateMutability": "nonpayable",
      "type": "function"
    },
    {
      "inputs": [
        {
          "internalType": "uint256",
          "name": "newValue",
          "type": "uint256"
        }
      ],
      "name": "setCurrentMetadataVersion",
      "outputs": [],
      "stateMutability": "nonpayable",
      "type": "function"
    },
    {
      "inputs": [
        {
          "internalType": "uint256",
          "name": "newValue",
          "type": "uint256"
        }
      ],
      "name": "setFirstSaleDeadline",
      "outputs": [],
      "stateMutability": "nonpayable",
      "type": "function"
    },
    {
      "inputs": [
        {
          "internalType": "uint256",
          "name": "newValue",
          "type": "uint256"
        }
      ],
      "name": "setInitialUniquettePrice",
      "outputs": [],
      "stateMutability": "nonpayable",
      "type": "function"
    },
    {
      "inputs": [
        {
          "internalType": "address payable",
          "name": "newAddress",
          "type": "address"
        }
      ],
      "name": "setMarketerAddress",
      "outputs": [],
      "stateMutability": "nonpayable",
      "type": "function"
    },
    {
      "inputs": [
        {
          "internalType": "uint256",
          "name": "newValue",
          "type": "uint256"
        }
      ],
      "name": "setMaxPriceIncrease",
      "outputs": [],
      "stateMutability": "nonpayable",
      "type": "function"
    },
    {
      "inputs": [
        {
          "internalType": "uint256",
          "name": "newValue",
          "type": "uint256"
        }
      ],
      "name": "setMinMetadataVersion",
      "outputs": [],
      "stateMutability": "nonpayable",
      "type": "function"
    },
    {
      "inputs": [
        {
          "internalType": "uint256",
          "name": "newValue",
          "type": "uint256"
        }
      ],
      "name": "setOriginalAuthorShare",
      "outputs": [],
      "stateMutability": "nonpayable",
      "type": "function"
    },
    {
      "inputs": [
        {
          "internalType": "uint256",
          "name": "newValue",
          "type": "uint256"
        }
      ],
      "name": "setProtocolFee",
      "outputs": [],
      "stateMutability": "nonpayable",
      "type": "function"
    },
    {
      "inputs": [
        {
          "internalType": "uint256",
          "name": "newValue",
          "type": "uint256"
        }
      ],
      "name": "setSubmissionCollateral",
      "outputs": [],
      "stateMutability": "nonpayable",
      "type": "function"
    },
    {
      "inputs": [
        {
          "internalType": "address",
          "name": "newAddress",
          "type": "address"
        }
      ],
      "name": "setTokenAddress",
      "outputs": [],
      "stateMutability": "nonpayable",
      "type": "function"
    },
    {
      "inputs": [
        {
          "internalType": "address payable",
          "name": "newAddress",
          "type": "address"
        }
      ],
      "name": "setTreasuryAddress",
      "outputs": [],
      "stateMutability": "nonpayable",
      "type": "function"
    },
    {
      "inputs": [
        {
          "internalType": "address payable",
          "name": "newAddress",
          "type": "address"
        }
      ],
      "name": "setVaultAddress",
      "outputs": [],
      "stateMutability": "nonpayable",
      "type": "function"
    },
    {
      "inputs": [
        {
          "internalType": "bytes4",
          "name": "interfaceId",
          "type": "bytes4"
        }
      ],
      "name": "supportsInterface",
      "outputs": [
        {
          "internalType": "bool",
          "name": "",
          "type": "bool"
        }
      ],
      "stateMutability": "view",
      "type": "function"
    },
    {
      "inputs": [],
      "name": "symbol",
      "outputs": [
        {
          "internalType": "string",
          "name": "",
          "type": "string"
        }
      ],
      "stateMutability": "view",
      "type": "function"
    },
    {
      "inputs": [
        {
          "internalType": "uint256",
          "name": "index",
          "type": "uint256"
        }
      ],
      "name": "tokenByIndex",
      "outputs": [
        {
          "internalType": "uint256",
          "name": "",
          "type": "uint256"
        }
      ],
      "stateMutability": "view",
      "type": "function"
    },
    {
      "inputs": [
        {
          "internalType": "address",
          "name": "owner",
          "type": "address"
        },
        {
          "internalType": "uint256",
          "name": "index",
          "type": "uint256"
        }
      ],
      "name": "tokenOfOwnerByIndex",
      "outputs": [
        {
          "internalType": "uint256",
          "name": "",
          "type": "uint256"
        }
      ],
      "stateMutability": "view",
      "type": "function"
    },
    {
      "inputs": [
        {
          "internalType": "uint256",
          "name": "tokenId",
          "type": "uint256"
        }
      ],
      "name": "tokenURI",
      "outputs": [
        {
          "internalType": "string",
          "name": "",
          "type": "string"
        }
      ],
      "stateMutability": "view",
      "type": "function"
    },
    {
      "inputs": [],
      "name": "totalSupply",
      "outputs": [
        {
          "internalType": "uint256",
          "name": "",
          "type": "uint256"
        }
      ],
      "stateMutability": "view",
      "type": "function"
    },
    {
      "inputs": [
        {
          "internalType": "address",
          "name": "from",
          "type": "address"
        },
        {
          "internalType": "address",
          "name": "to",
          "type": "address"
        },
        {
          "internalType": "uint256",
          "name": "tokenId",
          "type": "uint256"
        }
      ],
      "name": "transferFrom",
      "outputs": [],
      "stateMutability": "nonpayable",
      "type": "function"
    },
    {
      "inputs": [
        {
          "internalType": "string",
          "name": "hash",
          "type": "string"
        },
        {
          "internalType": "uint256",
          "name": "submissionReward",
          "type": "uint256"
        }
      ],
      "name": "uniquetteApprove",
      "outputs": [],
      "stateMutability": "nonpayable",
      "type": "function"
    },
    {
      "inputs": [
        {
          "internalType": "address",
          "name": "to",
          "type": "address"
        },
        {
          "internalType": "uint256",
          "name": "tokenId",
          "type": "uint256"
        }
      ],
      "name": "uniquetteCollect",
      "outputs": [],
      "stateMutability": "payable",
      "type": "function"
    },
    {
      "inputs": [
        {
          "internalType": "uint256",
          "name": "tokenId",
          "type": "uint256"
        },
        {
          "internalType": "uint256",
          "name": "price",
          "type": "uint256"
        }
      ],
      "name": "uniquetteForSale",
      "outputs": [],
      "stateMutability": "nonpayable",
      "type": "function"
    },
    {
      "inputs": [
        {
          "internalType": "string",
          "name": "hash",
          "type": "string"
        }
      ],
      "name": "uniquetteGetByHash",
      "outputs": [
        {
          "components": [
            {
              "internalType": "address",
              "name": "author",
              "type": "address"
            },
            {
              "internalType": "address",
              "name": "owner",
              "type": "address"
            },
            {
              "internalType": "uint256",
              "name": "collateralValue",
              "type": "uint256"
            },
            {
              "internalType": "uint256",
              "name": "lastPurchaseAmount",
              "type": "uint256"
            },
            {
              "internalType": "uint256",
              "name": "salePrice",
              "type": "uint256"
            },
            {
              "internalType": "bool",
              "name": "firstSale",
              "type": "bool"
            },
            {
              "internalType": "uint256",
              "name": "submissionReward",
              "type": "uint256"
            },
            {
              "internalType": "uint256",
              "name": "metadataVersion",
              "type": "uint256"
            },
            {
              "internalType": "uint256",
              "name": "tokenId",
              "type": "uint256"
            },
            {
              "internalType": "uint256",
              "name": "submissionDeposit",
              "type": "uint256"
            },
            {
              "internalType": "uint256",
              "name": "submitTime",
              "type": "uint256"
            },
            {
              "internalType": "uint256",
              "name": "firstSaleDeadline",
              "type": "uint256"
            },
            {
              "internalType": "enum Directory.UniquetteStatus",
              "name": "status",
              "type": "uint8"
            }
          ],
          "internalType": "struct Directory.Uniquette",
          "name": "",
          "type": "tuple"
        }
      ],
      "stateMutability": "view",
      "type": "function"
    },
    {
      "inputs": [
        {
          "internalType": "uint256",
          "name": "tokenId",
          "type": "uint256"
        }
      ],
      "name": "uniquetteHashById",
      "outputs": [
        {
          "internalType": "string",
          "name": "",
          "type": "string"
        }
      ],
      "stateMutability": "view",
      "type": "function"
    },
    {
      "inputs": [
        {
          "internalType": "uint256",
          "name": "tokenId",
          "type": "uint256"
        }
      ],
      "name": "uniquetteIncreaseCollateral",
      "outputs": [],
      "stateMutability": "payable",
      "type": "function"
    },
    {
      "inputs": [
        {
          "internalType": "uint256",
          "name": "tokenId",
          "type": "uint256"
        }
      ],
      "name": "uniquetteNotForSale",
      "outputs": [],
      "stateMutability": "nonpayable",
      "type": "function"
    },
    {
      "inputs": [
        {
          "internalType": "string",
          "name": "hash",
          "type": "string"
        }
      ],
      "name": "uniquetteReject",
      "outputs": [],
      "stateMutability": "nonpayable",
      "type": "function"
    },
    {
      "inputs": [
        {
          "internalType": "string",
          "name": "hash",
          "type": "string"
        },
        {
          "internalType": "uint256",
          "name": "metadataVersion",
          "type": "uint256"
        }
      ],
      "name": "uniquetteSubmit",
      "outputs": [],
      "stateMutability": "payable",
      "type": "function"
    },
    {
      "inputs": [],
      "name": "unpause",
      "outputs": [],
      "stateMutability": "nonpayable",
      "type": "function"
    }
  ],
  "transactionHash": "0x12761f4287b78ccada9a2eb8eb30005b73fce1eef00e4412e0c3c72c877397d8",
  "args": [],
  "solcInputHash": "26864b935159ad30971cb051587d71fe",
  "bytecode": "0x608060405234801561001057600080fd5b506158c480620000216000396000f3fe6080604052600436106102435760003560e01c8062f1e4cb1461024857806301ffc9a71461025d57806306fdde0314610292578063081812fc146102b4578063095ea7b3146102e15780630d47ca731461030157806318160ddd1461032e5780632324eef01461034d57806323b872dd1461036d578063248a9ca31461038d57806326a4e8d2146103ad5780632f2ff15d146103cd5780632f745c59146103ed57806336568abe1461040d5780633f4ba83a1461042d57806342842e0e1461044257806342966c68146104625780634f6ccce714610482578063507a0be2146104a257806351d31bdf146104c2578063548bd6e3146104d55780635c975abb146104f55780635d955b9a1461050d5780636352211e1461052d5780636605bfda1461054d57806370a082311461056d578063787dce3d1461058d5780638456cb59146105ad57806385535cc5146105c25780638aa2536a146105e25780638f81223f1461060257806391d148541461062257806395d89b41146106425780639e9ebd2514610657578063a217fddf14610677578063a22cb4651461068c578063a526b49c146106ac578063a5ea11da146106cc578063b86d3a7414610734578063b88d4fde14610754578063bc6ac04314610774578063bf14057214610794578063c87b56dd146107b4578063ccc57490146107d4578063d547741f146107f6578063d75be24814610816578063dc8e92ea14610836578063e65e1a1014610856578063e985e9c514610869578063ee49937514610889578063fa2491fa146108a9575b600080fd5b61025b610256366004614c89565b6108c9565b005b34801561026957600080fd5b5061027d610278366004614d7b565b61126d565b60405190151581526020015b60405180910390f35b34801561029e57600080fd5b506102a7611280565b60405161028991906151ff565b3480156102c057600080fd5b506102d46102cf366004614d3f565b611312565b604051610289919061510d565b3480156102ed57600080fd5b5061025b6102fc366004614c89565b61139a565b34801561030d57600080fd5b5061032161031c366004614db3565b611402565b604051610289919061559e565b34801561033a57600080fd5b5060cb545b604051908152602001610289565b34801561035957600080fd5b5061025b610368366004614d3f565b611547565b34801561037957600080fd5b5061025b610388366004614ba0565b611581565b34801561039957600080fd5b5061033f6103a8366004614d3f565b6115b7565b3480156103b957600080fd5b5061025b6103c8366004614b4c565b6115cc565b3480156103d957600080fd5b5061025b6103e8366004614d57565b611623565b3480156103f957600080fd5b5061033f610408366004614c89565b611641565b34801561041957600080fd5b5061025b610428366004614d57565b6116d7565b34801561043957600080fd5b5061025b611755565b34801561044e57600080fd5b5061025b61045d366004614ba0565b611793565b34801561046e57600080fd5b5061025b61047d366004614d3f565b6117ae565b34801561048e57600080fd5b5061033f61049d366004614d3f565b6119ba565b3480156104ae57600080fd5b5061025b6104bd366004614d3f565b611a5b565b61025b6104d0366004614df2565b611a95565b3480156104e157600080fd5b5061025b6104f0366004614d3f565b611daf565b34801561050157600080fd5b5060fb5460ff1661027d565b34801561051957600080fd5b5061025b610528366004614d3f565b611de9565b34801561053957600080fd5b506102d4610548366004614d3f565b612087565b34801561055957600080fd5b5061025b610568366004614b4c565b6120fe565b34801561057957600080fd5b5061033f610588366004614b4c565b612155565b34801561059957600080fd5b5061025b6105a8366004614d3f565b6121dc565b3480156105b957600080fd5b5061025b612216565b3480156105ce57600080fd5b5061025b6105dd366004614b4c565b612252565b3480156105ee57600080fd5b5061025b6105fd366004614f13565b6122a9565b34801561060e57600080fd5b5061025b61061d366004614e3b565b612725565b34801561062e57600080fd5b5061027d61063d366004614d57565b61286f565b34801561064e57600080fd5b506102a761289a565b34801561066357600080fd5b5061025b610672366004614d3f565b6128a9565b34801561068357600080fd5b5061033f600081565b34801561069857600080fd5b5061025b6106a7366004614c5c565b6128e3565b3480156106b857600080fd5b5061025b6106c7366004614d3f565b61295b565b3480156106d857600080fd5b506101965461019754610198546101995461019a5461019b5461019c5461019d54604080519889526020890197909752958701949094526060860192909252608085015260a084015260c083015260e082015261010001610289565b34801561074057600080fd5b506102a761074f366004614d3f565b612995565b34801561076057600080fd5b5061025b61076f366004614be0565b612af0565b34801561078057600080fd5b5061025b61078f366004614d3f565b612b28565b3480156107a057600080fd5b5061025b6107af366004614d3f565b612b62565b3480156107c057600080fd5b506102a76107cf366004614d3f565b612b9c565b3480156107e057600080fd5b5061033f60008051602061584f83398151915281565b34801561080257600080fd5b5061025b610811366004614d57565b612c44565b34801561082257600080fd5b5061025b610831366004614db3565b612c61565b34801561084257600080fd5b5061025b610851366004614cb4565b612ece565b61025b610864366004614d3f565b612f9f565b34801561087557600080fd5b5061027d610884366004614b68565b6131ff565b34801561089557600080fd5b5061025b6108a4366004614b4c565b61327f565b3480156108b557600080fd5b5061025b6108c4366004614df2565b6132d6565b600261015f5414156108f65760405162461bcd60e51b81526004016108ed90615567565b60405180910390fd5b600261015f55610905816136fb565b6109215760405162461bcd60e51b81526004016108ed90615342565b600081815261019e60205260408120805461093b90615733565b80601f016020809104026020016040519081016040528092919081815260200182805461096790615733565b80156109b45780601f10610989576101008083540402835291602001916109b4565b820191906000526020600020905b81548152906001019060200180831161099757829003601f168201915b50505050509050600061019f826040516109ce9190615061565b9081526040805191829003602090810183206101a08401835280546001600160a01b03908116855260018201541691840191909152600280820154928401929092526003810154606084015260048101546080840152600581015460ff908116151560a0850152600682015460c0850152600782015460e085015260088201546101008501526009820154610120850152600a820154610140850152600b820154610160850152600c820154919261018085019290911690811115610aa357634e487b7160e01b600052602160045260246000fd5b6002811115610ac257634e487b7160e01b600052602160045260246000fd5b90525090506001600160a01b038416610b285760405162461bcd60e51b815260206004820152602260248201527f4469726563746f72793a2062757920746f20746865207a65726f206164647265604482015261737360f01b60648201526084016108ed565b80516001600160a01b0316610b4f5760405162461bcd60e51b81526004016108ed90615410565b60028161018001516002811115610b7657634e487b7160e01b600052602160045260246000fd5b14610b935760405162461bcd60e51b81526004016108ed90615526565b61019c548160e001511015610bf95760405162461bcd60e51b815260206004820152603860248201526000805160206157ef8339815191526044820152771bdbc81bdb190b081b5d5cdd081899481d5c19dc9859195960421b60648201526084016108ed565b6000339050600082602001519050600080610d1a61019f87604051610c1e9190615061565b9081526040805191829003602090810183206101a08401835280546001600160a01b03908116855260018201541691840191909152600280820154928401929092526003810154606084015260048101546080840152600581015460ff908116151560a0850152600682015460c0850152600782015460e085015260088201546101008501526009820154610120850152600a820154610140850152600b820154610160850152600c820154919261018085019290911690811115610cf357634e487b7160e01b600052602160045260246000fd5b6002811115610d1257634e487b7160e01b600052602160045260246000fd5b905250613718565b608086015190915015610e4b578460a0015180610d3f57508460400151856080015110155b610d9f5760405162461bcd60e51b815260206004820152602b60248201527f4469726563746f72793a2063616e6e6f742073656c6c206c657373207468616e60448201526a0818dbdb1b185d195c985b60aa1b60648201526084016108ed565b8460a0015180610db3575080856080015111155b610e215760405162461bcd60e51b815260206004820152603960248201527f4469726563746f72793a2063616e6e6f742073656c6c206869676865722074686044820152780616e206d617820707269636520696e6372656173652063617603c1b60648201526084016108ed565b61019f86604051610e329190615061565b9081526020016040518091039020600401549150610e4f565b8091505b60006127106101985484610e6391906156ba565b610e6d919061569a565b9050610e798184615682565b341015610ef0576040805162461bcd60e51b81526020600482015260248101919091527f4469726563746f72793a20696e73756666696369656e74207061796d656e742060448201527f666f722073616c6520707269636520706c75732070726f746f636f6c2066656560648201526084016108ed565b60008060008061019f8b604051610f079190615061565b9081526040519081900360200190206005015460ff1615610ff657600061019f8c604051610f359190615061565b908152604051908190036020019020600501805491151560ff199092169190911790556101975461271090610f6a90896156ba565b610f74919061569a565b935061019f8b604051610f879190615061565b908152604051908190036020018120546001600160a01b0316935061019f90610fb1908d90615061565b908152602001604051809103902060060154915061019f8b604051610fd69190615061565b908152604051908190036020019020546001600160a01b03169050610ffd565b8693508792505b60008561100a86346156d9565b61101491906156d9565b90508061019f8d6040516110289190615061565b908152602001604051809103902060020160008282546110489190615682565b925050819055503461019f8d6040516110619190615061565b908152602001604051809103902060030181905550600061019f8d6040516110899190615061565b908152604051908190036020019020600401556110a68a8e61378f565b6110b1898f8f6137fd565b8c8e6001600160a01b03168a6001600160a01b03167f710a5a3201db5f054cb911b285abfd6c701f8fb65a43fcff1d9d9d23919906598d8f608001516040516110fb9291906151c2565b60405180910390a46101945461111a906001600160a01b031687613996565b8c8e6001600160a01b03168b6001600160a01b03167f5d90ed55018a812d5146da57fe239c218fe08dfd6c476b2df791ecd2744d91148c8a6040516111609291906151c2565b60405180910390a46101935461117f906001600160a01b031682613996565b8c8e6001600160a01b03168b6001600160a01b031660008051602061580f833981519152846040516111b391815260200190565b60405180910390a484156111d4576111d46001600160a01b03851686613996565b6001600160a01b038216158015906111ec5750600083115b1561125757610192546040516340c10f1960e01b81526001600160a01b03909116906340c10f199061122490859087906004016151c2565b600060405180830381600087803b15801561123e57600080fd5b505af1158015611252573d6000803e3d6000fd5b505050505b5050600161015f55505050505050505050505050565b600061127882613aac565b90505b919050565b60606097805461128f90615733565b80601f01602080910402602001604051908101604052809291908181526020018280546112bb90615733565b80156113085780601f106112dd57610100808354040283529160200191611308565b820191906000526020600020905b8154815290600101906020018083116112eb57829003601f168201915b5050505050905090565b600061131d826136fb565b61137e5760405162461bcd60e51b815260206004820152602c60248201527f4552433732313a20617070726f76656420717565727920666f72206e6f6e657860448201526b34b9ba32b73a103a37b5b2b760a11b60648201526084016108ed565b506000908152609b60205260409020546001600160a01b031690565b60405162461bcd60e51b815260206004820152603760248201527f4469726563746f72793a20617070726f7665206e6f7420737570706f72746564604482015276206f6e20756e69717565747465207472616e736665727360481b60648201526084016108ed565b61140a614884565b600061019f848460405161141f929190615051565b9081526040805191829003602090810183206101a08401835280546001600160a01b03908116855260018201541691840191909152600280820154928401929092526003810154606084015260048101546080840152600581015460ff908116151560a0850152600682015460c0850152600782015460e085015260088201546101008501526009820154610120850152600a820154610140850152600b820154610160850152600c8201549192610180850192909116908111156114f457634e487b7160e01b600052602160045260246000fd5b600281111561151357634e487b7160e01b600052602160045260246000fd5b90525080519091506001600160a01b03166115405760405162461bcd60e51b81526004016108ed90615453565b9392505050565b61155f60008051602061584f8339815191523361063d565b61157b5760405162461bcd60e51b81526004016108ed906152ca565b61019b55565b61158b3382613ad1565b6115a75760405162461bcd60e51b81526004016108ed9061548a565b6115b28383836137fd565b505050565b60009081526065602052604090206001015490565b6115e460008051602061584f8339815191523361063d565b6116005760405162461bcd60e51b81526004016108ed906152ca565b61019280546001600160a01b0319166001600160a01b0392909216919091179055565b61162c826115b7565b61163781335b613bf7565b6115b28383613c5b565b600061164c83612155565b82106116ae5760405162461bcd60e51b815260206004820152602b60248201527f455243373231456e756d657261626c653a206f776e657220696e646578206f7560448201526a74206f6620626f756e647360a81b60648201526084016108ed565b506001600160a01b0391909116600090815260c960209081526040808320938352929052205490565b6001600160a01b03811633146117475760405162461bcd60e51b815260206004820152602f60248201527f416363657373436f6e74726f6c3a2063616e206f6e6c792072656e6f756e636560448201526e103937b632b9903337b91039b2b63360891b60648201526084016108ed565b6117518282613ce1565b5050565b61176d60008051602061584f8339815191523361063d565b6117895760405162461bcd60e51b81526004016108ed906152ca565b611791613d48565b565b6115b283838360405180602001604052806000815250612af0565b6117c660008051602061584f8339815191523361063d565b6117e25760405162461bcd60e51b81526004016108ed906152ca565b600081815261019e6020526040808220905161019f916118019161507d565b9081526040805191829003602090810183206101a08401835280546001600160a01b03908116855260018201541691840191909152600280820154928401929092526003810154606084015260048101546080840152600581015460ff908116151560a0850152600682015460c0850152600782015460e085015260088201546101008501526009820154610120850152600a820154610140850152600b820154610160850152600c8201549192610180850192909116908111156118d657634e487b7160e01b600052602160045260246000fd5b60028111156118f557634e487b7160e01b600052602160045260246000fd5b9052506101935460208201519192506001600160a01b0391821691161480611921575042816101600151115b6119b15760405162461bcd60e51b815260206004820152605560248201527f4469726563746f72793a206f6e6c7920756e6971756574746573206c6f636b6560448201527f6420696e207661756c74206f72207061737365642066697273742073616c6520606482015274191958591b1a5b994818d85b88189948189d5c9b9d605a1b608482015260a4016108ed565b61175182613dd5565b60006119c560cb5490565b8210611a285760405162461bcd60e51b815260206004820152602c60248201527f455243373231456e756d657261626c653a20676c6f62616c20696e646578206f60448201526b7574206f6620626f756e647360a01b60648201526084016108ed565b60cb8281548110611a4957634e487b7160e01b600052603260045260246000fd5b90600052602060002001549050919050565b611a7360008051602061584f8339815191523361063d565b611a8f5760405162461bcd60e51b81526004016108ed906152ca565b61019655565b600261015f541415611ab95760405162461bcd60e51b81526004016108ed90615567565b600261015f5560405160009061019f90611ad69086908690615051565b908152604051908190036020019020546001600160a01b031614611b3b5760405162461bcd60e51b815260206004820152601c60248201527b111a5c9958dd1bdc9e4e88185b1c9958591e481cdd589b5a5d1d195960221b60448201526064016108ed565b610199543414611bb25760405162461bcd60e51b815260206004820152603c60248201527f4469726563746f72793a20657861637420636f6c6c61746572616c2076616c7560448201527b65207265717569726564206e6f74206c657373206e6f74206d6f726560201b60648201526084016108ed565b61019b548114611c155760405162461bcd60e51b815260206004820152603a602482015260008051602061582f8339815191526044820152796f742063757272656e742c20706c65617365207570677261646560301b60648201526084016108ed565b3361019f8484604051611c29929190615051565b90815260405190819003602001812080546001600160a01b03939093166001600160a01b031990931692909217909155819061019f90611c6c9086908690615051565b908152602001604051809103902060070181905550600061019f8484604051611c96929190615051565b908152604051908190036020019020600c01805460ff19166001836002811115611cd057634e487b7160e01b600052602160045260246000fd5b02179055503461019f8484604051611ce9929190615051565b9081526020016040518091039020600901819055504261019f8484604051611d12929190615051565b908152604051908190036020019020600a015561019a54611d339042615682565b61019f8484604051611d46929190615051565b908152604051908190036020019020600b0155611d603390565b6001600160a01b03167fd78169f547a54c6d55fa3e61e5526b1c0176b8b35e6e144f6c189848335903fe848434604051611d9c939291906151db565b60405180910390a25050600161015f5550565b611dc760008051602061584f8339815191523361063d565b611de35760405162461bcd60e51b81526004016108ed906152ca565b61019955565b600261015f541415611e0d5760405162461bcd60e51b81526004016108ed90615567565b600261015f55611e1c816136fb565b611e385760405162461bcd60e51b81526004016108ed90615342565b600081815261019e602052604081208054611e5290615733565b80601f0160208091040260200160405190810160405280929190818152602001828054611e7e90615733565b8015611ecb5780601f10611ea057610100808354040283529160200191611ecb565b820191906000526020600020905b815481529060010190602001808311611eae57829003601f168201915b5050505050905060006001600160a01b031661019f82604051611eee9190615061565b908152604051908190036020019020546001600160a01b03161415611f255760405162461bcd60e51b81526004016108ed90615410565b600261019f82604051611f389190615061565b908152604051908190036020019020600c015460ff166002811115611f6d57634e487b7160e01b600052602160045260246000fd5b14611f8a5760405162461bcd60e51b81526004016108ed90615234565b6000339050600061019f83604051611fa29190615061565b908152604051908190036020019020600101546001600160a01b03169050611fc73390565b6001600160a01b0316816001600160a01b03161480611feb5750611feb8133610884565b6120075760405162461bcd60e51b81526004016108ed906154db565b600061019f8460405161201a9190615061565b90815260200160405180910390206004018190555083816001600160a01b0316836001600160a01b03167f0ce4f910714d3473d8c89b6084602cb8d7824330a927ce79c2121592ab12be1b8660405161207391906151ff565b60405180910390a45050600161015f555050565b6000818152609960205260408120546001600160a01b0316806112785760405162461bcd60e51b815260206004820152602960248201527f4552433732313a206f776e657220717565727920666f72206e6f6e657869737460448201526832b73a103a37b5b2b760b91b60648201526084016108ed565b61211660008051602061584f8339815191523361063d565b6121325760405162461bcd60e51b81526004016108ed906152ca565b61019480546001600160a01b0319166001600160a01b0392909216919091179055565b60006001600160a01b0382166121c05760405162461bcd60e51b815260206004820152602a60248201527f4552433732313a2062616c616e636520717565727920666f7220746865207a65604482015269726f206164647265737360b01b60648201526084016108ed565b506001600160a01b03166000908152609a602052604090205490565b6121f460008051602061584f8339815191523361063d565b6122105760405162461bcd60e51b81526004016108ed906152ca565b61019855565b61222e60008051602061584f8339815191523361063d565b61224a5760405162461bcd60e51b81526004016108ed906152ca565b611791613e6a565b61226a60008051602061584f8339815191523361063d565b6122865760405162461bcd60e51b81526004016108ed906152ca565b61019380546001600160a01b0319166001600160a01b0392909216919091179055565b600261015f5414156122cd5760405162461bcd60e51b81526004016108ed90615567565b600261015f556122dc826136fb565b6122f85760405162461bcd60e51b81526004016108ed90615342565b600082815261019e60205260408120805461231290615733565b80601f016020809104026020016040519081016040528092919081815260200182805461233e90615733565b801561238b5780601f106123605761010080835404028352916020019161238b565b820191906000526020600020905b81548152906001019060200180831161236e57829003601f168201915b50505050509050600061019f826040516123a59190615061565b9081526040805191829003602090810183206101a08401835280546001600160a01b03908116855260018201541691840191909152600280820154928401929092526003810154606084015260048101546080840152600581015460ff908116151560a0850152600682015460c0850152600782015460e085015260088201546101008501526009820154610120850152600a820154610140850152600b820154610160850152600c82015491926101808501929091169081111561247a57634e487b7160e01b600052602160045260246000fd5b600281111561249957634e487b7160e01b600052602160045260246000fd5b90525080519091506001600160a01b03166124c65760405162461bcd60e51b81526004016108ed90615410565b600281610180015160028111156124ed57634e487b7160e01b600052602160045260246000fd5b1461250a5760405162461bcd60e51b81526004016108ed90615234565b61019c548160e00151101561256e5760405162461bcd60e51b815260206004820152603660248201526000805160206157ef8339815191526044820152756f6f206f6c642c20706c65617365207570677261646560501b60648201526084016108ed565b602081015133906001600160a01b03811682148061259157506125918133610884565b6125ad5760405162461bcd60e51b81526004016108ed906154db565b604083015160006125bd85613718565b9050818710156126335760405162461bcd60e51b815260206004820152603b60248201527f4469726563746f72793a2073616c65207072696365206d75737420626520657160448201527a1d585b081bdc881b5bdc99481d1a185b8818dbdb1b185d195c985b602a1b60648201526084016108ed565b808711156126a05760405162461bcd60e51b815260206004820152603460248201527f4469726563746f72793a2063616e6e6f742073656c6c20686967686572206d6160448201527307820707269636520696e637265617365206361760641b60648201526084016108ed565b8661019f876040516126b29190615061565b90815260200160405180910390206004018190555087836001600160a01b0316856001600160a01b03167f3f143e2d1d1c19657fe10e61ad1ab7b937c005e21de4913cdf8bd80cb6f81290898b60405161270d929190615212565b60405180910390a45050600161015f55505050505050565b600054610100900460ff168061273e575060005460ff16155b61275a5760405162461bcd60e51b81526004016108ed90615378565b600054610100900460ff1615801561277c576000805461ffff19166101011790555b6127868989613ee5565b865161279a906101919060208a019061491e565b5061019280546001600160a01b03199081166001600160a01b038981169190911790925561019380548216888416179055610194805482168784161790556101958054909116918516919091179055815161019655602082015161019755604082015161019855606082015161019955608082015161019a5560a082015161019b5560c082015161019c5560e082015161019d5561283a6000335b613f6c565b61285260008051602061584f83398151915233612835565b8015612864576000805461ff00191690555b505050505050505050565b60009182526065602090815260408084206001600160a01b0393909316845291905290205460ff1690565b60606098805461128f90615733565b6128c160008051602061584f8339815191523361063d565b6128dd5760405162461bcd60e51b81526004016108ed906152ca565b61019755565b60405162461bcd60e51b815260206004820152604160248201527f4469726563746f72793a20736574417070726f76616c466f72416c6c206e6f7460448201527f20737570706f72746564206f6e20756e69717565747465207472616e736665726064820152607360f81b608482015260a4016108ed565b61297360008051602061584f8339815191523361063d565b61298f5760405162461bcd60e51b81526004016108ed906152ca565b61019a55565b60606129a0826136fb565b6129fb5760405162461bcd60e51b815260206004820152602660248201527f4469726563746f72793a20717565727920666f72206e6f6e6578697374656e74604482015265103a37b5b2b760d11b60648201526084016108ed565b600082815261019e6020526040808220905161019f91612a1a9161507d565b908152604051908190036020019020546001600160a01b03161415612a515760405162461bcd60e51b81526004016108ed90615453565b600082815261019e602052604090208054612a6b90615733565b80601f0160208091040260200160405190810160405280929190818152602001828054612a9790615733565b8015612ae45780601f10612ab957610100808354040283529160200191612ae4565b820191906000526020600020905b815481529060010190602001808311612ac757829003601f168201915b50505050509050919050565b612afa3383613ad1565b612b165760405162461bcd60e51b81526004016108ed9061548a565b612b2284848484613f76565b50505050565b612b4060008051602061584f8339815191523361063d565b612b5c5760405162461bcd60e51b81526004016108ed906152ca565b61019d55565b612b7a60008051602061584f8339815191523361063d565b612b965760405162461bcd60e51b81526004016108ed906152ca565b61019c55565b6060612ba7826136fb565b612c065760405162461bcd60e51b815260206004820152602a60248201527f4469726563746f72793a2055524920717565727920666f72206e6f6e657869736044820152693a32b73a103a37b5b2b760b11b60648201526084016108ed565b61019161019e6000848152602001908152602001600020604051602001612c2e929190615089565b6040516020818303038152906040529050919050565b612c4d826115b7565b612c578133611632565b6115b28383613ce1565b612c7960008051602061584f8339815191523361063d565b612c955760405162461bcd60e51b81526004016108ed906152ca565b600261015f541415612cb95760405162461bcd60e51b81526004016108ed90615567565b600261015f5560405160009061019f90612cd69085908590615051565b908152604051908190036020019020546001600160a01b03161415612d0d5760405162461bcd60e51b81526004016108ed9061530b565b600061019f8383604051612d22929190615051565b908152604051908190036020019020600c015460ff166002811115612d5757634e487b7160e01b600052602160045260246000fd5b14612d745760405162461bcd60e51b81526004016108ed906153c6565b600061019f8383604051612d89929190615051565b908152604051908190036020018120546001600160a01b0316915060009061019f90612db89086908690615051565b908152602001604051809103902060090154905061019f8484604051612ddf929190615051565b90815260405190819003602001902080546001600160a01b031990811682556001820180549091169055600060028201819055600382018190556004820181905560058201805460ff1990811690915560068301829055600783018290556008830182905560098301829055600a8301829055600b830191909155600c9091018054909116905561019454612e7d906001600160a01b031682613996565b6001600160a01b0382167fba15625ca9c4f301c8c4fc07d6ce430446085224c127bbf687e2d724c5b742be338686604051612eba9392919061515e565b60405180910390a25050600161015f555050565b612ee660008051602061584f8339815191523361063d565b612f025760405162461bcd60e51b81526004016108ed906152ca565b60005b818110156115b2576000838383818110612f2f57634e487b7160e01b600052603260045260246000fd5b604051630852cd8d60e31b81526020909102929092013560048301819052925030916342966c689150602401600060405180830381600087803b158015612f7557600080fd5b505af1158015612f89573d6000803e3d6000fd5b505050505080612f989061576e565b9050612f05565b600261015f541415612fc35760405162461bcd60e51b81526004016108ed90615567565b600261015f55612fd2816136fb565b612fee5760405162461bcd60e51b81526004016108ed90615342565b600081815261019e60205260408120805461300890615733565b80601f016020809104026020016040519081016040528092919081815260200182805461303490615733565b80156130815780601f1061305657610100808354040283529160200191613081565b820191906000526020600020905b81548152906001019060200180831161306457829003601f168201915b5050505050905060006001600160a01b031661019f826040516130a49190615061565b908152604051908190036020019020546001600160a01b031614156130db5760405162461bcd60e51b81526004016108ed90615410565b600261019f826040516130ee9190615061565b908152604051908190036020019020600c015460ff16600281111561312357634e487b7160e01b600052602160045260246000fd5b146131405760405162461bcd60e51b81526004016108ed90615526565b61019354613157906001600160a01b031634613996565b3461019f826040516131699190615061565b908152602001604051809103902060020160008282546131899190615682565b925050819055508161019f826040516131a29190615061565b908152604051908190036020019020600101546001600160a01b03166131c53390565b6001600160a01b031660008051602061580f833981519152346040516131ed91815260200190565b60405180910390a45050600161015f55565b600061321960008051602061584f8339815191528361286f565b806132325750610195546001600160a01b038381169116145b8061324b5750610193546001600160a01b038381169116145b8061154057506001600160a01b038084166000908152609c602090815260408083209386168352929052205460ff16611540565b61329760008051602061584f8339815191523361063d565b6132b35760405162461bcd60e51b81526004016108ed906152ca565b61019580546001600160a01b0319166001600160a01b0392909216919091179055565b6132ee60008051602061584f8339815191523361063d565b61330a5760405162461bcd60e51b81526004016108ed906152ca565b600261015f54141561332e5760405162461bcd60e51b81526004016108ed90615567565b600261015f5560405160009061019f9061334b9086908690615051565b908152604051908190036020019020546001600160a01b031614156133825760405162461bcd60e51b81526004016108ed9061530b565b600061019f8484604051613397929190615051565b908152604051908190036020019020600c015460ff1660028111156133cc57634e487b7160e01b600052602160045260246000fd5b146133e95760405162461bcd60e51b81526004016108ed906153c6565b61019b5461019f8484604051613400929190615051565b908152602001604051809103902060070154146134725760405162461bcd60e51b815260206004820152603c602482015260008051602061582f83398151915260448201527b1bdd0818dd5c9c995b9d0b081b5d5cdd081899481d5c19dc9859195960221b60648201526084016108ed565b6134816101a080546001019055565b600061348d6101a05490565b610193549091506134a7906001600160a01b031682613fa9565b600081815261019e602052604090206134c19085856149a2565b50610193546040516001600160a01b039091169061019f906134e69087908790615051565b908152602001604051809103902060010160006101000a8154816001600160a01b0302191690836001600160a01b031602179055508061019f858560405161352f929190615051565b908152602001604051809103902060080181905550600261019f8585604051613559929190615051565b908152604051908190036020019020600c01805460ff1916600183600281111561359357634e487b7160e01b600052602160045260246000fd5b02179055506101965461019f85856040516135af929190615051565b908152602001604051809103902060040181905550600161019f85856040516135d9929190615051565b908152604051908190036020018120600501805492151560ff1990931692909217909155829061019f906136109087908790615051565b90815260200160405180910390206006018190555061367f61019f858560405161363b929190615051565b90815260200160405180910390206009015461019f8686604051613660929190615051565b908152604051908190036020019020546001600160a01b031690613996565b8061019f8585604051613693929190615051565b908152604051908190036020019020546001600160a01b03167ffb2fce4891afc702074e4f1521f79ec136c4a733482ba9f0248b2616fcd8e94e6136d43390565b8787876040516136e7949392919061518c565b60405180910390a35050600161015f555050565b6000908152609960205260409020546001600160a01b0316151590565b60008160400151826060015110156137605761271061019d54836040015161374091906156ba565b61374a919061569a565b82604001516137599190615682565b905061127b565b61271061019d54836060015161377691906156ba565b613780919061569a565b82606001516137599190615682565b6000818152609b6020526040902080546001600160a01b0319166001600160a01b03841690811790915581906137c482612087565b6001600160a01b03167f8c5be1e5ebec7d5bd14f71427d1e84f3dd0314c0f7b2291e5b200ac8c7c3b92560405160405180910390a45050565b826001600160a01b031661381082612087565b6001600160a01b0316146138785760405162461bcd60e51b815260206004820152602960248201527f4552433732313a207472616e73666572206f6620746f6b656e2074686174206960448201526839903737ba1037bbb760b91b60648201526084016108ed565b6001600160a01b0382166138da5760405162461bcd60e51b8152602060048201526024808201527f4552433732313a207472616e7366657220746f20746865207a65726f206164646044820152637265737360e01b60648201526084016108ed565b6138e58383836140d5565b6138f060008261378f565b6001600160a01b0383166000908152609a602052604081208054600192906139199084906156d9565b90915550506001600160a01b0382166000908152609a60205260408120805460019290613947908490615682565b909155505060008181526099602052604080822080546001600160a01b0319166001600160a01b03868116918217909255915184939187169160008051602061586f83398151915291a4505050565b804710156139e65760405162461bcd60e51b815260206004820152601d60248201527f416464726573733a20696e73756666696369656e742062616c616e636500000060448201526064016108ed565b6000826001600160a01b03168260405160006040518083038185875af1925050503d8060008114613a33576040519150601f19603f3d011682016040523d82523d6000602084013e613a38565b606091505b50509050806115b25760405162461bcd60e51b815260206004820152603a60248201527f416464726573733a20756e61626c6520746f2073656e642076616c75652c20726044820152791958da5c1a595b9d081b585e481a185d99481c995d995c9d195960321b60648201526084016108ed565b60006001600160e01b0319821663780e9d6360e01b1480611278575061127882614137565b6000613adc826136fb565b613b405760405162461bcd60e51b815260206004820152602f60248201527f4469726563746f72793a206f70657261746f7220717565727920666f72206e6f60448201526e3732bc34b9ba32b73a103a37b5b2b760891b60648201526084016108ed565b6000613b4b83612087565b9050836001600160a01b0316613b6084611312565b6001600160a01b03161480613bef575060405163e985e9c560e01b81526001600160a01b03808316600483015285166024820152309063e985e9c59060440160206040518083038186803b158015613bb757600080fd5b505afa158015613bcb573d6000803e3d6000fd5b505050506040513d601f19601f82011682018060405250810190613bef9190614d23565b949350505050565b613c01828261286f565b61175157613c19816001600160a01b03166014614177565b613c24836020614177565b604051602001613c3592919061509e565b60408051601f198184030181529082905262461bcd60e51b82526108ed916004016151ff565b613c65828261286f565b6117515760008281526065602090815260408083206001600160a01b03851684529091529020805460ff19166001179055613c9d3390565b6001600160a01b0316816001600160a01b0316837f2f8788117e7eff1d82e926ec794901d17c78024a50270940304540a733656f0d60405160405180910390a45050565b613ceb828261286f565b156117515760008281526065602090815260408083206001600160a01b0385168085529252808320805460ff1916905551339285917ff6391f5c32d9c69d2a47ea670b442974b53935d1edc7fd64eb21e047a839171b9190a45050565b60fb5460ff16613d915760405162461bcd60e51b815260206004820152601460248201527314185d5cd8589b194e881b9bdd081c185d5cd95960621b60448201526064016108ed565b60fb805460ff191690557f5db9ee0a495bf2e6ff9c91a7834c1ba4fdd244a5e8aa4e537bd38aeae4b073aa335b604051613dcb919061510d565b60405180910390a1565b6000613de082612087565b9050613dee816000846140d5565b613df960008361378f565b6001600160a01b0381166000908152609a60205260408120805460019290613e229084906156d9565b909155505060008281526099602052604080822080546001600160a01b0319169055518391906001600160a01b0384169060008051602061586f833981519152908390a45050565b60fb5460ff1615613eb05760405162461bcd60e51b815260206004820152601060248201526f14185d5cd8589b194e881c185d5cd95960821b60448201526064016108ed565b60fb805460ff191660011790557f62e78cea01bee320cd4e420270b5ea74000d11b0c9f74754ebdbfc544b05a258613dbe3390565b600054610100900460ff1680613efe575060005460ff16155b613f1a5760405162461bcd60e51b81526004016108ed90615378565b600054610100900460ff16158015613f3c576000805461ffff19166101011790555b613f44614358565b613f4c614358565b613f5683836143c4565b80156115b2576000805461ff0019169055505050565b6117518282613c5b565b613f818484846137fd565b613f8d84848484614459565b612b225760405162461bcd60e51b81526004016108ed90615278565b6001600160a01b038216613fff5760405162461bcd60e51b815260206004820181905260248201527f4552433732313a206d696e7420746f20746865207a65726f206164647265737360448201526064016108ed565b614008816136fb565b156140545760405162461bcd60e51b815260206004820152601c60248201527b115490cdcc8c4e881d1bdad95b88185b1c9958591e481b5a5b9d195960221b60448201526064016108ed565b614060600083836140d5565b6001600160a01b0382166000908152609a60205260408120805460019290614089908490615682565b909155505060008181526099602052604080822080546001600160a01b0319166001600160a01b038616908117909155905183929060008051602061586f833981519152908290a45050565b8161019f61019e60008481526020019081526020016000206040516140fa919061507d565b90815260405190819003602001902060010180546001600160a01b03929092166001600160a01b03199092169190911790556115b2838383614566565b60006001600160e01b031982166380ac58cd60e01b148061416857506001600160e01b03198216635b5e139f60e01b145b806112785750611278826145d8565b606060006141868360026156ba565b614191906002615682565b6001600160401b038111156141b657634e487b7160e01b600052604160045260246000fd5b6040519080825280601f01601f1916602001820160405280156141e0576020820181803683370190505b509050600360fc1b8160008151811061420957634e487b7160e01b600052603260045260246000fd5b60200101906001600160f81b031916908160001a905350600f60fb1b8160018151811061424657634e487b7160e01b600052603260045260246000fd5b60200101906001600160f81b031916908160001a905350600061426a8460026156ba565b614275906001615682565b90505b6001811115614309576f181899199a1a9b1b9c1cb0b131b232b360811b85600f16601081106142b757634e487b7160e01b600052603260045260246000fd5b1a60f81b8282815181106142db57634e487b7160e01b600052603260045260246000fd5b60200101906001600160f81b031916908160001a90535060049490941c936143028161571c565b9050614278565b5083156115405760405162461bcd60e51b815260206004820181905260248201527f537472696e67733a20686578206c656e67746820696e73756666696369656e7460448201526064016108ed565b600054610100900460ff1680614371575060005460ff16155b61438d5760405162461bcd60e51b81526004016108ed90615378565b600054610100900460ff161580156143af576000805461ffff19166101011790555b80156143c1576000805461ff00191690555b50565b600054610100900460ff16806143dd575060005460ff16155b6143f95760405162461bcd60e51b81526004016108ed90615378565b600054610100900460ff1615801561441b576000805461ffff19166101011790555b825161442e90609790602086019061491e565b50815161444290609890602085019061491e565b5080156115b2576000805461ff0019169055505050565b60006001600160a01b0384163b1561455b57604051630a85bd0160e11b81526001600160a01b0385169063150b7a029061449d903390899088908890600401615121565b602060405180830381600087803b1580156144b757600080fd5b505af19250505080156144e7575060408051601f3d908101601f191682019092526144e491810190614d97565b60015b614541573d808015614515576040519150601f19603f3d011682016040523d82523d6000602084013e61451a565b606091505b5080516145395760405162461bcd60e51b81526004016108ed90615278565b805181602001fd5b6001600160e01b031916630a85bd0160e11b149050613bef565b506001949350505050565b61457183838361460d565b60fb5460ff16156115b25760405162461bcd60e51b815260206004820152602b60248201527f4552433732315061757361626c653a20746f6b656e207472616e73666572207760448201526a1a1a5b19481c185d5cd95960aa1b60648201526084016108ed565b60006001600160e01b03198216637965db0b60e01b148061127857506301ffc9a760e01b6001600160e01b0319831614611278565b6001600160a01b038316614668576146638160cb8054600083815260cc60205260408120829055600182018355919091527fa7ce836d032b2bf62b7e2097a8e0a6d8aeb35405ad15271e96d3b0188a1d06fb0155565b61468b565b816001600160a01b0316836001600160a01b03161461468b5761468b83826146ca565b6001600160a01b0382166146a7576146a281614767565b6115b2565b826001600160a01b0316826001600160a01b0316146115b2576115b28282614840565b600060016146d784612155565b6146e191906156d9565b600083815260ca6020526040902054909150808214614734576001600160a01b038416600090815260c960209081526040808320858452825280832054848452818420819055835260ca90915290208190555b50600091825260ca602090815260408084208490556001600160a01b03909416835260c981528383209183525290812055565b60cb54600090614779906001906156d9565b600083815260cc602052604081205460cb80549394509092849081106147af57634e487b7160e01b600052603260045260246000fd5b906000526020600020015490508060cb83815481106147de57634e487b7160e01b600052603260045260246000fd5b600091825260208083209091019290925582815260cc909152604080822084905585825281205560cb80548061482457634e487b7160e01b600052603160045260246000fd5b6001900381819060005260206000200160009055905550505050565b600061484b83612155565b6001600160a01b03909316600090815260c960209081526040808320868452825280832085905593825260ca9052919091209190915550565b604051806101a0016040528060006001600160a01b0316815260200160006001600160a01b031681526020016000815260200160008152602001600081526020016000151581526020016000815260200160008152602001600081526020016000815260200160008152602001600081526020016000600281111561491957634e487b7160e01b600052602160045260246000fd5b905290565b82805461492a90615733565b90600052602060002090601f01602090048101928261494c5760008555614992565b82601f1061496557805160ff1916838001178555614992565b82800160010185558215614992579182015b82811115614992578251825591602001919060010190614977565b5061499e929150614a16565b5090565b8280546149ae90615733565b90600052602060002090601f0160209004810192826149d05760008555614992565b82601f106149e95782800160ff19823516178555614992565b82800160010185558215614992579182015b828111156149925782358255916020019190600101906149fb565b5b8082111561499e5760008155600101614a17565b60006001600160401b03831115614a4457614a4461579f565b614a57601f8401601f1916602001615652565b9050828152838383011115614a6b57600080fd5b828260208301376000602084830101529392505050565b803561127b816157b5565b600082601f830112614a9d578081fd5b610100614aa981615652565b8084868487011115614ab9578485fd5b8493505b6008841015614add57803583526001939093019260209283019201614abd565b5095945050505050565b60008083601f840112614af8578182fd5b5081356001600160401b03811115614b0e578182fd5b602083019150836020828501011115614b2657600080fd5b9250929050565b600082601f830112614b3d578081fd5b61154083833560208501614a2b565b600060208284031215614b5d578081fd5b8135611540816157b5565b60008060408385031215614b7a578081fd5b8235614b85816157b5565b91506020830135614b95816157b5565b809150509250929050565b600080600060608486031215614bb4578081fd5b8335614bbf816157b5565b92506020840135614bcf816157b5565b929592945050506040919091013590565b60008060008060808587031215614bf5578081fd5b8435614c00816157b5565b93506020850135614c10816157b5565b92506040850135915060608501356001600160401b03811115614c31578182fd5b8501601f81018713614c41578182fd5b614c5087823560208401614a2b565b91505092959194509250565b60008060408385031215614c6e578182fd5b8235614c79816157b5565b91506020830135614b95816157ca565b60008060408385031215614c9b578182fd5b8235614ca6816157b5565b946020939093013593505050565b60008060208385031215614cc6578182fd5b82356001600160401b0380821115614cdc578384fd5b818501915085601f830112614cef578384fd5b813581811115614cfd578485fd5b8660208260051b8501011115614d11578485fd5b60209290920196919550909350505050565b600060208284031215614d34578081fd5b8151611540816157ca565b600060208284031215614d50578081fd5b5035919050565b60008060408385031215614d69578182fd5b823591506020830135614b95816157b5565b600060208284031215614d8c578081fd5b8135611540816157d8565b600060208284031215614da8578081fd5b8151611540816157d8565b60008060208385031215614dc5578182fd5b82356001600160401b03811115614dda578283fd5b614de685828601614ae7565b90969095509350505050565b600080600060408486031215614e06578081fd5b83356001600160401b03811115614e1b578182fd5b614e2786828701614ae7565b909790965060209590950135949350505050565b6000806000806000806000806101e0898b031215614e57578586fd5b88356001600160401b0380821115614e6d578788fd5b614e798c838d01614b2d565b995060208b0135915080821115614e8e578788fd5b614e9a8c838d01614b2d565b985060408b0135915080821115614eaf578788fd5b50614ebc8b828c01614b2d565b965050614ecb60608a01614a82565b9450614ed960808a01614a82565b9350614ee760a08a01614a82565b9250614ef560c08a01614a82565b9150614f048a60e08b01614a8d565b90509295985092959890939650565b60008060408385031215614f25578182fd5b50508035926020909101359150565b6001600160a01b03169052565b60008151808452614f598160208601602086016156f0565b601f01601f19169290920160200192915050565b60038110614f8b57634e487b7160e01b600052602160045260246000fd5b9052565b60008284528282602086013780602084860101526020601f19601f85011685010190509392505050565b8054600090600181811c9080831680614fd357607f831692505b6020808410821415614ff357634e487b7160e01b86526022600452602486fd5b818015615007576001811461501857615045565b60ff19861689528489019650615045565b60008881526020902060005b8681101561503d5781548b820152908501908301615024565b505084890196505b50505050505092915050565b6000828483379101908152919050565b600082516150738184602087016156f0565b9190910192915050565b60006115408284614fb9565b6000613bef6150988386614fb9565b84614fb9565b600076020b1b1b2b9b9a1b7b73a3937b61d1030b1b1b7bab73a1604d1b825283516150d08160178501602088016156f0565b7001034b99036b4b9b9b4b733903937b6329607d1b60179184019182015283516151018160288401602088016156f0565b01602801949350505050565b6001600160a01b0391909116815260200190565b6001600160a01b038581168252841660208201526040810183905260806060820181905260009061515490830184614f41565b9695505050505050565b6001600160a01b03841681526040602082018190526000906151839083018486614f8f565b95945050505050565b6001600160a01b03851681526060602082018190526000906151b19083018587614f8f565b905082604083015295945050505050565b6001600160a01b03929092168252602082015260400190565b6000604082526151ef604083018587614f8f565b9050826020830152949350505050565b6000602082526115406020830184614f41565b6000604082526152256040830185614f41565b90508260208301529392505050565b60208082526024908201527f4469726563746f72793a20756e69717565747465206973206e6f7420617070726040820152631bdd995960e21b606082015260800190565b60208082526032908201527f4552433732313a207472616e7366657220746f206e6f6e20455243373231526560408201527131b2b4bb32b91034b6b83632b6b2b73a32b960711b606082015260800190565b60208082526021908201527f4469726563746f72793a2063616c6c6572206973206e6f7420676f7665726e6f6040820152603960f91b606082015260800190565b6020808252601f908201527f4469726563746f72793a207375626d697373696f6e206e6f7420666f756e6400604082015260600190565b6020808252601c908201527b2234b932b1ba37b93c9d103737b732bc34b9ba32b73a103a37b5b2b760211b604082015260600190565b6020808252602e908201527f496e697469616c697a61626c653a20636f6e747261637420697320616c72656160408201526d191e481a5b9a5d1a585b1a5e995960921b606082015260800190565b6020808252602a908201527f4469726563746f72793a207375626d697373696f6e206e6f742070656e64696e60408201526919c8185c1c1c9bdd985b60b21b606082015260800190565b60208082526023908201527f4469726563746f72793a20756e6971756574746520646f6573206e6f742065786040820152621a5cdd60ea1b606082015260800190565b6020808252601e908201527f4469726563746f72793a20756e69717565747465206e6f7420666f756e640000604082015260600190565b60208082526031908201527f4552433732313a207472616e736665722063616c6c6572206973206e6f74206f6040820152701ddb995c881b9bdc88185c1c1c9bdd9959607a1b606082015260800190565b6020808252602b908201527f4469726563746f72793a2063616c6c6572206973206e6f74206f776e6572206e60408201526a1bdc88185c1c1c9bdd995960aa1b606082015260800190565b60208082526021908201527f4469726563746f72793a20756e69717565747465206e6f7420617070726f76656040820152601960fa1b606082015260800190565b6020808252601f908201527f5265656e7472616e637947756172643a207265656e7472616e742063616c6c00604082015260600190565b60006101a0820190506155b2828451614f34565b60208301516155c46020840182614f34565b5060408301516040830152606083015160608301526080830151608083015260a08301516155f660a084018215159052565b5060c0838101519083015260e0808401519083015261010080840151908301526101208084015190830152610140808401519083015261016080840151908301526101808084015161564a82850182614f6d565b505092915050565b604051601f8201601f191681016001600160401b038111828210171561567a5761567a61579f565b604052919050565b6000821982111561569557615695615789565b500190565b6000826156b557634e487b7160e01b81526012600452602481fd5b500490565b60008160001904831182151516156156d4576156d4615789565b500290565b6000828210156156eb576156eb615789565b500390565b60005b8381101561570b5781810151838201526020016156f3565b83811115612b225750506000910152565b60008161572b5761572b615789565b506000190190565b600181811c9082168061574757607f821691505b6020821081141561576857634e487b7160e01b600052602260045260246000fd5b50919050565b600060001982141561578257615782615789565b5060010190565b634e487b7160e01b600052601160045260246000fd5b634e487b7160e01b600052604160045260246000fd5b6001600160a01b03811681146143c157600080fd5b80151581146143c157600080fd5b6001600160e01b0319811681146143c157600080fdfe4469726563746f72793a206d657461646174612076657273696f6e20697320740a7607b0b6665c6192e995edd0c765abfbeeb267a2ea3248d0b9125c3c1f42084469726563746f72793a206d657461646174612076657273696f6e206973206e7935bd0ae54bc31f548c14dba4d37c5c64b3f8ca900cb468fb8abd54d5894f55ddf252ad1be2c89b69c2b068fc378daa952ba7f163c4a11628f55a4df523b3efa264697066735822122057e900a5753d4e4cb65afd35f92bce2f7b72e9669dbf9ce51e6582468557bcd264736f6c63430008030033",
  "devdoc": {
    "kind": "dev",
    "methods": {
      "approve(address,uint256)": {
        "details": "See {IERC721-approve}."
      },
      "balanceOf(address)": {
        "details": "See {IERC721-balanceOf}."
      },
      "getApproved(uint256)": {
        "details": "See {IERC721-getApproved}."
      },
      "getRoleAdmin(bytes32)": {
        "details": "Returns the admin role that controls `role`. See {grantRole} and {revokeRole}. To change a role's admin, use {_setRoleAdmin}."
      },
      "grantRole(bytes32,address)": {
        "details": "Grants `role` to `account`. If `account` had not been already granted `role`, emits a {RoleGranted} event. Requirements: - the caller must have ``role``'s admin role."
      },
      "hasRole(bytes32,address)": {
        "details": "Returns `true` if `account` has been granted `role`."
      },
      "name()": {
        "details": "See {IERC721Metadata-name}."
      },
      "ownerOf(uint256)": {
        "details": "See {IERC721-ownerOf}."
      },
      "paused()": {
        "details": "Returns true if the contract is paused, and false otherwise."
      },
      "renounceRole(bytes32,address)": {
        "details": "Revokes `role` from the calling account. Roles are often managed via {grantRole} and {revokeRole}: this function's purpose is to provide a mechanism for accounts to lose their privileges if they are compromised (such as when a trusted device is misplaced). If the calling account had been granted `role`, emits a {RoleRevoked} event. Requirements: - the caller must be `account`."
      },
      "revokeRole(bytes32,address)": {
        "details": "Revokes `role` from `account`. If `account` had been granted `role`, emits a {RoleRevoked} event. Requirements: - the caller must have ``role``'s admin role."
      },
      "safeTransferFrom(address,address,uint256)": {
        "details": "See {IERC721-safeTransferFrom}."
      },
      "safeTransferFrom(address,address,uint256,bytes)": {
        "details": "See {IERC721-safeTransferFrom}."
      },
      "setApprovalForAll(address,bool)": {
        "details": "See {IERC721-setApprovalForAll}."
      },
      "symbol()": {
        "details": "See {IERC721Metadata-symbol}."
      },
      "tokenByIndex(uint256)": {
        "details": "See {IERC721Enumerable-tokenByIndex}."
      },
      "tokenOfOwnerByIndex(address,uint256)": {
        "details": "See {IERC721Enumerable-tokenOfOwnerByIndex}."
      },
      "tokenURI(uint256)": {
        "details": "See {IERC721Metadata-tokenURI}."
      },
      "totalSupply()": {
        "details": "See {IERC721Enumerable-totalSupply}."
      },
      "transferFrom(address,address,uint256)": {
        "details": "See {IERC721-transferFrom}."
      }
    },
    "version": 1
  },
  "userdoc": {
    "kind": "user",
    "methods": {},
    "version": 1
  },
  "storageLayout": {
    "storage": [
      {
        "astId": 622,
        "contract": "contracts/Directory.sol:Directory",
        "label": "_initialized",
        "offset": 0,
        "slot": "0",
        "type": "t_bool"
      },
      {
        "astId": 625,
        "contract": "contracts/Directory.sol:Directory",
        "label": "_initializing",
        "offset": 1,
        "slot": "0",
        "type": "t_bool"
      },
      {
        "astId": 4046,
        "contract": "contracts/Directory.sol:Directory",
        "label": "__gap",
        "offset": 0,
        "slot": "1",
        "type": "t_array(t_uint256)50_storage"
      },
      {
        "astId": 4649,
        "contract": "contracts/Directory.sol:Directory",
        "label": "__gap",
        "offset": 0,
        "slot": "51",
        "type": "t_array(t_uint256)50_storage"
      },
      {
        "astId": 307,
        "contract": "contracts/Directory.sol:Directory",
        "label": "_roles",
        "offset": 0,
        "slot": "101",
        "type": "t_mapping(t_bytes32,t_struct(RoleData)302_storage)"
      },
      {
        "astId": 615,
        "contract": "contracts/Directory.sol:Directory",
        "label": "__gap",
        "offset": 0,
        "slot": "102",
        "type": "t_array(t_uint256)49_storage"
      },
      {
        "astId": 2228,
        "contract": "contracts/Directory.sol:Directory",
        "label": "_name",
        "offset": 0,
        "slot": "151",
        "type": "t_string_storage"
      },
      {
        "astId": 2230,
        "contract": "contracts/Directory.sol:Directory",
        "label": "_symbol",
        "offset": 0,
        "slot": "152",
        "type": "t_string_storage"
      },
      {
        "astId": 2234,
        "contract": "contracts/Directory.sol:Directory",
        "label": "_owners",
        "offset": 0,
        "slot": "153",
        "type": "t_mapping(t_uint256,t_address)"
      },
      {
        "astId": 2238,
        "contract": "contracts/Directory.sol:Directory",
        "label": "_balances",
        "offset": 0,
        "slot": "154",
        "type": "t_mapping(t_address,t_uint256)"
      },
      {
        "astId": 2242,
        "contract": "contracts/Directory.sol:Directory",
        "label": "_tokenApprovals",
        "offset": 0,
        "slot": "155",
        "type": "t_mapping(t_uint256,t_address)"
      },
      {
        "astId": 2248,
        "contract": "contracts/Directory.sol:Directory",
        "label": "_operatorApprovals",
        "offset": 0,
        "slot": "156",
        "type": "t_mapping(t_address,t_mapping(t_address,t_bool))"
      },
      {
        "astId": 3046,
        "contract": "contracts/Directory.sol:Directory",
        "label": "__gap",
        "offset": 0,
        "slot": "157",
        "type": "t_array(t_uint256)44_storage"
      },
      {
        "astId": 3220,
        "contract": "contracts/Directory.sol:Directory",
        "label": "_ownedTokens",
        "offset": 0,
        "slot": "201",
        "type": "t_mapping(t_address,t_mapping(t_uint256,t_uint256))"
      },
      {
        "astId": 3224,
        "contract": "contracts/Directory.sol:Directory",
        "label": "_ownedTokensIndex",
        "offset": 0,
        "slot": "202",
        "type": "t_mapping(t_uint256,t_uint256)"
      },
      {
        "astId": 3227,
        "contract": "contracts/Directory.sol:Directory",
        "label": "_allTokens",
        "offset": 0,
        "slot": "203",
        "type": "t_array(t_uint256)dyn_storage"
      },
      {
        "astId": 3231,
        "contract": "contracts/Directory.sol:Directory",
        "label": "_allTokensIndex",
        "offset": 0,
        "slot": "204",
        "type": "t_mapping(t_uint256,t_uint256)"
      },
      {
        "astId": 3546,
        "contract": "contracts/Directory.sol:Directory",
        "label": "__gap",
        "offset": 0,
        "slot": "205",
        "type": "t_array(t_uint256)46_storage"
      },
      {
        "astId": 683,
        "contract": "contracts/Directory.sol:Directory",
        "label": "_paused",
        "offset": 0,
        "slot": "251",
        "type": "t_bool"
      },
      {
        "astId": 774,
        "contract": "contracts/Directory.sol:Directory",
        "label": "__gap",
        "offset": 0,
        "slot": "252",
        "type": "t_array(t_uint256)49_storage"
      },
      {
        "astId": 3614,
        "contract": "contracts/Directory.sol:Directory",
        "label": "__gap",
        "offset": 0,
        "slot": "301",
        "type": "t_array(t_uint256)50_storage"
      },
      {
        "astId": 789,
        "contract": "contracts/Directory.sol:Directory",
        "label": "_status",
        "offset": 0,
        "slot": "351",
        "type": "t_uint256"
      },
      {
        "astId": 832,
        "contract": "contracts/Directory.sol:Directory",
        "label": "__gap",
        "offset": 0,
        "slot": "352",
        "type": "t_array(t_uint256)49_storage"
      },
      {
        "astId": 5804,
        "contract": "contracts/Directory.sol:Directory",
        "label": "_tokensBaseURI",
        "offset": 0,
        "slot": "401",
        "type": "t_string_storage"
      },
      {
        "astId": 5807,
        "contract": "contracts/Directory.sol:Directory",
        "label": "_token",
        "offset": 0,
        "slot": "402",
        "type": "t_contract(Token)7721"
      },
      {
        "astId": 5810,
        "contract": "contracts/Directory.sol:Directory",
        "label": "_vault",
        "offset": 0,
        "slot": "403",
        "type": "t_contract(Vault)8119"
      },
      {
        "astId": 5813,
        "contract": "contracts/Directory.sol:Directory",
        "label": "_treasury",
        "offset": 0,
        "slot": "404",
        "type": "t_contract(Treasury)7922"
      },
      {
        "astId": 5816,
        "contract": "contracts/Directory.sol:Directory",
        "label": "_marketer",
        "offset": 0,
        "slot": "405",
        "type": "t_contract(Marketer)7553"
      },
      {
        "astId": 5818,
        "contract": "contracts/Directory.sol:Directory",
        "label": "_initialUniquettePrice",
        "offset": 0,
        "slot": "406",
        "type": "t_uint256"
      },
      {
        "astId": 5820,
        "contract": "contracts/Directory.sol:Directory",
        "label": "_originalAuthorShare",
        "offset": 0,
        "slot": "407",
        "type": "t_uint256"
      },
      {
        "astId": 5822,
        "contract": "contracts/Directory.sol:Directory",
        "label": "_protocolFee",
        "offset": 0,
        "slot": "408",
        "type": "t_uint256"
      },
      {
        "astId": 5824,
        "contract": "contracts/Directory.sol:Directory",
        "label": "_submissionDeposit",
        "offset": 0,
        "slot": "409",
        "type": "t_uint256"
      },
      {
        "astId": 5826,
        "contract": "contracts/Directory.sol:Directory",
        "label": "_firstSaleDeadline",
        "offset": 0,
        "slot": "410",
        "type": "t_uint256"
      },
      {
        "astId": 5828,
        "contract": "contracts/Directory.sol:Directory",
        "label": "_currentMetadataVersion",
        "offset": 0,
        "slot": "411",
        "type": "t_uint256"
      },
      {
        "astId": 5830,
        "contract": "contracts/Directory.sol:Directory",
        "label": "_minMetadataVersion",
        "offset": 0,
        "slot": "412",
        "type": "t_uint256"
      },
      {
        "astId": 5832,
        "contract": "contracts/Directory.sol:Directory",
        "label": "_maxPriceIncrease",
        "offset": 0,
        "slot": "413",
        "type": "t_uint256"
      },
      {
        "astId": 5836,
        "contract": "contracts/Directory.sol:Directory",
        "label": "_idToHashMapping",
        "offset": 0,
        "slot": "414",
        "type": "t_mapping(t_uint256,t_string_storage)"
      },
      {
        "astId": 5841,
        "contract": "contracts/Directory.sol:Directory",
        "label": "_uniquettes",
        "offset": 0,
        "slot": "415",
        "type": "t_mapping(t_string_memory_ptr,t_struct(Uniquette)5718_storage)"
      },
      {
        "astId": 5844,
        "contract": "contracts/Directory.sol:Directory",
        "label": "_tokenIdTracker",
        "offset": 0,
        "slot": "416",
        "type": "t_struct(Counter)4053_storage"
      }
    ],
    "types": {
      "t_address": {
        "encoding": "inplace",
        "label": "address",
        "numberOfBytes": "20"
      },
      "t_array(t_uint256)44_storage": {
        "base": "t_uint256",
        "encoding": "inplace",
        "label": "uint256[44]",
        "numberOfBytes": "1408"
      },
      "t_array(t_uint256)46_storage": {
        "base": "t_uint256",
        "encoding": "inplace",
        "label": "uint256[46]",
        "numberOfBytes": "1472"
      },
      "t_array(t_uint256)49_storage": {
        "base": "t_uint256",
        "encoding": "inplace",
        "label": "uint256[49]",
        "numberOfBytes": "1568"
      },
      "t_array(t_uint256)50_storage": {
        "base": "t_uint256",
        "encoding": "inplace",
        "label": "uint256[50]",
        "numberOfBytes": "1600"
      },
      "t_array(t_uint256)dyn_storage": {
        "base": "t_uint256",
        "encoding": "dynamic_array",
        "label": "uint256[]",
        "numberOfBytes": "32"
      },
      "t_bool": {
        "encoding": "inplace",
        "label": "bool",
        "numberOfBytes": "1"
      },
      "t_bytes32": {
        "encoding": "inplace",
        "label": "bytes32",
        "numberOfBytes": "32"
      },
      "t_contract(Marketer)7553": {
        "encoding": "inplace",
        "label": "contract Marketer",
        "numberOfBytes": "20"
      },
      "t_contract(Token)7721": {
        "encoding": "inplace",
        "label": "contract Token",
        "numberOfBytes": "20"
      },
      "t_contract(Treasury)7922": {
        "encoding": "inplace",
        "label": "contract Treasury",
        "numberOfBytes": "20"
      },
      "t_contract(Vault)8119": {
        "encoding": "inplace",
        "label": "contract Vault",
        "numberOfBytes": "20"
      },
      "t_enum(UniquetteStatus)5690": {
        "encoding": "inplace",
        "label": "enum Directory.UniquetteStatus",
        "numberOfBytes": "1"
      },
      "t_mapping(t_address,t_bool)": {
        "encoding": "mapping",
        "key": "t_address",
        "label": "mapping(address => bool)",
        "numberOfBytes": "32",
        "value": "t_bool"
      },
      "t_mapping(t_address,t_mapping(t_address,t_bool))": {
        "encoding": "mapping",
        "key": "t_address",
        "label": "mapping(address => mapping(address => bool))",
        "numberOfBytes": "32",
        "value": "t_mapping(t_address,t_bool)"
      },
      "t_mapping(t_address,t_mapping(t_uint256,t_uint256))": {
        "encoding": "mapping",
        "key": "t_address",
        "label": "mapping(address => mapping(uint256 => uint256))",
        "numberOfBytes": "32",
        "value": "t_mapping(t_uint256,t_uint256)"
      },
      "t_mapping(t_address,t_uint256)": {
        "encoding": "mapping",
        "key": "t_address",
        "label": "mapping(address => uint256)",
        "numberOfBytes": "32",
        "value": "t_uint256"
      },
      "t_mapping(t_bytes32,t_struct(RoleData)302_storage)": {
        "encoding": "mapping",
        "key": "t_bytes32",
        "label": "mapping(bytes32 => struct AccessControlUpgradeable.RoleData)",
        "numberOfBytes": "32",
        "value": "t_struct(RoleData)302_storage"
      },
      "t_mapping(t_string_memory_ptr,t_struct(Uniquette)5718_storage)": {
        "encoding": "mapping",
        "key": "t_string_memory_ptr",
        "label": "mapping(string => struct Directory.Uniquette)",
        "numberOfBytes": "32",
        "value": "t_struct(Uniquette)5718_storage"
      },
      "t_mapping(t_uint256,t_address)": {
        "encoding": "mapping",
        "key": "t_uint256",
        "label": "mapping(uint256 => address)",
        "numberOfBytes": "32",
        "value": "t_address"
      },
      "t_mapping(t_uint256,t_string_storage)": {
        "encoding": "mapping",
        "key": "t_uint256",
        "label": "mapping(uint256 => string)",
        "numberOfBytes": "32",
        "value": "t_string_storage"
      },
      "t_mapping(t_uint256,t_uint256)": {
        "encoding": "mapping",
        "key": "t_uint256",
        "label": "mapping(uint256 => uint256)",
        "numberOfBytes": "32",
        "value": "t_uint256"
      },
      "t_string_memory_ptr": {
        "encoding": "bytes",
        "label": "string",
        "numberOfBytes": "32"
      },
      "t_string_storage": {
        "encoding": "bytes",
        "label": "string",
        "numberOfBytes": "32"
      },
      "t_struct(Counter)4053_storage": {
        "encoding": "inplace",
        "label": "struct CountersUpgradeable.Counter",
        "members": [
          {
            "astId": 4052,
            "contract": "contracts/Directory.sol:Directory",
            "label": "_value",
            "offset": 0,
            "slot": "0",
            "type": "t_uint256"
          }
        ],
        "numberOfBytes": "32"
      },
      "t_struct(RoleData)302_storage": {
        "encoding": "inplace",
        "label": "struct AccessControlUpgradeable.RoleData",
        "members": [
          {
            "astId": 299,
            "contract": "contracts/Directory.sol:Directory",
            "label": "members",
            "offset": 0,
            "slot": "0",
            "type": "t_mapping(t_address,t_bool)"
          },
          {
            "astId": 301,
            "contract": "contracts/Directory.sol:Directory",
            "label": "adminRole",
            "offset": 0,
            "slot": "1",
            "type": "t_bytes32"
          }
        ],
        "numberOfBytes": "64"
      },
      "t_struct(Uniquette)5718_storage": {
        "encoding": "inplace",
        "label": "struct Directory.Uniquette",
        "members": [
          {
            "astId": 5692,
            "contract": "contracts/Directory.sol:Directory",
            "label": "author",
            "offset": 0,
            "slot": "0",
            "type": "t_address"
          },
          {
            "astId": 5694,
            "contract": "contracts/Directory.sol:Directory",
            "label": "owner",
            "offset": 0,
            "slot": "1",
            "type": "t_address"
          },
          {
            "astId": 5696,
            "contract": "contracts/Directory.sol:Directory",
            "label": "collateralValue",
            "offset": 0,
            "slot": "2",
            "type": "t_uint256"
          },
          {
            "astId": 5698,
            "contract": "contracts/Directory.sol:Directory",
            "label": "lastPurchaseAmount",
            "offset": 0,
            "slot": "3",
            "type": "t_uint256"
          },
          {
            "astId": 5700,
            "contract": "contracts/Directory.sol:Directory",
            "label": "salePrice",
            "offset": 0,
            "slot": "4",
            "type": "t_uint256"
          },
          {
            "astId": 5702,
            "contract": "contracts/Directory.sol:Directory",
            "label": "firstSale",
            "offset": 0,
            "slot": "5",
            "type": "t_bool"
          },
          {
            "astId": 5704,
            "contract": "contracts/Directory.sol:Directory",
            "label": "submissionReward",
            "offset": 0,
            "slot": "6",
            "type": "t_uint256"
          },
          {
            "astId": 5706,
            "contract": "contracts/Directory.sol:Directory",
            "label": "metadataVersion",
            "offset": 0,
            "slot": "7",
            "type": "t_uint256"
          },
          {
            "astId": 5708,
            "contract": "contracts/Directory.sol:Directory",
            "label": "tokenId",
            "offset": 0,
            "slot": "8",
            "type": "t_uint256"
          },
          {
            "astId": 5710,
            "contract": "contracts/Directory.sol:Directory",
            "label": "submissionDeposit",
            "offset": 0,
            "slot": "9",
            "type": "t_uint256"
          },
          {
            "astId": 5712,
            "contract": "contracts/Directory.sol:Directory",
            "label": "submitTime",
            "offset": 0,
            "slot": "10",
            "type": "t_uint256"
          },
          {
            "astId": 5714,
            "contract": "contracts/Directory.sol:Directory",
            "label": "firstSaleDeadline",
            "offset": 0,
            "slot": "11",
            "type": "t_uint256"
          },
          {
            "astId": 5717,
            "contract": "contracts/Directory.sol:Directory",
            "label": "status",
            "offset": 0,
            "slot": "12",
            "type": "t_enum(UniquetteStatus)5690"
          }
        ],
        "numberOfBytes": "416"
      },
      "t_uint256": {
        "encoding": "inplace",
        "label": "uint256",
        "numberOfBytes": "32"
      }
    }
  }
}