{
  "address": "0x61313B42A18146aAbdd0dFBFF3a50b97697c2A35",
  "abi": [
    {
      "anonymous": false,
      "inputs": [
        {
          "indexed": true,
          "internalType": "address",
          "name": "owner",
          "type": "address"
        },
        {
          "indexed": true,
          "internalType": "address",
          "name": "approved",
          "type": "address"
        },
        {
          "indexed": true,
          "internalType": "uint256",
          "name": "tokenId",
          "type": "uint256"
        }
      ],
      "name": "Approval",
      "type": "event"
    },
    {
      "anonymous": false,
      "inputs": [
        {
          "indexed": true,
          "internalType": "address",
          "name": "owner",
          "type": "address"
        },
        {
          "indexed": true,
          "internalType": "address",
          "name": "operator",
          "type": "address"
        },
        {
          "indexed": false,
          "internalType": "bool",
          "name": "approved",
          "type": "bool"
        }
      ],
      "name": "ApprovalForAll",
      "type": "event"
    },
    {
      "anonymous": false,
      "inputs": [
        {
          "indexed": false,
          "internalType": "address",
          "name": "account",
          "type": "address"
        }
      ],
      "name": "Paused",
      "type": "event"
    },
    {
      "anonymous": false,
      "inputs": [
        {
          "indexed": true,
          "internalType": "address",
          "name": "operator",
          "type": "address"
        },
        {
          "indexed": false,
          "internalType": "address",
          "name": "seller",
          "type": "address"
        },
        {
          "indexed": true,
          "internalType": "address",
          "name": "collector",
          "type": "address"
        },
        {
          "indexed": true,
          "internalType": "uint256",
          "name": "tokenId",
          "type": "uint256"
        },
        {
          "indexed": false,
          "internalType": "uint256",
          "name": "feePaid",
          "type": "uint256"
        }
      ],
      "name": "ProtocolFeePaid",
      "type": "event"
    },
    {
      "anonymous": false,
      "inputs": [
        {
          "indexed": true,
          "internalType": "bytes32",
          "name": "role",
          "type": "bytes32"
        },
        {
          "indexed": true,
          "internalType": "bytes32",
          "name": "previousAdminRole",
          "type": "bytes32"
        },
        {
          "indexed": true,
          "internalType": "bytes32",
          "name": "newAdminRole",
          "type": "bytes32"
        }
      ],
      "name": "RoleAdminChanged",
      "type": "event"
    },
    {
      "anonymous": false,
      "inputs": [
        {
          "indexed": true,
          "internalType": "bytes32",
          "name": "role",
          "type": "bytes32"
        },
        {
          "indexed": true,
          "internalType": "address",
          "name": "account",
          "type": "address"
        },
        {
          "indexed": true,
          "internalType": "address",
          "name": "sender",
          "type": "address"
        }
      ],
      "name": "RoleGranted",
      "type": "event"
    },
    {
      "anonymous": false,
      "inputs": [
        {
          "indexed": true,
          "internalType": "bytes32",
          "name": "role",
          "type": "bytes32"
        },
        {
          "indexed": true,
          "internalType": "address",
          "name": "account",
          "type": "address"
        },
        {
          "indexed": true,
          "internalType": "address",
          "name": "sender",
          "type": "address"
        }
      ],
      "name": "RoleRevoked",
      "type": "event"
    },
    {
      "anonymous": false,
      "inputs": [
        {
          "indexed": false,
          "internalType": "address",
          "name": "approver",
          "type": "address"
        },
        {
          "indexed": true,
          "internalType": "address",
          "name": "author",
          "type": "address"
        },
        {
          "indexed": false,
          "internalType": "string",
          "name": "hash",
          "type": "string"
        },
        {
          "indexed": false,
          "internalType": "uint256",
          "name": "reward",
          "type": "uint256"
        }
      ],
      "name": "SubmissionApproved",
      "type": "event"
    },
    {
      "anonymous": false,
      "inputs": [
        {
          "indexed": true,
          "internalType": "address",
          "name": "submitter",
          "type": "address"
        },
        {
          "indexed": true,
          "internalType": "uint256",
          "name": "tokenId",
          "type": "uint256"
        },
        {
          "indexed": false,
          "internalType": "string",
          "name": "hash",
          "type": "string"
        },
        {
          "indexed": false,
          "internalType": "uint256",
          "name": "addedValue",
          "type": "uint256"
        },
        {
          "indexed": false,
          "internalType": "uint256",
          "name": "deposit",
          "type": "uint256"
        }
      ],
      "name": "SubmissionCreated",
      "type": "event"
    },
    {
      "anonymous": false,
      "inputs": [
        {
          "indexed": true,
          "internalType": "address",
          "name": "operator",
          "type": "address"
        },
        {
          "indexed": true,
          "internalType": "address",
          "name": "collector",
          "type": "address"
        },
        {
          "indexed": true,
          "internalType": "uint256",
          "name": "tokenId",
          "type": "uint256"
        },
        {
          "indexed": false,
          "internalType": "string",
          "name": "submissionHash",
          "type": "string"
        },
        {
          "indexed": false,
          "internalType": "uint256",
          "name": "appreciatedPrice",
          "type": "uint256"
        },
        {
          "indexed": false,
          "internalType": "uint256",
          "name": "payment",
          "type": "uint256"
        }
      ],
      "name": "SubmissionFunded",
      "type": "event"
    },
    {
      "anonymous": false,
      "inputs": [
        {
          "indexed": false,
          "internalType": "address",
          "name": "approver",
          "type": "address"
        },
        {
          "indexed": true,
          "internalType": "address",
          "name": "author",
          "type": "address"
        },
        {
          "indexed": false,
          "internalType": "string",
          "name": "hash",
          "type": "string"
        }
      ],
      "name": "SubmissionRejected",
      "type": "event"
    },
    {
      "anonymous": false,
      "inputs": [
        {
          "indexed": true,
          "internalType": "address",
          "name": "submitter",
          "type": "address"
        },
        {
          "indexed": false,
          "internalType": "string",
          "name": "hash",
          "type": "string"
        },
        {
          "indexed": false,
          "internalType": "uint256",
          "name": "addedValue",
          "type": "uint256"
        }
      ],
      "name": "SubmissionUpdated",
      "type": "event"
    },
    {
      "anonymous": false,
      "inputs": [
        {
          "indexed": true,
          "internalType": "address",
          "name": "from",
          "type": "address"
        },
        {
          "indexed": true,
          "internalType": "address",
          "name": "to",
          "type": "address"
        },
        {
          "indexed": true,
          "internalType": "uint256",
          "name": "tokenId",
          "type": "uint256"
        }
      ],
      "name": "Transfer",
      "type": "event"
    },
    {
      "anonymous": false,
      "inputs": [
        {
          "indexed": true,
          "internalType": "address",
          "name": "operator",
          "type": "address"
        },
        {
          "indexed": true,
          "internalType": "address",
          "name": "owner",
          "type": "address"
        },
        {
          "indexed": true,
          "internalType": "uint256",
          "name": "tokenId",
          "type": "uint256"
        },
        {
          "indexed": false,
          "internalType": "uint256",
          "name": "additionalCollateral",
          "type": "uint256"
        }
      ],
      "name": "UniquetteCollateralIncreased",
      "type": "event"
    },
    {
      "anonymous": false,
      "inputs": [
        {
          "indexed": false,
          "internalType": "address",
          "name": "operator",
          "type": "address"
        },
        {
          "indexed": true,
          "internalType": "address",
          "name": "seller",
          "type": "address"
        },
        {
          "indexed": true,
          "internalType": "address",
          "name": "collector",
          "type": "address"
        },
        {
          "indexed": true,
          "internalType": "uint256",
          "name": "tokenId",
          "type": "uint256"
        },
        {
          "indexed": false,
          "internalType": "uint256",
          "name": "effectivePrice",
          "type": "uint256"
        },
        {
          "indexed": false,
          "internalType": "uint256",
          "name": "appreciatedPrice",
          "type": "uint256"
        },
        {
          "indexed": false,
          "internalType": "uint256",
          "name": "principalAmount",
          "type": "uint256"
        }
      ],
      "name": "UniquetteCollected",
      "type": "event"
    },
    {
      "anonymous": false,
      "inputs": [
        {
          "indexed": false,
          "internalType": "address",
          "name": "approver",
          "type": "address"
        },
        {
          "indexed": true,
          "internalType": "address",
          "name": "submitter",
          "type": "address"
        },
        {
          "indexed": false,
          "internalType": "string",
          "name": "hash",
          "type": "string"
        }
      ],
      "name": "UniquetteRejected",
      "type": "event"
    },
    {
      "anonymous": false,
      "inputs": [
        {
          "indexed": false,
          "internalType": "address",
          "name": "account",
          "type": "address"
        }
      ],
      "name": "Unpaused",
      "type": "event"
    },
    {
      "inputs": [],
      "name": "DEFAULT_ADMIN_ROLE",
      "outputs": [
        {
          "internalType": "bytes32",
          "name": "",
          "type": "bytes32"
        }
      ],
      "stateMutability": "view",
      "type": "function"
    },
    {
      "inputs": [],
      "name": "GOVERNOR_ROLE",
      "outputs": [
        {
          "internalType": "bytes32",
          "name": "",
          "type": "bytes32"
        }
      ],
      "stateMutability": "view",
      "type": "function"
    },
    {
      "inputs": [
        {
          "internalType": "address",
          "name": "to",
          "type": "address"
        },
        {
          "internalType": "uint256",
          "name": "tokenId",
          "type": "uint256"
        }
      ],
      "name": "approve",
      "outputs": [],
      "stateMutability": "nonpayable",
      "type": "function"
    },
    {
      "inputs": [
        {
          "internalType": "address",
          "name": "owner",
          "type": "address"
        }
      ],
      "name": "balanceOf",
      "outputs": [
        {
          "internalType": "uint256",
          "name": "",
          "type": "uint256"
        }
      ],
      "stateMutability": "view",
      "type": "function"
    },
    {
      "inputs": [
        {
          "internalType": "uint256[]",
          "name": "tokenIds",
          "type": "uint256[]"
        }
      ],
      "name": "batchBurn",
      "outputs": [],
      "stateMutability": "nonpayable",
      "type": "function"
    },
    {
      "inputs": [
        {
          "internalType": "uint256",
          "name": "tokenId",
          "type": "uint256"
        }
      ],
      "name": "burn",
      "outputs": [],
      "stateMutability": "nonpayable",
      "type": "function"
    },
    {
      "inputs": [
        {
          "internalType": "uint256",
          "name": "tokenId",
          "type": "uint256"
        }
      ],
      "name": "getApproved",
      "outputs": [
        {
          "internalType": "address",
          "name": "",
          "type": "address"
        }
      ],
      "stateMutability": "view",
      "type": "function"
    },
    {
      "inputs": [],
      "name": "getParameters",
      "outputs": [
        {
          "internalType": "uint256",
          "name": "protocolFee",
          "type": "uint256"
        },
        {
          "internalType": "uint256",
          "name": "currentMetadataVersion",
          "type": "uint256"
        },
        {
          "internalType": "uint256",
          "name": "minMetadataVersion",
          "type": "uint256"
        },
        {
          "internalType": "uint256",
          "name": "maxPriceAppreciation",
          "type": "uint256"
        },
        {
          "internalType": "uint256",
          "name": "submissionDeposit",
          "type": "uint256"
        }
      ],
      "stateMutability": "view",
      "type": "function"
    },
    {
      "inputs": [
        {
          "internalType": "bytes32",
          "name": "role",
          "type": "bytes32"
        }
      ],
      "name": "getRoleAdmin",
      "outputs": [
        {
          "internalType": "bytes32",
          "name": "",
          "type": "bytes32"
        }
      ],
      "stateMutability": "view",
      "type": "function"
    },
    {
      "inputs": [
        {
          "internalType": "bytes32",
          "name": "role",
          "type": "bytes32"
        },
        {
          "internalType": "address",
          "name": "account",
          "type": "address"
        }
      ],
      "name": "grantRole",
      "outputs": [],
      "stateMutability": "nonpayable",
      "type": "function"
    },
    {
      "inputs": [
        {
          "internalType": "bytes32",
          "name": "role",
          "type": "bytes32"
        },
        {
          "internalType": "address",
          "name": "account",
          "type": "address"
        }
      ],
      "name": "hasRole",
      "outputs": [
        {
          "internalType": "bool",
          "name": "",
          "type": "bool"
        }
      ],
      "stateMutability": "view",
      "type": "function"
    },
    {
      "inputs": [
        {
          "internalType": "string",
          "name": "name",
          "type": "string"
        },
        {
          "internalType": "string",
          "name": "symbol",
          "type": "string"
        },
        {
          "internalType": "string",
          "name": "tokensBaseURI",
          "type": "string"
        },
        {
          "internalType": "address",
          "name": "token",
          "type": "address"
        },
        {
          "internalType": "address payable",
          "name": "vault",
          "type": "address"
        },
        {
          "internalType": "address payable",
          "name": "treasury",
          "type": "address"
        },
        {
          "internalType": "address payable",
          "name": "marketer",
          "type": "address"
        },
        {
          "internalType": "uint256",
          "name": "protocolFee",
          "type": "uint256"
        },
        {
          "internalType": "uint256",
          "name": "minMetadataVersion",
          "type": "uint256"
        },
        {
          "internalType": "uint256",
          "name": "currentMetadataVersion",
          "type": "uint256"
        },
        {
          "internalType": "uint256",
          "name": "maxPriceAppreciation",
          "type": "uint256"
        },
        {
          "internalType": "uint256",
          "name": "submissionDeposit",
          "type": "uint256"
        }
      ],
      "name": "initialize",
      "outputs": [],
      "stateMutability": "nonpayable",
      "type": "function"
    },
    {
      "inputs": [
        {
          "internalType": "address",
          "name": "account",
          "type": "address"
        },
        {
          "internalType": "address",
          "name": "operator",
          "type": "address"
        }
      ],
      "name": "isApprovedForAll",
      "outputs": [
        {
          "internalType": "bool",
          "name": "",
          "type": "bool"
        }
      ],
      "stateMutability": "view",
      "type": "function"
    },
    {
      "inputs": [],
      "name": "name",
      "outputs": [
        {
          "internalType": "string",
          "name": "",
          "type": "string"
        }
      ],
      "stateMutability": "view",
      "type": "function"
    },
    {
      "inputs": [
        {
          "internalType": "uint256",
          "name": "tokenId",
          "type": "uint256"
        }
      ],
      "name": "ownerOf",
      "outputs": [
        {
          "internalType": "address",
          "name": "",
          "type": "address"
        }
      ],
      "stateMutability": "view",
      "type": "function"
    },
    {
      "inputs": [],
      "name": "pause",
      "outputs": [],
      "stateMutability": "nonpayable",
      "type": "function"
    },
    {
      "inputs": [],
      "name": "paused",
      "outputs": [
        {
          "internalType": "bool",
          "name": "",
          "type": "bool"
        }
      ],
      "stateMutability": "view",
      "type": "function"
    },
    {
      "inputs": [
        {
          "internalType": "bytes32",
          "name": "role",
          "type": "bytes32"
        },
        {
          "internalType": "address",
          "name": "account",
          "type": "address"
        }
      ],
      "name": "renounceRole",
      "outputs": [],
      "stateMutability": "nonpayable",
      "type": "function"
    },
    {
      "inputs": [
        {
          "internalType": "bytes32",
          "name": "role",
          "type": "bytes32"
        },
        {
          "internalType": "address",
          "name": "account",
          "type": "address"
        }
      ],
      "name": "revokeRole",
      "outputs": [],
      "stateMutability": "nonpayable",
      "type": "function"
    },
    {
      "inputs": [
        {
          "internalType": "address",
          "name": "from",
          "type": "address"
        },
        {
          "internalType": "address",
          "name": "to",
          "type": "address"
        },
        {
          "internalType": "uint256",
          "name": "tokenId",
          "type": "uint256"
        }
      ],
      "name": "safeTransferFrom",
      "outputs": [],
      "stateMutability": "nonpayable",
      "type": "function"
    },
    {
      "inputs": [
        {
          "internalType": "address",
          "name": "from",
          "type": "address"
        },
        {
          "internalType": "address",
          "name": "to",
          "type": "address"
        },
        {
          "internalType": "uint256",
          "name": "tokenId",
          "type": "uint256"
        },
        {
          "internalType": "bytes",
          "name": "_data",
          "type": "bytes"
        }
      ],
      "name": "safeTransferFrom",
      "outputs": [],
      "stateMutability": "nonpayable",
      "type": "function"
    },
    {
      "inputs": [
        {
          "internalType": "address",
          "name": "operator",
          "type": "address"
        },
        {
          "internalType": "bool",
          "name": "approved",
          "type": "bool"
        }
      ],
      "name": "setApprovalForAll",
      "outputs": [],
      "stateMutability": "nonpayable",
      "type": "function"
    },
    {
      "inputs": [
        {
          "internalType": "uint256",
          "name": "newValue",
          "type": "uint256"
        }
      ],
      "name": "setCurrentMetadataVersion",
      "outputs": [],
      "stateMutability": "nonpayable",
      "type": "function"
    },
    {
      "inputs": [
        {
          "internalType": "address payable",
          "name": "newAddress",
          "type": "address"
        }
      ],
      "name": "setMarketerAddress",
      "outputs": [],
      "stateMutability": "nonpayable",
      "type": "function"
    },
    {
      "inputs": [
        {
          "internalType": "uint256",
          "name": "newValue",
          "type": "uint256"
        }
      ],
      "name": "setMaxPriceAppreciation",
      "outputs": [],
      "stateMutability": "nonpayable",
      "type": "function"
    },
    {
      "inputs": [
        {
          "internalType": "uint256",
          "name": "newValue",
          "type": "uint256"
        }
      ],
      "name": "setMinMetadataVersion",
      "outputs": [],
      "stateMutability": "nonpayable",
      "type": "function"
    },
    {
      "inputs": [
        {
          "internalType": "uint256",
          "name": "newValue",
          "type": "uint256"
        }
      ],
      "name": "setProtocolFee",
      "outputs": [],
      "stateMutability": "nonpayable",
      "type": "function"
    },
    {
      "inputs": [
        {
          "internalType": "uint256",
          "name": "newValue",
          "type": "uint256"
        }
      ],
      "name": "setSubmissionDeposit",
      "outputs": [],
      "stateMutability": "nonpayable",
      "type": "function"
    },
    {
      "inputs": [
        {
          "internalType": "address",
          "name": "newAddress",
          "type": "address"
        }
      ],
      "name": "setTokenAddress",
      "outputs": [],
      "stateMutability": "nonpayable",
      "type": "function"
    },
    {
      "inputs": [
        {
          "internalType": "address payable",
          "name": "newAddress",
          "type": "address"
        }
      ],
      "name": "setTreasuryAddress",
      "outputs": [],
      "stateMutability": "nonpayable",
      "type": "function"
    },
    {
      "inputs": [
        {
          "internalType": "address payable",
          "name": "newAddress",
          "type": "address"
        }
      ],
      "name": "setVaultAddress",
      "outputs": [],
      "stateMutability": "nonpayable",
      "type": "function"
    },
    {
      "inputs": [
        {
          "internalType": "string",
          "name": "hash",
          "type": "string"
        },
        {
          "internalType": "uint256",
          "name": "rewardOverride",
          "type": "uint256"
        }
      ],
      "name": "submissionApprove",
      "outputs": [],
      "stateMutability": "nonpayable",
      "type": "function"
    },
    {
      "inputs": [
        {
          "internalType": "string[]",
          "name": "hashes",
          "type": "string[]"
        },
        {
          "internalType": "uint256[]",
          "name": "rewards",
          "type": "uint256[]"
        }
      ],
      "name": "submissionApproveBulk",
      "outputs": [],
      "stateMutability": "nonpayable",
      "type": "function"
    },
    {
      "inputs": [
        {
          "internalType": "uint256",
          "name": "tokenId",
          "type": "uint256"
        },
        {
          "internalType": "string",
          "name": "hash",
          "type": "string"
        },
        {
          "internalType": "uint256",
          "name": "metadataVersion",
          "type": "uint256"
        },
        {
          "internalType": "uint256",
          "name": "addedValue",
          "type": "uint256"
        }
      ],
      "name": "submissionCreate",
      "outputs": [],
      "stateMutability": "payable",
      "type": "function"
    },
    {
      "inputs": [
        {
          "internalType": "string[]",
          "name": "hashes",
          "type": "string[]"
        },
        {
          "internalType": "uint256[]",
          "name": "metadataVersions",
          "type": "uint256[]"
        },
        {
          "internalType": "uint256[]",
          "name": "tokenIds",
          "type": "uint256[]"
        },
        {
          "internalType": "uint256[]",
          "name": "addedValues",
          "type": "uint256[]"
        }
      ],
      "name": "submissionCreateBulk",
      "outputs": [],
      "stateMutability": "payable",
      "type": "function"
    },
    {
      "inputs": [
        {
          "internalType": "address",
          "name": "to",
          "type": "address"
        },
        {
          "internalType": "uint256",
          "name": "tokenId",
          "type": "uint256"
        },
        {
          "internalType": "string",
          "name": "submissionHash",
          "type": "string"
        }
      ],
      "name": "submissionFund",
      "outputs": [],
      "stateMutability": "payable",
      "type": "function"
    },
    {
      "inputs": [
        {
          "internalType": "string",
          "name": "hash",
          "type": "string"
        }
      ],
      "name": "submissionGetByHash",
      "outputs": [
        {
          "components": [
            {
              "internalType": "address",
              "name": "author",
              "type": "address"
            },
            {
              "internalType": "uint256",
              "name": "addedValue",
              "type": "uint256"
            },
            {
              "internalType": "uint256",
              "name": "reward",
              "type": "uint256"
            },
            {
              "internalType": "uint256",
              "name": "metadataVersion",
              "type": "uint256"
            },
            {
              "internalType": "uint256",
              "name": "tokenId",
              "type": "uint256"
            },
            {
              "internalType": "uint256",
              "name": "parentHash",
              "type": "uint256"
            },
            {
              "internalType": "uint256",
              "name": "deposit",
              "type": "uint256"
            },
            {
              "internalType": "enum Submissions.SubmissionStatus",
              "name": "status",
              "type": "uint8"
            }
          ],
          "internalType": "struct Submissions.Submission",
          "name": "",
          "type": "tuple"
        }
      ],
      "stateMutability": "view",
      "type": "function"
    },
    {
      "inputs": [
        {
          "internalType": "string",
          "name": "hash",
          "type": "string"
        }
      ],
      "name": "submissionReject",
      "outputs": [],
      "stateMutability": "nonpayable",
      "type": "function"
    },
    {
      "inputs": [
        {
          "internalType": "string",
          "name": "hash",
          "type": "string"
        },
        {
          "internalType": "uint256",
          "name": "tokenId",
          "type": "uint256"
        },
        {
          "internalType": "uint256",
          "name": "addedValue",
          "type": "uint256"
        }
      ],
      "name": "submissionUpdate",
      "outputs": [],
      "stateMutability": "nonpayable",
      "type": "function"
    },
    {
      "inputs": [
        {
          "internalType": "bytes4",
          "name": "interfaceId",
          "type": "bytes4"
        }
      ],
      "name": "supportsInterface",
      "outputs": [
        {
          "internalType": "bool",
          "name": "",
          "type": "bool"
        }
      ],
      "stateMutability": "view",
      "type": "function"
    },
    {
      "inputs": [],
      "name": "symbol",
      "outputs": [
        {
          "internalType": "string",
          "name": "",
          "type": "string"
        }
      ],
      "stateMutability": "view",
      "type": "function"
    },
    {
      "inputs": [
        {
          "internalType": "uint256",
          "name": "index",
          "type": "uint256"
        }
      ],
      "name": "tokenByIndex",
      "outputs": [
        {
          "internalType": "uint256",
          "name": "",
          "type": "uint256"
        }
      ],
      "stateMutability": "view",
      "type": "function"
    },
    {
      "inputs": [
        {
          "internalType": "address",
          "name": "owner",
          "type": "address"
        },
        {
          "internalType": "uint256",
          "name": "index",
          "type": "uint256"
        }
      ],
      "name": "tokenOfOwnerByIndex",
      "outputs": [
        {
          "internalType": "uint256",
          "name": "",
          "type": "uint256"
        }
      ],
      "stateMutability": "view",
      "type": "function"
    },
    {
      "inputs": [
        {
          "internalType": "uint256",
          "name": "tokenId",
          "type": "uint256"
        }
      ],
      "name": "tokenURI",
      "outputs": [
        {
          "internalType": "string",
          "name": "",
          "type": "string"
        }
      ],
      "stateMutability": "view",
      "type": "function"
    },
    {
      "inputs": [],
      "name": "totalSupply",
      "outputs": [
        {
          "internalType": "uint256",
          "name": "",
          "type": "uint256"
        }
      ],
      "stateMutability": "view",
      "type": "function"
    },
    {
      "inputs": [
        {
          "internalType": "address",
          "name": "from",
          "type": "address"
        },
        {
          "internalType": "address",
          "name": "to",
          "type": "address"
        },
        {
          "internalType": "uint256",
          "name": "tokenId",
          "type": "uint256"
        }
      ],
      "name": "transferFrom",
      "outputs": [],
      "stateMutability": "nonpayable",
      "type": "function"
    },
    {
      "inputs": [
        {
          "internalType": "address",
          "name": "to",
          "type": "address"
        },
        {
          "internalType": "uint256",
          "name": "tokenId",
          "type": "uint256"
        }
      ],
      "name": "uniquetteCollect",
      "outputs": [],
      "stateMutability": "payable",
      "type": "function"
    },
    {
      "inputs": [
        {
          "internalType": "uint256",
          "name": "tokenId",
          "type": "uint256"
        }
      ],
      "name": "uniquetteGetById",
      "outputs": [
        {
          "components": [
            {
              "internalType": "uint256",
              "name": "tokenId",
              "type": "uint256"
            },
            {
              "internalType": "address",
              "name": "owner",
              "type": "address"
            },
            {
              "internalType": "uint256",
              "name": "collateralValue",
              "type": "uint256"
            },
            {
              "internalType": "uint256",
              "name": "lastPurchaseAmount",
              "type": "uint256"
            }
          ],
          "internalType": "struct Uniquettes.Uniquette",
          "name": "",
          "type": "tuple"
        }
      ],
      "stateMutability": "view",
      "type": "function"
    },
    {
      "inputs": [
        {
          "internalType": "uint256",
          "name": "tokenId",
          "type": "uint256"
        }
      ],
      "name": "uniquetteGetFundedSubmission",
      "outputs": [
        {
          "internalType": "string",
          "name": "",
          "type": "string"
        }
      ],
      "stateMutability": "view",
      "type": "function"
    },
    {
      "inputs": [
        {
          "internalType": "uint256",
          "name": "tokenId",
          "type": "uint256"
        }
      ],
      "name": "uniquetteIncreaseCollateral",
      "outputs": [],
      "stateMutability": "payable",
      "type": "function"
    },
    {
      "inputs": [],
      "name": "unpause",
      "outputs": [],
      "stateMutability": "nonpayable",
      "type": "function"
    }
  ],
  "transactionHash": "0xa3f408984bf812f6bed65e0287520e4ed4f7cf125a6a2f6569abf31465995d36",
  "args": [],
  "solcInputHash": "b55dfb48af64322da2239218da652d11",
  "bytecode": "0x608060405234801561001057600080fd5b506156a880620000216000396000f3fe6080604052600436106102435760003560e01c8062f1e4cb1461024857806301ffc9a71461025d57806306fdde0314610292578063081812fc146102b4578063095ea7b3146102e157806318160ddd14610301578063194aaa131461032057806320cbbb0c146103335780632324eef01461038f57806323b872dd146103af578063248a9ca3146103cf57806326a4e8d2146103ef5780632c1da7f31461040f5780632f2ff15d1461042f5780632f745c591461044f57806332f72e391461046f57806336568abe1461048f5780633f4ba83a146104af57806342842e0e146104c457806342966c68146104e45780634c11893c146105045780634f6ccce7146105245780635c975abb146105445780636352211e1461055c57806363ff2c261461057c5780636605bfda1461059c57806370a08231146105bc578063714b63dc146105dc57806372491ead146105fc578063787dce3d1461060f5780637d36b3481461062f5780638456cb591461064f57806385535cc51461066457806391d148541461068457806395d89b41146106a45780639b7bddb0146106b9578063a217fddf146106e6578063a22cb465146106fb578063a5ea11da1461071b578063b88d4fde14610764578063bde1312d14610784578063bf14057214610797578063c7771a3f146107b7578063c87b56dd146107d7578063ccc57490146107f7578063d547741f14610819578063dc8e92ea14610839578063e65e1a1014610859578063e985e9c51461086c578063ee4993751461088c578063ffe329d9146108ac575b600080fd5b61025b6102563660046149d5565b6108cc565b005b34801561026957600080fd5b5061027d610278366004614c0a565b6109d9565b60405190151581526020015b60405180910390f35b34801561029e57600080fd5b506102a76109ec565b604051610289919061511b565b3480156102c057600080fd5b506102d46102cf366004614bce565b610a7e565b604051610289919061500b565b3480156102ed57600080fd5b5061025b6102fc3660046149d5565b610b06565b34801561030d57600080fd5b5060cb545b604051908152602001610289565b61025b61032e366004614a00565b610b6e565b34801561033f57600080fd5b5061035361034e366004614bce565b610e68565b6040516102899190815181526020808301516001600160a01b031690820152604080830151908201526060918201519181019190915260800190565b34801561039b57600080fd5b5061025b6103aa366004614bce565b610f30565b3480156103bb57600080fd5b5061025b6103ca3660046148ec565b610f6a565b3480156103db57600080fd5b506103126103ea366004614bce565b610fa0565b3480156103fb57600080fd5b5061025b61040a366004614898565b610fb5565b34801561041b57600080fd5b5061025b61042a366004614a59565b61100c565b34801561043b57600080fd5b5061025b61044a366004614be6565b61114b565b34801561045b57600080fd5b5061031261046a3660046149d5565b611169565b34801561047b57600080fd5b5061025b61048a366004614bce565b6111ff565b34801561049b57600080fd5b5061025b6104aa366004614be6565b611239565b3480156104bb57600080fd5b5061025b6112b7565b3480156104d057600080fd5b5061025b6104df3660046148ec565b6112f5565b3480156104f057600080fd5b5061025b6104ff366004614bce565b611310565b34801561051057600080fd5b5061025b61051f366004614cbe565b6113ed565b34801561053057600080fd5b5061031261053f366004614bce565b611679565b34801561055057600080fd5b5060fb5460ff1661027d565b34801561056857600080fd5b506102d4610577366004614bce565b61171a565b34801561058857600080fd5b5061025b610597366004614d0c565b611791565b3480156105a857600080fd5b5061025b6105b7366004614898565b611898565b3480156105c857600080fd5b506103126105d7366004614898565b6118e1565b3480156105e857600080fd5b5061025b6105f7366004614c42565b611968565b61025b61060a366004614ab5565b611bb7565b34801561061b57600080fd5b5061025b61062a366004614bce565b611e1e565b34801561063b57600080fd5b5061025b61064a366004614c75565b611e58565b34801561065b57600080fd5b5061025b611ecc565b34801561067057600080fd5b5061025b61067f366004614898565b611f08565b34801561069057600080fd5b5061027d61069f366004614be6565b611f5f565b3480156106b057600080fd5b506102a7611f8a565b3480156106c557600080fd5b506106d96106d4366004614c42565b611f99565b6040516102899190615399565b3480156106f257600080fd5b50610312600081565b34801561070757600080fd5b5061025b6107163660046149a8565b6120ca565b34801561072757600080fd5b506101915461019254610193546101945461019554604080519586526020860194909452928401919091526060830152608082015260a001610289565b34801561077057600080fd5b5061025b61077f36600461492c565b612142565b61025b610792366004614e12565b61217a565b3480156107a357600080fd5b5061025b6107b2366004614bce565b612447565b3480156107c357600080fd5b506102a76107d2366004614bce565b612481565b3480156107e357600080fd5b506102a76107f2366004614bce565b612524565b34801561080357600080fd5b5061031260008051602061561383398151915281565b34801561082557600080fd5b5061025b610834366004614be6565b6125a5565b34801561084557600080fd5b5061025b610854366004614b73565b6125c2565b61025b610867366004614bce565b612693565b34801561087857600080fd5b5061027d6108873660046148b4565b612794565b34801561089857600080fd5b5061025b6108a7366004614898565b612817565b3480156108b857600080fd5b5061025b6108c7366004614bce565b61286e565b806108d6816128a8565b80156108f05750600081815261019c602052604090205415155b6109155760405162461bcd60e51b815260040161090c906152fb565b60405180910390fd5b600261015f5414156109395760405162461bcd60e51b815260040161090c90615362565b600261015f55600082815261019e6020526040812080546109599061553d565b9050116109bd5760405162461bcd60e51b815260206004820152602c60248201527f4449524543544f52592f4e4f5f5355424d495353494f4e5f46554e4445445f4660448201526b4f525f554e4951554554544560a01b606482015260840161090c565b6109ca33848460006128c5565b5050600161015f555050505050565b60006109e482612cf7565b90505b919050565b6060609780546109fb9061553d565b80601f0160208091040260200160405190810160405280929190818152602001828054610a279061553d565b8015610a745780601f10610a4957610100808354040283529160200191610a74565b820191906000526020600020905b815481529060010190602001808311610a5757829003601f168201915b5050505050905090565b6000610a89826128a8565b610aea5760405162461bcd60e51b815260206004820152602c60248201527f4552433732313a20617070726f76656420717565727920666f72206e6f6e657860448201526b34b9ba32b73a103a37b5b2b760a11b606482015260840161090c565b506000908152609b60205260409020546001600160a01b031690565b60405162461bcd60e51b815260206004820152603760248201527f4469726563746f72793a20617070726f7665206e6f7420737570706f72746564604482015276206f6e20756e69717565747465207472616e736665727360481b606482015260840161090c565b82610b78816128a8565b8015610b925750600081815261019c602052604090205415155b610bae5760405162461bcd60e51b815260040161090c906152fb565b828260006001600160a01b03166101978383604051610bce929190614f5b565b908152604051908190036020019020546001600160a01b03161415610c055760405162461bcd60e51b815260040161090c90615180565b848460016101978383604051610c1c929190614f5b565b9081526040519081900360200190206007015460ff166002811115610c5157634e487b7160e01b600052602160045260246000fd5b14610c6e5760405162461bcd60e51b815260040161090c906151b4565b8686610193546101978383604051610c87929190614f5b565b9081526020016040518091039020600301541015610cb75760405162461bcd60e51b815260040161090c90615234565b600261015f541415610cdb5760405162461bcd60e51b815260040161090c90615362565b600261015f556000610ced8a8a611f99565b90508a816080015114610d555760405162461bcd60e51b815260206004820152602a60248201527f4449524543544f52592f494e56414c49445f5355424d495353494f4e5f464f526044820152695f554e4951554554544560b01b606482015260840161090c565b60008b815261019e60205260409020610d6f908b8b6145f8565b50610d7a8a8a612d02565b6000610d8c338e8e85602001516128c5565b505061019f54845160408087015190516340c10f1960e01b81529395506001600160a01b0390921693506340c10f1992610dc992906004016150b7565b600060405180830381600087803b158015610de357600080fd5b505af1158015610df7573d6000803e3d6000fd5b505050508b8d6001600160a01b0316610e0d3390565b6001600160a01b03167f1e0392d89fc63a5033fa3b8ccb7befb7fd00ac557728fa9518a257c0fb6e08f88e8e8634604051610e4b94939291906150f4565b60405180910390a45050600161015f555050505050505050505050565b610e9c60405180608001604052806000815260200160006001600160a01b0316815260200160008152602001600081525090565b81610ea6816128a8565b8015610ec05750600081815261019c602052604090205415155b610edc5760405162461bcd60e51b815260040161090c906152fb565b600083815261019c602090815260409182902082516080810184528154815260018201546001600160a01b031692810192909252600281015492820192909252600390910154606082015291505b50919050565b610f486000805160206156138339815191523361069f565b610f645760405162461bcd60e51b815260040161090c9061532e565b61019255565b610f743382612e1e565b610f905760405162461bcd60e51b815260040161090c906152aa565b610f9b838383612f18565b505050565b60009081526065602052604090206001015490565b610fcd6000805160206156138339815191523361069f565b610fe95760405162461bcd60e51b815260040161090c9061532e565b61019880546001600160a01b0319166001600160a01b0392909216919091179055565b6110246000805160206156138339815191523361069f565b6110405760405162461bcd60e51b815260040161090c9061532e565b600261015f5414156110645760405162461bcd60e51b815260040161090c90615362565b600261015f558281146110c25760405162461bcd60e51b81526020600482015260326024820152600080516020615653833981519152604482015271206e6f74206d61746368207265776172647360701b606482015260840161090c565b60005b8381101561113e5761112e8585838181106110f057634e487b7160e01b600052603260045260246000fd5b90506020028101906111029190615448565b85858581811061112257634e487b7160e01b600052603260045260246000fd5b905060200201356130b1565b61113781615572565b90506110c5565b5050600161015f55505050565b61115482610fa0565b61115f81335b6132f0565b610f9b8383613354565b6000611174836118e1565b82106111d65760405162461bcd60e51b815260206004820152602b60248201527f455243373231456e756d657261626c653a206f776e657220696e646578206f7560448201526a74206f6620626f756e647360a81b606482015260840161090c565b506001600160a01b0391909116600090815260c960209081526040808320938352929052205490565b6112176000805160206156138339815191523361069f565b6112335760405162461bcd60e51b815260040161090c9061532e565b61019555565b6001600160a01b03811633146112a95760405162461bcd60e51b815260206004820152602f60248201527f416363657373436f6e74726f6c3a2063616e206f6e6c792072656e6f756e636560448201526e103937b632b9903337b91039b2b63360891b606482015260840161090c565b6112b382826133da565b5050565b6112cf6000805160206156138339815191523361069f565b6112eb5760405162461bcd60e51b815260040161090c9061532e565b6112f3613441565b565b610f9b83838360405180602001604052806000815250612142565b6113286000805160206156138339815191523361069f565b6113445760405162461bcd60e51b815260040161090c9061532e565b600081815261019c602090815260409182902082516080810184528154815260018201546001600160a01b03908116938201849052600283015494820194909452600390910154606082015261019954909216146113e45760405162461bcd60e51b815260206004820152601d60248201527f554e49515545545445532f4e4f545f4f574e45445f42595f5641554c54000000604482015260640161090c565b6112b3826134ce565b838360006001600160a01b0316610197838360405161140d929190614f5b565b908152604051908190036020019020546001600160a01b031614156114445760405162461bcd60e51b815260040161090c90615180565b85856000610197838360405161145b929190614f5b565b9081526040519081900360200190206007015460ff16600281111561149057634e487b7160e01b600052602160045260246000fd5b146114ad5760405162461bcd60e51b815260040161090c90615279565b87876101935461019783836040516114c6929190614f5b565b90815260200160405180910390206003015410156114f65760405162461bcd60e51b815260040161090c90615234565b600261015f54141561151a5760405162461bcd60e51b815260040161090c90615362565b600261015f55336001600160a01b03166101978b8b60405161153d929190614f5b565b908152604051908190036020019020546001600160a01b0316148061157557506115756000805160206156138339815191523361069f565b6115cc5760405162461bcd60e51b815260206004820152602260248201527f5355424d495353494f4e532f4e4f545f415554484f525f4f525f474f5645524e60448201526127a960f11b606482015260840161090c565b876101978b8b6040516115e0929190614f5b565b908152602001604051809103902060040181905550866101978b8b604051611609929190614f5b565b908152604051908190036020019020600101556116233390565b6001600160a01b03167f5d65f7cb575787e992f9f65bcde54aff4e5796220138384beb8d746b439a4aad8b8b8a60405161165f939291906150d0565b60405180910390a25050600161015f555050505050505050565b600061168460cb5490565b82106116e75760405162461bcd60e51b815260206004820152602c60248201527f455243373231456e756d657261626c653a20676c6f62616c20696e646578206f60448201526b7574206f6620626f756e647360a01b606482015260840161090c565b60cb828154811061170857634e487b7160e01b600052603260045260246000fd5b90600052602060002001549050919050565b6000818152609960205260408120546001600160a01b0316806109e45760405162461bcd60e51b815260206004820152602960248201527f4552433732313a206f776e657220717565727920666f72206e6f6e657869737460448201526832b73a103a37b5b2b760b91b606482015260840161090c565b600054610100900460ff16806117aa575060005460ff16155b6117c65760405162461bcd60e51b815260040161090c906151e6565b600054610100900460ff161580156117e8576000805461ffff19166101011790555b6117f58686868686613563565b6118038d8d8c8c8c8c613615565b61180c8861369f565b61019f80546001600160a01b03808d166001600160a01b0319928316179092556101a08054928c16929091169190911790558a51611852906101a19060208e019061467c565b5061185f6000335b613714565b6118776000805160206156138339815191523361185a565b8015611889576000805461ff00191690555b50505050505050505050505050565b6118b06000805160206156138339815191523361069f565b6118cc5760405162461bcd60e51b815260040161090c9061532e565b6118d58161371e565b6118de81613775565b50565b60006001600160a01b03821661194c5760405162461bcd60e51b815260206004820152602a60248201527f4552433732313a2062616c616e636520717565727920666f7220746865207a65604482015269726f206164647265737360b01b606482015260840161090c565b506001600160a01b03166000908152609a602052604090205490565b6119806000805160206156138339815191523361069f565b61199c5760405162461bcd60e51b815260040161090c9061532e565b818160006001600160a01b031661019783836040516119bc929190614f5b565b908152604051908190036020019020546001600160a01b031614156119f35760405162461bcd60e51b815260040161090c90615180565b838360006101978383604051611a0a929190614f5b565b9081526040519081900360200190206007015460ff166002811115611a3f57634e487b7160e01b600052602160045260246000fd5b14611a5c5760405162461bcd60e51b815260040161090c90615279565b600261015f541415611a805760405162461bcd60e51b815260040161090c90615362565b600261015f5560405160009061019790611a9d9089908990614f5b565b908152604051908190036020018120546001600160a01b0316915060009061019790611acc908a908a90614f5b565b90815260200160405180910390206006015490506101978888604051611af3929190614f5b565b90815260405190819003602001902080546001600160a01b0319168155600060018201819055600282018190556003820181905560048201819055600582018190556006820155600701805460ff191690558015611b625761019654611b62906001600160a01b0316826137cc565b6001600160a01b0382167fd0ebb0eea23bb48fde00a512003aa8e1a997969ece3a7bd7bd867b0b4fe2e698338a8a604051611b9f9392919061505c565b60405180910390a25050600161015f55505050505050565b600261015f541415611bdb5760405162461bcd60e51b815260040161090c90615362565b600261015f55868514611c425760405162461bcd60e51b815260206004820152603b602482015260008051602061565383398151915260448201527a206e6f74206d61746368206d6574616461746156657273696f6e7360281b606482015260840161090c565b868314611c9b5760405162461bcd60e51b81526020600482015260336024820152600080516020615653833981519152604482015272206e6f74206d6174636820746f6b656e49647360681b606482015260840161090c565b868114611cf25760405162461bcd60e51b81526020600482015260316024820152600080516020615653833981519152604482015270206e6f74206d617463682076616c75657360781b606482015260840161090c565b60005b87811015611e0d573063bde1312d868684818110611d2357634e487b7160e01b600052603260045260246000fd5b905060200201358b8b85818110611d4a57634e487b7160e01b600052603260045260246000fd5b9050602002810190611d5c9190615448565b8b8b87818110611d7c57634e487b7160e01b600052603260045260246000fd5b90506020020135888888818110611da357634e487b7160e01b600052603260045260246000fd5b905060200201356040518663ffffffff1660e01b8152600401611dca95949392919061541a565b600060405180830381600087803b158015611de457600080fd5b505af1158015611df8573d6000803e3d6000fd5b5050505080611e0690615572565b9050611cf5565b5050600161015f5550505050505050565b611e366000805160206156138339815191523361069f565b611e525760405162461bcd60e51b815260040161090c9061532e565b61019155565b611e706000805160206156138339815191523361069f565b611e8c5760405162461bcd60e51b815260040161090c9061532e565b600261015f541415611eb05760405162461bcd60e51b815260040161090c90615362565b600261015f55611ec18383836130b1565b5050600161015f5550565b611ee46000805160206156138339815191523361069f565b611f005760405162461bcd60e51b815260040161090c9061532e565b6112f36138e2565b611f206000805160206156138339815191523361069f565b611f3c5760405162461bcd60e51b815260040161090c9061532e565b61019980546001600160a01b0319166001600160a01b0392909216919091179055565b60009182526065602090815260408084206001600160a01b0393909316845291905290205460ff1690565b6060609880546109fb9061553d565b611fa16146f0565b828260006001600160a01b03166101978383604051611fc1929190614f5b565b908152604051908190036020019020546001600160a01b03161415611ff85760405162461bcd60e51b815260040161090c90615180565b610197858560405161200b929190614f5b565b9081526040805191829003602090810183206101008401835280546001600160a01b03168452600181015491840191909152600280820154928401929092526003810154606084015260048101546080840152600581015460a0840152600681015460c08401526007810154909160e084019160ff169081111561209f57634e487b7160e01b600052602160045260246000fd5b60028111156120be57634e487b7160e01b600052602160045260246000fd5b90525095945050505050565b60405162461bcd60e51b815260206004820152604160248201527f4469726563746f72793a20736574417070726f76616c466f72416c6c206e6f7460448201527f20737570706f72746564206f6e20756e69717565747465207472616e736665726064820152607360f81b608482015260a40161090c565b61214c3383612e1e565b6121685760405162461bcd60e51b815260040161090c906152aa565b6121748484848461395d565b50505050565b60006001600160a01b03166101978585604051612198929190614f5b565b908152604051908190036020019020546001600160a01b0316146121fc5760405162461bcd60e51b815260206004820152601b60248201527a14d550935254d4d253d394cbd053149150511657d0d49150551151602a1b604482015260640161090c565b6101955434146122595760405162461bcd60e51b815260206004820152602260248201527f5355424d495353494f4e532f45584143545f4445504f5349545f524551554952604482015261115160f21b606482015260840161090c565b610193548210156122bd5760405162461bcd60e51b815260206004820152602860248201527f5355424d495353494f4e532f554e535550504f525445445f4d455441444154416044820152672fab22a929a4a7a760c11b606482015260840161090c565b3361019785856040516122d1929190614f5b565b90815260405190819003602001812080546001600160a01b03939093166001600160a01b0319909316929092179091558590610197906123149087908790614f5b565b90815260200160405180910390206004018190555081610197858560405161233d929190614f5b565b908152602001604051809103902060030181905550806101978585604051612366929190614f5b565b90815260200160405180910390206001018190555034610197858560405161238f929190614f5b565b908152602001604051809103902060060181905550600061019785856040516123b9929190614f5b565b908152604051908190036020019020600701805460ff191660018360028111156123f357634e487b7160e01b600052602160045260246000fd5b021790555084336001600160a01b03167f4d66d41804994e0b3749bf214861b72fe46575c5645646e020570c8403e7a1d68686853460405161243894939291906150f4565b60405180910390a35050505050565b61245f6000805160206156138339815191523361069f565b61247b5760405162461bcd60e51b815260040161090c9061532e565b61019355565b600081815261019e6020526040902080546060919061249f9061553d565b80601f01602080910402602001604051908101604052809291908181526020018280546124cb9061553d565b80156125185780601f106124ed57610100808354040283529160200191612518565b820191906000526020600020905b8154815290600101906020018083116124fb57829003601f168201915b50505050509050919050565b606081612530816128a8565b801561254a5750600081815261019c602052604090205415155b6125665760405162461bcd60e51b815260040161090c906152fb565b6101a161019e600085815260200190815260200160002060405160200161258e929190614f87565b604051602081830303815290604052915050919050565b6125ae82610fa0565b6125b8813361115a565b610f9b83836133da565b6125da6000805160206156138339815191523361069f565b6125f65760405162461bcd60e51b815260040161090c9061532e565b60005b81811015610f9b57600083838381811061262357634e487b7160e01b600052603260045260246000fd5b604051630852cd8d60e31b81526020909102929092013560048301819052925030916342966c689150602401600060405180830381600087803b15801561266957600080fd5b505af115801561267d573d6000803e3d6000fd5b50505050508061268c90615572565b90506125f9565b8061269d816128a8565b80156126b75750600081815261019c602052604090205415155b6126d35760405162461bcd60e51b815260040161090c906152fb565b600261015f5414156126f75760405162461bcd60e51b815260040161090c90615362565b600261015f5561019954612714906001600160a01b0316346137cc565b600082815261019c60205260408120600201805434929061273690849061548c565b9091555050600082815261019c602052604090206001015482906001600160a01b0316336001600160a01b03166000805160206155f38339815191523460405161278291815260200190565b60405180910390a45050600161015f55565b60006127ae60008051602061561383398151915283611f5f565b806127c7575061019b546001600160a01b038381169116145b806127e05750610199546001600160a01b038381169116145b8061281057506001600160a01b038084166000908152609c602090815260408083209386168352929052205460ff165b9392505050565b61282f6000805160206156138339815191523361069f565b61284b5760405162461bcd60e51b815260040161090c9061532e565b61019b80546001600160a01b0319166001600160a01b0392909216919091179055565b6128866000805160206156138339815191523361069f565b6128a25760405162461bcd60e51b815260040161090c9061532e565b61019455565b6000908152609960205260409020546001600160a01b0316151590565b600080600080856128d5816128a8565b80156128ef5750600081815261019c602052604090205415155b61290b5760405162461bcd60e51b815260040161090c906152fb565b6001600160a01b0388166129615760405162461bcd60e51b815260206004820152601f60248201527f554e49515545545445532f434f4c4c4543545f544f5f5a45524f5f4144445200604482015260640161090c565b600061296c88610e68565b905060003411806129b85750861580156129975750886001600160a01b03168a6001600160a01b0316145b80156129b85750886001600160a01b031681602001516001600160a01b0316145b612a025760405162461bcd60e51b815260206004820152601b60248201527a15539254555155151154cbd410565351539517d491545552549151602a1b604482015260640161090c565b612a0d8a8a83613990565b9550612a19878761548c565b94506127106101915486612a2d91906154c4565b612a3791906154a4565b9250612a4383346154e3565b935084841015612a955760405162461bcd60e51b815260206004820152601f60248201527f554e49515545545445532f4e4f545f454e4f5547485f5052494e434950414c00604482015260640161090c565b6000612aa187866154e3565b905086861015612b035760405162461bcd60e51b815260206004820152602760248201527f554e49515545545445532f554e45585045435445445f44455052454349415445604482015266445f505249434560c81b606482015260840161090c565b34811115612b635760405162461bcd60e51b815260206004820152602760248201527f554e49515545545445532f554e45585045435445445f4558434553535f434f4c6044820152661310551154905360ca1b606482015260840161090c565b600089815261019c602052604081206002018054839290612b8590849061548c565b9091555050600089815261019c60209081526040909120600301879055820151612baf8c8b613a4a565b612bba818c8c612f18565b604080516001600160a01b038e81168252602082018b9052918101899052606081018890528b91808e1691908416907f6fdb2ff779ec4d72d0b11602f19b1511c6e1af12f133f56c677fbd3e0f252a059060800160405180910390a461019a54612c2d906001600160a01b0316866137cc565b898b6001600160a01b03168d6001600160a01b03167f5d90ed55018a812d5146da57fe239c218fe08dfd6c476b2df791ecd2744d91148489604051612c739291906150b7565b60405180910390a4612c8e6001600160a01b038216896137cc565b8115612ce85761019954612cab906001600160a01b0316836137cc565b898b6001600160a01b03168d6001600160a01b03166000805160206155f383398151915285604051612cdf91815260200190565b60405180910390a45b50505050945094509450949050565b60006109e482613ab8565b818160006001600160a01b03166101978383604051612d22929190614f5b565b908152604051908190036020019020546001600160a01b03161415612d595760405162461bcd60e51b815260040161090c90615180565b838360016101978383604051612d70929190614f5b565b9081526040519081900360200190206007015460ff166002811115612da557634e487b7160e01b600052602160045260246000fd5b14612dc25760405162461bcd60e51b815260040161090c906151b4565b60026101978787604051612dd7929190614f5b565b908152604051908190036020019020600701805460ff19166001836002811115612e1157634e487b7160e01b600052602160045260246000fd5b0217905550505050505050565b600081612e2a816128a8565b8015612e445750600081815261019c602052604090205415155b612e605760405162461bcd60e51b815260040161090c906152fb565b6000612e6b8461171a565b9050846001600160a01b0316612e8085610a7e565b6001600160a01b03161480612f0f575060405163e985e9c560e01b81526001600160a01b03808316600483015286166024820152309063e985e9c59060440160206040518083038186803b158015612ed757600080fd5b505afa158015612eeb573d6000803e3d6000fd5b505050506040513d601f19601f82011682018060405250810190612f0f9190614bb2565b95945050505050565b826001600160a01b0316612f2b8261171a565b6001600160a01b031614612f935760405162461bcd60e51b815260206004820152602960248201527f4552433732313a207472616e73666572206f6620746f6b656e2074686174206960448201526839903737ba1037bbb760b91b606482015260840161090c565b6001600160a01b038216612ff55760405162461bcd60e51b8152602060048201526024808201527f4552433732313a207472616e7366657220746f20746865207a65726f206164646044820152637265737360e01b606482015260840161090c565b613000838383613ac3565b61300b600082613a4a565b6001600160a01b0383166000908152609a602052604081208054600192906130349084906154e3565b90915550506001600160a01b0382166000908152609a6020526040812080546001929061306290849061548c565b909155505060008181526099602052604080822080546001600160a01b0319166001600160a01b03868116918217909255915184939187169160008051602061563383398151915291a4505050565b828260006001600160a01b031661019783836040516130d1929190614f5b565b908152604051908190036020019020546001600160a01b031614156131085760405162461bcd60e51b815260040161090c90615180565b84846000610197838360405161311f929190614f5b565b9081526040519081900360200190206007015460ff16600281111561315457634e487b7160e01b600052602160045260246000fd5b146131715760405162461bcd60e51b815260040161090c90615279565b868661019354610197838360405161318a929190614f5b565b90815260200160405180910390206003015410156131ba5760405162461bcd60e51b815260040161090c90615234565b866101978a8a6040516131ce929190614f5b565b90815260200160405180910390206002018190555060016101978a8a6040516131f8929190614f5b565b908152604051908190036020019020600701805460ff1916600183600281111561323257634e487b7160e01b600052602160045260246000fd5b021790555061327689898080601f016020809104026020016040519081016040528093929190818152602001838380828437600092019190915250613af992505050565b6101978989604051613289929190614f5b565b908152604051908190036020019020546001600160a01b03167f5bea5396cded2d11968478f123d99353c403ea9476cb3ef522fc1548d0cd61416132ca3390565b8b8b8b6040516132dd9493929190615081565b60405180910390a2505050505050505050565b6132fa8282611f5f565b6112b357613312816001600160a01b03166014613bfd565b61331d836020613bfd565b60405160200161332e929190614f9c565b60408051601f198184030181529082905262461bcd60e51b825261090c9160040161511b565b61335e8282611f5f565b6112b35760008281526065602090815260408083206001600160a01b03851684529091529020805460ff191660011790556133963390565b6001600160a01b0316816001600160a01b0316837f2f8788117e7eff1d82e926ec794901d17c78024a50270940304540a733656f0d60405160405180910390a45050565b6133e48282611f5f565b156112b35760008281526065602090815260408083206001600160a01b0385168085529252808320805460ff1916905551339285917ff6391f5c32d9c69d2a47ea670b442974b53935d1edc7fd64eb21e047a839171b9190a45050565b60fb5460ff1661348a5760405162461bcd60e51b815260206004820152601460248201527314185d5cd8589b194e881b9bdd081c185d5cd95960621b604482015260640161090c565b60fb805460ff191690557f5db9ee0a495bf2e6ff9c91a7834c1ba4fdd244a5e8aa4e537bd38aeae4b073aa335b6040516134c4919061500b565b60405180910390a1565b60006134d98261171a565b90506134e781600084613ac3565b6134f2600083613a4a565b6001600160a01b0381166000908152609a6020526040812080546001929061351b9084906154e3565b909155505060008281526099602052604080822080546001600160a01b0319169055518391906001600160a01b03841690600080516020615633833981519152908390a45050565b600054610100900460ff168061357c575060005460ff16155b6135985760405162461bcd60e51b815260040161090c906151e6565b600054610100900460ff161580156135ba576000805461ffff19166101011790555b6101918690556101938590556101928490556101948390556101958290556135e360003361185a565b6135fb6000805160206156138339815191523361185a565b801561360d576000805461ff00191690555b505050505050565b600054610100900460ff168061362e575060005460ff16155b61364a5760405162461bcd60e51b815260040161090c906151e6565b600054610100900460ff1615801561366c576000805461ffff19166101011790555b6136768787613dde565b613684878787878787613e73565b8015613696576000805461ff00191690555b50505050505050565b600054610100900460ff16806136b8575060005460ff16155b6136d45760405162461bcd60e51b815260040161090c906151e6565b600054610100900460ff161580156136f6576000805461ffff19166101011790555b6136ff82613f32565b80156112b3576000805461ff00191690555050565b6112b38282613354565b6137366000805160206156138339815191523361069f565b6137525760405162461bcd60e51b815260040161090c9061532e565b61019a80546001600160a01b0319166001600160a01b0392909216919091179055565b61378d6000805160206156138339815191523361069f565b6137a95760405162461bcd60e51b815260040161090c9061532e565b61019680546001600160a01b0319166001600160a01b0392909216919091179055565b8047101561381c5760405162461bcd60e51b815260206004820152601d60248201527f416464726573733a20696e73756666696369656e742062616c616e6365000000604482015260640161090c565b6000826001600160a01b03168260405160006040518083038185875af1925050503d8060008114613869576040519150601f19603f3d011682016040523d82523d6000602084013e61386e565b606091505b5050905080610f9b5760405162461bcd60e51b815260206004820152603a60248201527f416464726573733a20756e61626c6520746f2073656e642076616c75652c20726044820152791958da5c1a595b9d081b585e481a185d99481c995d995c9d195960321b606482015260840161090c565b60fb5460ff16156139285760405162461bcd60e51b815260206004820152601060248201526f14185d5cd8589b194e881c185d5cd95960821b604482015260640161090c565b60fb805460ff191660011790557f62e78cea01bee320cd4e420270b5ea74000d11b0c9f74754ebdbfc544b05a2586134b73390565b613968848484612f18565b61397484848484613fc9565b6121745760405162461bcd60e51b815260040161090c9061512e565b6000826001600160a01b0316846001600160a01b03161480156139c85750826001600160a01b031682602001516001600160a01b0316145b156139d557506000612810565b816040015182606001511015613a1b576127106101945483604001516139fb91906154c4565b613a0591906154a4565b8260400151613a14919061548c565b9050612810565b612710610194548360600151613a3191906154c4565b613a3b91906154a4565b8260600151613a14919061548c565b6000818152609b6020526040902080546001600160a01b0319166001600160a01b0384169081179091558190613a7f8261171a565b6001600160a01b03167f8c5be1e5ebec7d5bd14f71427d1e84f3dd0314c0f7b2291e5b200ac8c7c3b92560405160405180910390a45050565b60006109e4826140d7565b600081815261019c6020526040902060010180546001600160a01b0319166001600160a01b038416179055610f9b8383836140fc565b600061019782604051613b0c9190614f6b565b9081526020016040518091039020600401541115613b29576118de565b600161019782604051613b3c9190614f6b565b9081526040519081900360200190206007015460ff166002811115613b7157634e487b7160e01b600052602160045260246000fd5b14613bc85760405162461bcd60e51b815260206004820152602160248201527f4449524543544f52592f5355424d495353494f4e5f4e4f545f415050524f56456044820152601160fa1b606482015260840161090c565b6000613bd261416e565b90508061019783604051613be69190614f6b565b908152604051908190036020019020600401555050565b60606000613c0c8360026154c4565b613c1790600261548c565b6001600160401b03811115613c3c57634e487b7160e01b600052604160045260246000fd5b6040519080825280601f01601f191660200182016040528015613c66576020820181803683370190505b509050600360fc1b81600081518110613c8f57634e487b7160e01b600052603260045260246000fd5b60200101906001600160f81b031916908160001a905350600f60fb1b81600181518110613ccc57634e487b7160e01b600052603260045260246000fd5b60200101906001600160f81b031916908160001a9053506000613cf08460026154c4565b613cfb90600161548c565b90505b6001811115613d8f576f181899199a1a9b1b9c1cb0b131b232b360811b85600f1660108110613d3d57634e487b7160e01b600052603260045260246000fd5b1a60f81b828281518110613d6157634e487b7160e01b600052603260045260246000fd5b60200101906001600160f81b031916908160001a90535060049490941c93613d8881615526565b9050613cfe565b5083156128105760405162461bcd60e51b815260206004820181905260248201527f537472696e67733a20686578206c656e67746820696e73756666696369656e74604482015260640161090c565b600054610100900460ff1680613df7575060005460ff16155b613e135760405162461bcd60e51b815260040161090c906151e6565b600054610100900460ff16158015613e35576000805461ffff19166101011790555b8251613e4890609790602086019061467c565b508151613e5c90609890602085019061467c565b508015610f9b576000805461ff0019169055505050565b600054610100900460ff1680613e8c575060005460ff16155b613ea85760405162461bcd60e51b815260040161090c906151e6565b600054610100900460ff16158015613eca576000805461ffff19166101011790555b61019880546001600160a01b038088166001600160a01b031992831617909255610199805487841690831617905561019a805486841690831617905561019b8054928516929091169190911790558015613696576000805461ff001916905550505050505050565b600054610100900460ff1680613f4b575060005460ff16155b613f675760405162461bcd60e51b815260040161090c906151e6565b600054610100900460ff16158015613f89576000805461ffff19166101011790555b61019680546001600160a01b0319166001600160a01b038416179055613fb1600061185a3390565b6136ff6000805160206156138339815191523361185a565b60006001600160a01b0384163b156140cb57604051630a85bd0160e11b81526001600160a01b0385169063150b7a029061400d90339089908890889060040161501f565b602060405180830381600087803b15801561402757600080fd5b505af1925050508015614057575060408051601f3d908101601f1916820190925261405491810190614c26565b60015b6140b1573d808015614085576040519150601f19603f3d011682016040523d82523d6000602084013e61408a565b606091505b5080516140a95760405162461bcd60e51b815260040161090c9061512e565b805181602001fd5b6001600160e01b031916630a85bd0160e11b1490506140cf565b5060015b949350505050565b60006001600160e01b0319821663780e9d6360e01b14806109e457506109e4826141e0565b614107838383614220565b60fb5460ff1615610f9b5760405162461bcd60e51b815260206004820152602b60248201527f4552433732315061757361626c653a20746f6b656e207472616e73666572207760448201526a1a1a5b19481c185d5cd95960aa1b606482015260840161090c565b600061417f61019d80546001019055565b600061418b61019d5490565b6101998054600083815261019c602052604081206001810180546001600160a01b0319166001600160a01b03948516179055848155600281018290556003015590549192506141db9116826142dd565b905090565b60006001600160e01b031982166380ac58cd60e01b148061421157506001600160e01b03198216635b5e139f60e01b145b806109e457506109e482614409565b6001600160a01b03831661427b576142768160cb8054600083815260cc60205260408120829055600182018355919091527fa7ce836d032b2bf62b7e2097a8e0a6d8aeb35405ad15271e96d3b0188a1d06fb0155565b61429e565b816001600160a01b0316836001600160a01b03161461429e5761429e838261443e565b6001600160a01b0382166142ba576142b5816144db565b610f9b565b826001600160a01b0316826001600160a01b031614610f9b57610f9b82826145b4565b6001600160a01b0382166143335760405162461bcd60e51b815260206004820181905260248201527f4552433732313a206d696e7420746f20746865207a65726f2061646472657373604482015260640161090c565b61433c816128a8565b156143885760405162461bcd60e51b815260206004820152601c60248201527b115490cdcc8c4e881d1bdad95b88185b1c9958591e481b5a5b9d195960221b604482015260640161090c565b61439460008383613ac3565b6001600160a01b0382166000908152609a602052604081208054600192906143bd90849061548c565b909155505060008181526099602052604080822080546001600160a01b0319166001600160a01b0386169081179091559051839290600080516020615633833981519152908290a45050565b60006001600160e01b03198216637965db0b60e01b14806109e457506301ffc9a760e01b6001600160e01b03198316146109e4565b6000600161444b846118e1565b61445591906154e3565b600083815260ca60205260409020549091508082146144a8576001600160a01b038416600090815260c960209081526040808320858452825280832054848452818420819055835260ca90915290208190555b50600091825260ca602090815260408084208490556001600160a01b03909416835260c981528383209183525290812055565b60cb546000906144ed906001906154e3565b600083815260cc602052604081205460cb805493945090928490811061452357634e487b7160e01b600052603260045260246000fd5b906000526020600020015490508060cb838154811061455257634e487b7160e01b600052603260045260246000fd5b600091825260208083209091019290925582815260cc909152604080822084905585825281205560cb80548061459857634e487b7160e01b600052603160045260246000fd5b6001900381819060005260206000200160009055905550505050565b60006145bf836118e1565b6001600160a01b03909316600090815260c960209081526040808320868452825280832085905593825260ca9052919091209190915550565b8280546146049061553d565b90600052602060002090601f016020900481019282614626576000855561466c565b82601f1061463f5782800160ff1982351617855561466c565b8280016001018555821561466c579182015b8281111561466c578235825591602001919060010190614651565b5061467892915061475c565b5090565b8280546146889061553d565b90600052602060002090601f0160209004810192826146aa576000855561466c565b82601f106146c357805160ff191683800117855561466c565b8280016001018555821561466c579182015b8281111561466c5782518255916020019190600101906146d5565b60405180610100016040528060006001600160a01b031681526020016000815260200160008152602001600081526020016000815260200160008152602001600081526020016000600281111561475757634e487b7160e01b600052602160045260246000fd5b905290565b5b80821115614678576000815560010161475d565b60006001600160401b038084111561478b5761478b6155a3565b604051601f8501601f19908116603f011681019082821181831017156147b3576147b36155a3565b816040528093508581528686860111156147cc57600080fd5b858560208301376000602087830101525050509392505050565b80356109e7816155b9565b60008083601f840112614802578182fd5b5081356001600160401b03811115614818578182fd5b6020830191508360208260051b850101111561483357600080fd5b9250929050565b60008083601f84011261484b578182fd5b5081356001600160401b03811115614861578182fd5b60208301915083602082850101111561483357600080fd5b600082601f830112614889578081fd5b61281083833560208501614771565b6000602082840312156148a9578081fd5b8135612810816155b9565b600080604083850312156148c6578081fd5b82356148d1816155b9565b915060208301356148e1816155b9565b809150509250929050565b600080600060608486031215614900578081fd5b833561490b816155b9565b9250602084013561491b816155b9565b929592945050506040919091013590565b60008060008060808587031215614941578081fd5b843561494c816155b9565b9350602085013561495c816155b9565b92506040850135915060608501356001600160401b0381111561497d578182fd5b8501601f8101871361498d578182fd5b61499c87823560208401614771565b91505092959194509250565b600080604083850312156149ba578182fd5b82356149c5816155b9565b915060208301356148e1816155ce565b600080604083850312156149e7578182fd5b82356149f2816155b9565b946020939093013593505050565b60008060008060608587031215614a15578384fd5b8435614a20816155b9565b93506020850135925060408501356001600160401b03811115614a41578283fd5b614a4d8782880161483a565b95989497509550505050565b60008060008060408587031215614a6e578384fd5b84356001600160401b0380821115614a84578586fd5b614a90888389016147f1565b90965094506020870135915080821115614aa8578384fd5b50614a4d878288016147f1565b6000806000806000806000806080898b031215614ad0578586fd5b88356001600160401b0380821115614ae6578788fd5b614af28c838d016147f1565b909a50985060208b0135915080821115614b0a578788fd5b614b168c838d016147f1565b909850965060408b0135915080821115614b2e578586fd5b614b3a8c838d016147f1565b909650945060608b0135915080821115614b52578384fd5b50614b5f8b828c016147f1565b999c989b5096995094979396929594505050565b60008060208385031215614b85578182fd5b82356001600160401b03811115614b9a578283fd5b614ba6858286016147f1565b90969095509350505050565b600060208284031215614bc3578081fd5b8151612810816155ce565b600060208284031215614bdf578081fd5b5035919050565b60008060408385031215614bf8578182fd5b8235915060208301356148e1816155b9565b600060208284031215614c1b578081fd5b8135612810816155dc565b600060208284031215614c37578081fd5b8151612810816155dc565b60008060208385031215614c54578182fd5b82356001600160401b03811115614c69578283fd5b614ba68582860161483a565b600080600060408486031215614c89578081fd5b83356001600160401b03811115614c9e578182fd5b614caa8682870161483a565b909790965060209590950135949350505050565b60008060008060608587031215614cd3578182fd5b84356001600160401b03811115614ce8578283fd5b614cf48782880161483a565b90989097506020870135966040013595509350505050565b6000806000806000806000806000806000806101808d8f031215614d2e578586fd5b6001600160401b038d351115614d42578586fd5b614d4f8e8e358f01614879565b9b506001600160401b0360208e01351115614d68578586fd5b614d788e60208f01358f01614879565b9a506001600160401b0360408e01351115614d91578586fd5b614da18e60408f01358f01614879565b9950614daf60608e016147e6565b9850614dbd60808e016147e6565b9750614dcb60a08e016147e6565b9650614dd960c08e016147e6565b955060e08d013594506101008d013593506101208d013592506101408d013591506101608d013590509295989b509295989b509295989b565b600080600080600060808688031215614e29578283fd5b8535945060208601356001600160401b03811115614e45578384fd5b614e518882890161483a565b9699909850959660408101359660609091013595509350505050565b60008151808452614e858160208601602086016154fa565b601f01601f19169290920160200192915050565b60008284528282602086013780602084860101526020601f19601f85011685010190509392505050565b8054600090600181811c9080831680614edd57607f831692505b6020808410821415614efd57634e487b7160e01b86526022600452602486fd5b818015614f115760018114614f2257614f4f565b60ff19861689528489019650614f4f565b60008881526020902060005b86811015614f475781548b820152908501908301614f2e565b505084890196505b50505050505092915050565b6000828483379101908152919050565b60008251614f7d8184602087016154fa565b9190910192915050565b60006140cf614f968386614ec3565b84614ec3565b600076020b1b1b2b9b9a1b7b73a3937b61d1030b1b1b7bab73a1604d1b82528351614fce8160178501602088016154fa565b7001034b99036b4b9b9b4b733903937b6329607d1b6017918401918201528351614fff8160288401602088016154fa565b01602801949350505050565b6001600160a01b0391909116815260200190565b6001600160a01b038581168252841660208201526040810183905260806060820181905260009061505290830184614e6d565b9695505050505050565b6001600160a01b0384168152604060208201819052600090612f0f9083018486614e99565b6001600160a01b03851681526060602082018190526000906150a69083018587614e99565b905082604083015295945050505050565b6001600160a01b03929092168252602082015260400190565b6000604082526150e4604083018587614e99565b9050826020830152949350505050565b600060608252615108606083018688614e99565b6020830194909452506040015292915050565b6000602082526128106020830184614e6d565b60208082526032908201527f4552433732313a207472616e7366657220746f206e6f6e20455243373231526560408201527131b2b4bb32b91034b6b83632b6b2b73a32b960711b606082015260800190565b6020808252601a908201527914d550935254d4d253d394cbd113d154d7d393d517d1561254d560321b604082015260600190565b60208082526018908201527714d550935254d4d253d394cbd393d517d054141493d5915160421b604082015260600190565b6020808252602e908201527f496e697469616c697a61626c653a20636f6e747261637420697320616c72656160408201526d191e481a5b9a5d1a585b1a5e995960921b606082015260800190565b60208082526025908201527f5355424d495353494f4e532f4f555444415445445f4d455441444154415f56456040820152642929a4a7a760d91b606082015260800190565b6020808252601790820152765355424d495353494f4e532f4e4f545f50454e44494e4760481b604082015260600190565b60208082526031908201527f4552433732313a207472616e736665722063616c6c6572206973206e6f74206f6040820152701ddb995c881b9bdc88185c1c1c9bdd9959607a1b606082015260800190565b60208082526019908201527815539254555155151154cbd113d154d7d393d517d1561254d5603a1b604082015260600190565b6020808252601a908201527921a7a6a6a7a717a1a0a62622a92fa727aa2fa3a7ab22a92727a960311b604082015260600190565b6020808252601f908201527f5265656e7472616e637947756172643a207265656e7472616e742063616c6c00604082015260600190565b60006101008201905060018060a01b0383511682526020830151602083015260408301516040830152606083015160608301526080830151608083015260a083015160a083015260c083015160c083015260e08301516003811061540d57634e487b7160e01b600052602160045260246000fd5b8060e08401525092915050565b600086825260806020830152615434608083018688614e99565b604083019490945250606001529392505050565b6000808335601e1984360301811261545e578283fd5b8301803591506001600160401b03821115615477578283fd5b60200191503681900382131561483357600080fd5b6000821982111561549f5761549f61558d565b500190565b6000826154bf57634e487b7160e01b81526012600452602481fd5b500490565b60008160001904831182151516156154de576154de61558d565b500290565b6000828210156154f5576154f561558d565b500390565b60005b838110156155155781810151838201526020016154fd565b838111156121745750506000910152565b6000816155355761553561558d565b506000190190565b600181811c9082168061555157607f821691505b60208210811415610f2a57634e487b7160e01b600052602260045260246000fd5b60006000198214156155865761558661558d565b5060010190565b634e487b7160e01b600052601160045260246000fd5b634e487b7160e01b600052604160045260246000fd5b6001600160a01b03811681146118de57600080fd5b80151581146118de57600080fd5b6001600160e01b0319811681146118de57600080fdfe0a7607b0b6665c6192e995edd0c765abfbeeb267a2ea3248d0b9125c3c1f42087935bd0ae54bc31f548c14dba4d37c5c64b3f8ca900cb468fb8abd54d5894f55ddf252ad1be2c89b69c2b068fc378daa952ba7f163c4a11628f55a4df523b3ef5375626d697373696f6e733a206e756d626572206f662068617368657320646fa264697066735822122087021c0f451043804dbde105f87bbcb0db5b0f056501766136cf88f5c020121f64736f6c63430008030033",
  "devdoc": {
    "kind": "dev",
    "methods": {
      "approve(address,uint256)": {
        "details": "See {IERC721-approve}."
      },
      "balanceOf(address)": {
        "details": "See {IERC721-balanceOf}."
      },
      "getApproved(uint256)": {
        "details": "See {IERC721-getApproved}."
      },
      "getRoleAdmin(bytes32)": {
        "details": "Returns the admin role that controls `role`. See {grantRole} and {revokeRole}. To change a role's admin, use {_setRoleAdmin}."
      },
      "grantRole(bytes32,address)": {
        "details": "Grants `role` to `account`. If `account` had not been already granted `role`, emits a {RoleGranted} event. Requirements: - the caller must have ``role``'s admin role."
      },
      "hasRole(bytes32,address)": {
        "details": "Returns `true` if `account` has been granted `role`."
      },
      "name()": {
        "details": "See {IERC721Metadata-name}."
      },
      "ownerOf(uint256)": {
        "details": "See {IERC721-ownerOf}."
      },
      "paused()": {
        "details": "Returns true if the contract is paused, and false otherwise."
      },
      "renounceRole(bytes32,address)": {
        "details": "Revokes `role` from the calling account. Roles are often managed via {grantRole} and {revokeRole}: this function's purpose is to provide a mechanism for accounts to lose their privileges if they are compromised (such as when a trusted device is misplaced). If the calling account had been granted `role`, emits a {RoleRevoked} event. Requirements: - the caller must be `account`."
      },
      "revokeRole(bytes32,address)": {
        "details": "Revokes `role` from `account`. If `account` had been granted `role`, emits a {RoleRevoked} event. Requirements: - the caller must have ``role``'s admin role."
      },
      "safeTransferFrom(address,address,uint256)": {
        "details": "See {IERC721-safeTransferFrom}."
      },
      "safeTransferFrom(address,address,uint256,bytes)": {
        "details": "See {IERC721-safeTransferFrom}."
      },
      "setApprovalForAll(address,bool)": {
        "details": "See {IERC721-setApprovalForAll}."
      },
      "symbol()": {
        "details": "See {IERC721Metadata-symbol}."
      },
      "tokenByIndex(uint256)": {
        "details": "See {IERC721Enumerable-tokenByIndex}."
      },
      "tokenOfOwnerByIndex(address,uint256)": {
        "details": "See {IERC721Enumerable-tokenOfOwnerByIndex}."
      },
      "tokenURI(uint256)": {
        "details": "See {IERC721Metadata-tokenURI}."
      },
      "totalSupply()": {
        "details": "See {IERC721Enumerable-totalSupply}."
      },
      "transferFrom(address,address,uint256)": {
        "details": "See {IERC721-transferFrom}."
      }
    },
    "version": 1
  },
  "userdoc": {
    "kind": "user",
    "methods": {},
    "version": 1
  },
  "storageLayout": {
    "storage": [
      {
        "astId": 622,
        "contract": "contracts/Directory.sol:Directory",
        "label": "_initialized",
        "offset": 0,
        "slot": "0",
        "type": "t_bool"
      },
      {
        "astId": 625,
        "contract": "contracts/Directory.sol:Directory",
        "label": "_initializing",
        "offset": 1,
        "slot": "0",
        "type": "t_bool"
      },
      {
        "astId": 4046,
        "contract": "contracts/Directory.sol:Directory",
        "label": "__gap",
        "offset": 0,
        "slot": "1",
        "type": "t_array(t_uint256)50_storage"
      },
      {
        "astId": 4649,
        "contract": "contracts/Directory.sol:Directory",
        "label": "__gap",
        "offset": 0,
        "slot": "51",
        "type": "t_array(t_uint256)50_storage"
      },
      {
        "astId": 307,
        "contract": "contracts/Directory.sol:Directory",
        "label": "_roles",
        "offset": 0,
        "slot": "101",
        "type": "t_mapping(t_bytes32,t_struct(RoleData)302_storage)"
      },
      {
        "astId": 615,
        "contract": "contracts/Directory.sol:Directory",
        "label": "__gap",
        "offset": 0,
        "slot": "102",
        "type": "t_array(t_uint256)49_storage"
      },
      {
        "astId": 2228,
        "contract": "contracts/Directory.sol:Directory",
        "label": "_name",
        "offset": 0,
        "slot": "151",
        "type": "t_string_storage"
      },
      {
        "astId": 2230,
        "contract": "contracts/Directory.sol:Directory",
        "label": "_symbol",
        "offset": 0,
        "slot": "152",
        "type": "t_string_storage"
      },
      {
        "astId": 2234,
        "contract": "contracts/Directory.sol:Directory",
        "label": "_owners",
        "offset": 0,
        "slot": "153",
        "type": "t_mapping(t_uint256,t_address)"
      },
      {
        "astId": 2238,
        "contract": "contracts/Directory.sol:Directory",
        "label": "_balances",
        "offset": 0,
        "slot": "154",
        "type": "t_mapping(t_address,t_uint256)"
      },
      {
        "astId": 2242,
        "contract": "contracts/Directory.sol:Directory",
        "label": "_tokenApprovals",
        "offset": 0,
        "slot": "155",
        "type": "t_mapping(t_uint256,t_address)"
      },
      {
        "astId": 2248,
        "contract": "contracts/Directory.sol:Directory",
        "label": "_operatorApprovals",
        "offset": 0,
        "slot": "156",
        "type": "t_mapping(t_address,t_mapping(t_address,t_bool))"
      },
      {
        "astId": 3046,
        "contract": "contracts/Directory.sol:Directory",
        "label": "__gap",
        "offset": 0,
        "slot": "157",
        "type": "t_array(t_uint256)44_storage"
      },
      {
        "astId": 3220,
        "contract": "contracts/Directory.sol:Directory",
        "label": "_ownedTokens",
        "offset": 0,
        "slot": "201",
        "type": "t_mapping(t_address,t_mapping(t_uint256,t_uint256))"
      },
      {
        "astId": 3224,
        "contract": "contracts/Directory.sol:Directory",
        "label": "_ownedTokensIndex",
        "offset": 0,
        "slot": "202",
        "type": "t_mapping(t_uint256,t_uint256)"
      },
      {
        "astId": 3227,
        "contract": "contracts/Directory.sol:Directory",
        "label": "_allTokens",
        "offset": 0,
        "slot": "203",
        "type": "t_array(t_uint256)dyn_storage"
      },
      {
        "astId": 3231,
        "contract": "contracts/Directory.sol:Directory",
        "label": "_allTokensIndex",
        "offset": 0,
        "slot": "204",
        "type": "t_mapping(t_uint256,t_uint256)"
      },
      {
        "astId": 3546,
        "contract": "contracts/Directory.sol:Directory",
        "label": "__gap",
        "offset": 0,
        "slot": "205",
        "type": "t_array(t_uint256)46_storage"
      },
      {
        "astId": 683,
        "contract": "contracts/Directory.sol:Directory",
        "label": "_paused",
        "offset": 0,
        "slot": "251",
        "type": "t_bool"
      },
      {
        "astId": 774,
        "contract": "contracts/Directory.sol:Directory",
        "label": "__gap",
        "offset": 0,
        "slot": "252",
        "type": "t_array(t_uint256)49_storage"
      },
      {
        "astId": 3614,
        "contract": "contracts/Directory.sol:Directory",
        "label": "__gap",
        "offset": 0,
        "slot": "301",
        "type": "t_array(t_uint256)50_storage"
      },
      {
        "astId": 789,
        "contract": "contracts/Directory.sol:Directory",
        "label": "_status",
        "offset": 0,
        "slot": "351",
        "type": "t_uint256"
      },
      {
        "astId": 832,
        "contract": "contracts/Directory.sol:Directory",
        "label": "__gap",
        "offset": 0,
        "slot": "352",
        "type": "t_array(t_uint256)49_storage"
      },
      {
        "astId": 5662,
        "contract": "contracts/Directory.sol:Directory",
        "label": "_protocolFee",
        "offset": 0,
        "slot": "401",
        "type": "t_uint256"
      },
      {
        "astId": 5664,
        "contract": "contracts/Directory.sol:Directory",
        "label": "_currentMetadataVersion",
        "offset": 0,
        "slot": "402",
        "type": "t_uint256"
      },
      {
        "astId": 5666,
        "contract": "contracts/Directory.sol:Directory",
        "label": "_minMetadataVersion",
        "offset": 0,
        "slot": "403",
        "type": "t_uint256"
      },
      {
        "astId": 5668,
        "contract": "contracts/Directory.sol:Directory",
        "label": "_maxPriceAppreciation",
        "offset": 0,
        "slot": "404",
        "type": "t_uint256"
      },
      {
        "astId": 5670,
        "contract": "contracts/Directory.sol:Directory",
        "label": "_submissionDeposit",
        "offset": 0,
        "slot": "405",
        "type": "t_uint256"
      },
      {
        "astId": 6404,
        "contract": "contracts/Directory.sol:Directory",
        "label": "_treasury",
        "offset": 0,
        "slot": "406",
        "type": "t_contract(Treasury)7328"
      },
      {
        "astId": 6409,
        "contract": "contracts/Directory.sol:Directory",
        "label": "_submissions",
        "offset": 0,
        "slot": "407",
        "type": "t_mapping(t_string_memory_ptr,t_struct(Submission)6363_storage)"
      },
      {
        "astId": 7428,
        "contract": "contracts/Directory.sol:Directory",
        "label": "_token",
        "offset": 0,
        "slot": "408",
        "type": "t_contract(Token)7127"
      },
      {
        "astId": 7431,
        "contract": "contracts/Directory.sol:Directory",
        "label": "_vault",
        "offset": 0,
        "slot": "409",
        "type": "t_contract(Vault)8399"
      },
      {
        "astId": 7434,
        "contract": "contracts/Directory.sol:Directory",
        "label": "_treasury",
        "offset": 0,
        "slot": "410",
        "type": "t_contract(Treasury)7328"
      },
      {
        "astId": 7437,
        "contract": "contracts/Directory.sol:Directory",
        "label": "_marketer",
        "offset": 0,
        "slot": "411",
        "type": "t_contract(Marketer)6289"
      },
      {
        "astId": 7442,
        "contract": "contracts/Directory.sol:Directory",
        "label": "_uniquettes",
        "offset": 0,
        "slot": "412",
        "type": "t_mapping(t_uint256,t_struct(Uniquette)7379_storage)"
      },
      {
        "astId": 7445,
        "contract": "contracts/Directory.sol:Directory",
        "label": "_tokenIdTracker",
        "offset": 0,
        "slot": "413",
        "type": "t_struct(Counter)4053_storage"
      },
      {
        "astId": 5874,
        "contract": "contracts/Directory.sol:Directory",
        "label": "_fundedSubmissionHashByUniquetteTokenId",
        "offset": 0,
        "slot": "414",
        "type": "t_mapping(t_uint256,t_string_storage)"
      },
      {
        "astId": 5877,
        "contract": "contracts/Directory.sol:Directory",
        "label": "_token",
        "offset": 0,
        "slot": "415",
        "type": "t_contract(Token)7127"
      },
      {
        "astId": 5880,
        "contract": "contracts/Directory.sol:Directory",
        "label": "_vault",
        "offset": 0,
        "slot": "416",
        "type": "t_contract(Vault)8399"
      },
      {
        "astId": 5882,
        "contract": "contracts/Directory.sol:Directory",
        "label": "_tokensBaseURI",
        "offset": 0,
        "slot": "417",
        "type": "t_string_storage"
      }
    ],
    "types": {
      "t_address": {
        "encoding": "inplace",
        "label": "address",
        "numberOfBytes": "20"
      },
      "t_array(t_uint256)44_storage": {
        "base": "t_uint256",
        "encoding": "inplace",
        "label": "uint256[44]",
        "numberOfBytes": "1408"
      },
      "t_array(t_uint256)46_storage": {
        "base": "t_uint256",
        "encoding": "inplace",
        "label": "uint256[46]",
        "numberOfBytes": "1472"
      },
      "t_array(t_uint256)49_storage": {
        "base": "t_uint256",
        "encoding": "inplace",
        "label": "uint256[49]",
        "numberOfBytes": "1568"
      },
      "t_array(t_uint256)50_storage": {
        "base": "t_uint256",
        "encoding": "inplace",
        "label": "uint256[50]",
        "numberOfBytes": "1600"
      },
      "t_array(t_uint256)dyn_storage": {
        "base": "t_uint256",
        "encoding": "dynamic_array",
        "label": "uint256[]",
        "numberOfBytes": "32"
      },
      "t_bool": {
        "encoding": "inplace",
        "label": "bool",
        "numberOfBytes": "1"
      },
      "t_bytes32": {
        "encoding": "inplace",
        "label": "bytes32",
        "numberOfBytes": "32"
      },
      "t_contract(Marketer)6289": {
        "encoding": "inplace",
        "label": "contract Marketer",
        "numberOfBytes": "20"
      },
      "t_contract(Token)7127": {
        "encoding": "inplace",
        "label": "contract Token",
        "numberOfBytes": "20"
      },
      "t_contract(Treasury)7328": {
        "encoding": "inplace",
        "label": "contract Treasury",
        "numberOfBytes": "20"
      },
      "t_contract(Vault)8399": {
        "encoding": "inplace",
        "label": "contract Vault",
        "numberOfBytes": "20"
      },
      "t_enum(SubmissionStatus)6345": {
        "encoding": "inplace",
        "label": "enum Submissions.SubmissionStatus",
        "numberOfBytes": "1"
      },
      "t_mapping(t_address,t_bool)": {
        "encoding": "mapping",
        "key": "t_address",
        "label": "mapping(address => bool)",
        "numberOfBytes": "32",
        "value": "t_bool"
      },
      "t_mapping(t_address,t_mapping(t_address,t_bool))": {
        "encoding": "mapping",
        "key": "t_address",
        "label": "mapping(address => mapping(address => bool))",
        "numberOfBytes": "32",
        "value": "t_mapping(t_address,t_bool)"
      },
      "t_mapping(t_address,t_mapping(t_uint256,t_uint256))": {
        "encoding": "mapping",
        "key": "t_address",
        "label": "mapping(address => mapping(uint256 => uint256))",
        "numberOfBytes": "32",
        "value": "t_mapping(t_uint256,t_uint256)"
      },
      "t_mapping(t_address,t_uint256)": {
        "encoding": "mapping",
        "key": "t_address",
        "label": "mapping(address => uint256)",
        "numberOfBytes": "32",
        "value": "t_uint256"
      },
      "t_mapping(t_bytes32,t_struct(RoleData)302_storage)": {
        "encoding": "mapping",
        "key": "t_bytes32",
        "label": "mapping(bytes32 => struct AccessControlUpgradeable.RoleData)",
        "numberOfBytes": "32",
        "value": "t_struct(RoleData)302_storage"
      },
      "t_mapping(t_string_memory_ptr,t_struct(Submission)6363_storage)": {
        "encoding": "mapping",
        "key": "t_string_memory_ptr",
        "label": "mapping(string => struct Submissions.Submission)",
        "numberOfBytes": "32",
        "value": "t_struct(Submission)6363_storage"
      },
      "t_mapping(t_uint256,t_address)": {
        "encoding": "mapping",
        "key": "t_uint256",
        "label": "mapping(uint256 => address)",
        "numberOfBytes": "32",
        "value": "t_address"
      },
      "t_mapping(t_uint256,t_string_storage)": {
        "encoding": "mapping",
        "key": "t_uint256",
        "label": "mapping(uint256 => string)",
        "numberOfBytes": "32",
        "value": "t_string_storage"
      },
      "t_mapping(t_uint256,t_struct(Uniquette)7379_storage)": {
        "encoding": "mapping",
        "key": "t_uint256",
        "label": "mapping(uint256 => struct Uniquettes.Uniquette)",
        "numberOfBytes": "32",
        "value": "t_struct(Uniquette)7379_storage"
      },
      "t_mapping(t_uint256,t_uint256)": {
        "encoding": "mapping",
        "key": "t_uint256",
        "label": "mapping(uint256 => uint256)",
        "numberOfBytes": "32",
        "value": "t_uint256"
      },
      "t_string_memory_ptr": {
        "encoding": "bytes",
        "label": "string",
        "numberOfBytes": "32"
      },
      "t_string_storage": {
        "encoding": "bytes",
        "label": "string",
        "numberOfBytes": "32"
      },
      "t_struct(Counter)4053_storage": {
        "encoding": "inplace",
        "label": "struct CountersUpgradeable.Counter",
        "members": [
          {
            "astId": 4052,
            "contract": "contracts/Directory.sol:Directory",
            "label": "_value",
            "offset": 0,
            "slot": "0",
            "type": "t_uint256"
          }
        ],
        "numberOfBytes": "32"
      },
      "t_struct(RoleData)302_storage": {
        "encoding": "inplace",
        "label": "struct AccessControlUpgradeable.RoleData",
        "members": [
          {
            "astId": 299,
            "contract": "contracts/Directory.sol:Directory",
            "label": "members",
            "offset": 0,
            "slot": "0",
            "type": "t_mapping(t_address,t_bool)"
          },
          {
            "astId": 301,
            "contract": "contracts/Directory.sol:Directory",
            "label": "adminRole",
            "offset": 0,
            "slot": "1",
            "type": "t_bytes32"
          }
        ],
        "numberOfBytes": "64"
      },
      "t_struct(Submission)6363_storage": {
        "encoding": "inplace",
        "label": "struct Submissions.Submission",
        "members": [
          {
            "astId": 6347,
            "contract": "contracts/Directory.sol:Directory",
            "label": "author",
            "offset": 0,
            "slot": "0",
            "type": "t_address"
          },
          {
            "astId": 6349,
            "contract": "contracts/Directory.sol:Directory",
            "label": "addedValue",
            "offset": 0,
            "slot": "1",
            "type": "t_uint256"
          },
          {
            "astId": 6351,
            "contract": "contracts/Directory.sol:Directory",
            "label": "reward",
            "offset": 0,
            "slot": "2",
            "type": "t_uint256"
          },
          {
            "astId": 6353,
            "contract": "contracts/Directory.sol:Directory",
            "label": "metadataVersion",
            "offset": 0,
            "slot": "3",
            "type": "t_uint256"
          },
          {
            "astId": 6355,
            "contract": "contracts/Directory.sol:Directory",
            "label": "tokenId",
            "offset": 0,
            "slot": "4",
            "type": "t_uint256"
          },
          {
            "astId": 6357,
            "contract": "contracts/Directory.sol:Directory",
            "label": "parentHash",
            "offset": 0,
            "slot": "5",
            "type": "t_uint256"
          },
          {
            "astId": 6359,
            "contract": "contracts/Directory.sol:Directory",
            "label": "deposit",
            "offset": 0,
            "slot": "6",
            "type": "t_uint256"
          },
          {
            "astId": 6362,
            "contract": "contracts/Directory.sol:Directory",
            "label": "status",
            "offset": 0,
            "slot": "7",
            "type": "t_enum(SubmissionStatus)6345"
          }
        ],
        "numberOfBytes": "256"
      },
      "t_struct(Uniquette)7379_storage": {
        "encoding": "inplace",
        "label": "struct Uniquettes.Uniquette",
        "members": [
          {
            "astId": 7372,
            "contract": "contracts/Directory.sol:Directory",
            "label": "tokenId",
            "offset": 0,
            "slot": "0",
            "type": "t_uint256"
          },
          {
            "astId": 7374,
            "contract": "contracts/Directory.sol:Directory",
            "label": "owner",
            "offset": 0,
            "slot": "1",
            "type": "t_address"
          },
          {
            "astId": 7376,
            "contract": "contracts/Directory.sol:Directory",
            "label": "collateralValue",
            "offset": 0,
            "slot": "2",
            "type": "t_uint256"
          },
          {
            "astId": 7378,
            "contract": "contracts/Directory.sol:Directory",
            "label": "lastPurchaseAmount",
            "offset": 0,
            "slot": "3",
            "type": "t_uint256"
          }
        ],
        "numberOfBytes": "128"
      },
      "t_uint256": {
        "encoding": "inplace",
        "label": "uint256",
        "numberOfBytes": "32"
      }
    }
  }
}