{
  "address": "0xd483B589Ab1BD195cFdaa3B5ceFc144002b79c92",
  "abi": [
    {
      "anonymous": false,
      "inputs": [
        {
          "indexed": true,
          "internalType": "address",
          "name": "owner",
          "type": "address"
        },
        {
          "indexed": true,
          "internalType": "address",
          "name": "approved",
          "type": "address"
        },
        {
          "indexed": true,
          "internalType": "uint256",
          "name": "tokenId",
          "type": "uint256"
        }
      ],
      "name": "Approval",
      "type": "event"
    },
    {
      "anonymous": false,
      "inputs": [
        {
          "indexed": true,
          "internalType": "address",
          "name": "owner",
          "type": "address"
        },
        {
          "indexed": true,
          "internalType": "address",
          "name": "operator",
          "type": "address"
        },
        {
          "indexed": false,
          "internalType": "bool",
          "name": "approved",
          "type": "bool"
        }
      ],
      "name": "ApprovalForAll",
      "type": "event"
    },
    {
      "anonymous": false,
      "inputs": [
        {
          "indexed": false,
          "internalType": "address",
          "name": "account",
          "type": "address"
        }
      ],
      "name": "Paused",
      "type": "event"
    },
    {
      "anonymous": false,
      "inputs": [
        {
          "indexed": true,
          "internalType": "address",
          "name": "operator",
          "type": "address"
        },
        {
          "indexed": false,
          "internalType": "address",
          "name": "seller",
          "type": "address"
        },
        {
          "indexed": true,
          "internalType": "address",
          "name": "buyer",
          "type": "address"
        },
        {
          "indexed": true,
          "internalType": "uint256",
          "name": "tokenId",
          "type": "uint256"
        },
        {
          "indexed": false,
          "internalType": "uint256",
          "name": "feePaid",
          "type": "uint256"
        }
      ],
      "name": "ProtocolFeePaid",
      "type": "event"
    },
    {
      "anonymous": false,
      "inputs": [
        {
          "indexed": true,
          "internalType": "bytes32",
          "name": "role",
          "type": "bytes32"
        },
        {
          "indexed": true,
          "internalType": "bytes32",
          "name": "previousAdminRole",
          "type": "bytes32"
        },
        {
          "indexed": true,
          "internalType": "bytes32",
          "name": "newAdminRole",
          "type": "bytes32"
        }
      ],
      "name": "RoleAdminChanged",
      "type": "event"
    },
    {
      "anonymous": false,
      "inputs": [
        {
          "indexed": true,
          "internalType": "bytes32",
          "name": "role",
          "type": "bytes32"
        },
        {
          "indexed": true,
          "internalType": "address",
          "name": "account",
          "type": "address"
        },
        {
          "indexed": true,
          "internalType": "address",
          "name": "sender",
          "type": "address"
        }
      ],
      "name": "RoleGranted",
      "type": "event"
    },
    {
      "anonymous": false,
      "inputs": [
        {
          "indexed": true,
          "internalType": "bytes32",
          "name": "role",
          "type": "bytes32"
        },
        {
          "indexed": true,
          "internalType": "address",
          "name": "account",
          "type": "address"
        },
        {
          "indexed": true,
          "internalType": "address",
          "name": "sender",
          "type": "address"
        }
      ],
      "name": "RoleRevoked",
      "type": "event"
    },
    {
      "anonymous": false,
      "inputs": [
        {
          "indexed": true,
          "internalType": "address",
          "name": "from",
          "type": "address"
        },
        {
          "indexed": true,
          "internalType": "address",
          "name": "to",
          "type": "address"
        },
        {
          "indexed": true,
          "internalType": "uint256",
          "name": "tokenId",
          "type": "uint256"
        }
      ],
      "name": "Transfer",
      "type": "event"
    },
    {
      "anonymous": false,
      "inputs": [
        {
          "indexed": false,
          "internalType": "address",
          "name": "approver",
          "type": "address"
        },
        {
          "indexed": true,
          "internalType": "address",
          "name": "submitter",
          "type": "address"
        },
        {
          "indexed": false,
          "internalType": "string",
          "name": "hash",
          "type": "string"
        },
        {
          "indexed": true,
          "internalType": "uint256",
          "name": "tokenId",
          "type": "uint256"
        }
      ],
      "name": "UniquetteApproved",
      "type": "event"
    },
    {
      "anonymous": false,
      "inputs": [
        {
          "indexed": false,
          "internalType": "address",
          "name": "operator",
          "type": "address"
        },
        {
          "indexed": true,
          "internalType": "address",
          "name": "seller",
          "type": "address"
        },
        {
          "indexed": true,
          "internalType": "address",
          "name": "buyer",
          "type": "address"
        },
        {
          "indexed": true,
          "internalType": "uint256",
          "name": "tokenId",
          "type": "uint256"
        }
      ],
      "name": "UniquetteBought",
      "type": "event"
    },
    {
      "anonymous": false,
      "inputs": [
        {
          "indexed": true,
          "internalType": "address",
          "name": "operator",
          "type": "address"
        },
        {
          "indexed": true,
          "internalType": "address",
          "name": "owner",
          "type": "address"
        },
        {
          "indexed": true,
          "internalType": "uint256",
          "name": "tokenId",
          "type": "uint256"
        },
        {
          "indexed": false,
          "internalType": "uint256",
          "name": "additionalCollateral",
          "type": "uint256"
        }
      ],
      "name": "UniquetteCollateralIncreased",
      "type": "event"
    },
    {
      "anonymous": false,
      "inputs": [
        {
          "indexed": true,
          "internalType": "address",
          "name": "operator",
          "type": "address"
        },
        {
          "indexed": true,
          "internalType": "address",
          "name": "seller",
          "type": "address"
        },
        {
          "indexed": true,
          "internalType": "uint256",
          "name": "tokenId",
          "type": "uint256"
        },
        {
          "indexed": false,
          "internalType": "string",
          "name": "hash",
          "type": "string"
        },
        {
          "indexed": false,
          "internalType": "uint256",
          "name": "price",
          "type": "uint256"
        }
      ],
      "name": "UniquettePutForSale",
      "type": "event"
    },
    {
      "anonymous": false,
      "inputs": [
        {
          "indexed": false,
          "internalType": "address",
          "name": "approver",
          "type": "address"
        },
        {
          "indexed": true,
          "internalType": "address",
          "name": "submitter",
          "type": "address"
        },
        {
          "indexed": false,
          "internalType": "string",
          "name": "hash",
          "type": "string"
        }
      ],
      "name": "UniquetteRejected",
      "type": "event"
    },
    {
      "anonymous": false,
      "inputs": [
        {
          "indexed": true,
          "internalType": "address",
          "name": "submitter",
          "type": "address"
        },
        {
          "indexed": false,
          "internalType": "string",
          "name": "hash",
          "type": "string"
        },
        {
          "indexed": false,
          "internalType": "uint256",
          "name": "collateral",
          "type": "uint256"
        }
      ],
      "name": "UniquetteSubmitted",
      "type": "event"
    },
    {
      "anonymous": false,
      "inputs": [
        {
          "indexed": true,
          "internalType": "address",
          "name": "operator",
          "type": "address"
        },
        {
          "indexed": true,
          "internalType": "address",
          "name": "seller",
          "type": "address"
        },
        {
          "indexed": true,
          "internalType": "uint256",
          "name": "tokenId",
          "type": "uint256"
        },
        {
          "indexed": false,
          "internalType": "string",
          "name": "hash",
          "type": "string"
        }
      ],
      "name": "UniquetteTakeOffFromSale",
      "type": "event"
    },
    {
      "anonymous": false,
      "inputs": [
        {
          "indexed": false,
          "internalType": "address",
          "name": "account",
          "type": "address"
        }
      ],
      "name": "Unpaused",
      "type": "event"
    },
    {
      "inputs": [],
      "name": "DEFAULT_ADMIN_ROLE",
      "outputs": [
        {
          "internalType": "bytes32",
          "name": "",
          "type": "bytes32"
        }
      ],
      "stateMutability": "view",
      "type": "function"
    },
    {
      "inputs": [],
      "name": "GOVERNOR_ROLE",
      "outputs": [
        {
          "internalType": "bytes32",
          "name": "",
          "type": "bytes32"
        }
      ],
      "stateMutability": "view",
      "type": "function"
    },
    {
      "inputs": [
        {
          "internalType": "address",
          "name": "to",
          "type": "address"
        },
        {
          "internalType": "uint256",
          "name": "tokenId",
          "type": "uint256"
        }
      ],
      "name": "approve",
      "outputs": [],
      "stateMutability": "nonpayable",
      "type": "function"
    },
    {
      "inputs": [
        {
          "internalType": "address",
          "name": "owner",
          "type": "address"
        }
      ],
      "name": "balanceOf",
      "outputs": [
        {
          "internalType": "uint256",
          "name": "",
          "type": "uint256"
        }
      ],
      "stateMutability": "view",
      "type": "function"
    },
    {
      "inputs": [
        {
          "internalType": "uint256[]",
          "name": "tokenIds",
          "type": "uint256[]"
        }
      ],
      "name": "batchBurn",
      "outputs": [],
      "stateMutability": "nonpayable",
      "type": "function"
    },
    {
      "inputs": [
        {
          "internalType": "uint256",
          "name": "tokenId",
          "type": "uint256"
        }
      ],
      "name": "burn",
      "outputs": [],
      "stateMutability": "nonpayable",
      "type": "function"
    },
    {
      "inputs": [
        {
          "internalType": "uint256",
          "name": "tokenId",
          "type": "uint256"
        }
      ],
      "name": "getApproved",
      "outputs": [
        {
          "internalType": "address",
          "name": "",
          "type": "address"
        }
      ],
      "stateMutability": "view",
      "type": "function"
    },
    {
      "inputs": [],
      "name": "getParameters",
      "outputs": [
        {
          "internalType": "uint256",
          "name": "initialUniquettePrice",
          "type": "uint256"
        },
        {
          "internalType": "uint256",
          "name": "originalAuthorShare",
          "type": "uint256"
        },
        {
          "internalType": "uint256",
          "name": "protocolFee",
          "type": "uint256"
        },
        {
          "internalType": "uint256",
          "name": "submissionDeposit",
          "type": "uint256"
        },
        {
          "internalType": "uint256",
          "name": "firstSaleDeadline",
          "type": "uint256"
        },
        {
          "internalType": "uint256",
          "name": "currentMetadataVersion",
          "type": "uint256"
        },
        {
          "internalType": "uint256",
          "name": "minMetadataVersion",
          "type": "uint256"
        },
        {
          "internalType": "uint256",
          "name": "maxPriceIncrease",
          "type": "uint256"
        }
      ],
      "stateMutability": "view",
      "type": "function"
    },
    {
      "inputs": [
        {
          "internalType": "bytes32",
          "name": "role",
          "type": "bytes32"
        }
      ],
      "name": "getRoleAdmin",
      "outputs": [
        {
          "internalType": "bytes32",
          "name": "",
          "type": "bytes32"
        }
      ],
      "stateMutability": "view",
      "type": "function"
    },
    {
      "inputs": [
        {
          "internalType": "bytes32",
          "name": "role",
          "type": "bytes32"
        },
        {
          "internalType": "address",
          "name": "account",
          "type": "address"
        }
      ],
      "name": "grantRole",
      "outputs": [],
      "stateMutability": "nonpayable",
      "type": "function"
    },
    {
      "inputs": [
        {
          "internalType": "bytes32",
          "name": "role",
          "type": "bytes32"
        },
        {
          "internalType": "address",
          "name": "account",
          "type": "address"
        }
      ],
      "name": "hasRole",
      "outputs": [
        {
          "internalType": "bool",
          "name": "",
          "type": "bool"
        }
      ],
      "stateMutability": "view",
      "type": "function"
    },
    {
      "inputs": [
        {
          "internalType": "string",
          "name": "name",
          "type": "string"
        },
        {
          "internalType": "string",
          "name": "symbol",
          "type": "string"
        },
        {
          "internalType": "string",
          "name": "tokensBaseURI",
          "type": "string"
        },
        {
          "internalType": "address",
          "name": "token",
          "type": "address"
        },
        {
          "internalType": "address payable",
          "name": "vault",
          "type": "address"
        },
        {
          "internalType": "address payable",
          "name": "treasury",
          "type": "address"
        },
        {
          "internalType": "address payable",
          "name": "marketer",
          "type": "address"
        },
        {
          "internalType": "uint256[8]",
          "name": "uints",
          "type": "uint256[8]"
        }
      ],
      "name": "initialize",
      "outputs": [],
      "stateMutability": "nonpayable",
      "type": "function"
    },
    {
      "inputs": [
        {
          "internalType": "address",
          "name": "account",
          "type": "address"
        },
        {
          "internalType": "address",
          "name": "operator",
          "type": "address"
        }
      ],
      "name": "isApprovedForAll",
      "outputs": [
        {
          "internalType": "bool",
          "name": "",
          "type": "bool"
        }
      ],
      "stateMutability": "view",
      "type": "function"
    },
    {
      "inputs": [],
      "name": "name",
      "outputs": [
        {
          "internalType": "string",
          "name": "",
          "type": "string"
        }
      ],
      "stateMutability": "view",
      "type": "function"
    },
    {
      "inputs": [
        {
          "internalType": "uint256",
          "name": "tokenId",
          "type": "uint256"
        }
      ],
      "name": "ownerOf",
      "outputs": [
        {
          "internalType": "address",
          "name": "",
          "type": "address"
        }
      ],
      "stateMutability": "view",
      "type": "function"
    },
    {
      "inputs": [],
      "name": "pause",
      "outputs": [],
      "stateMutability": "nonpayable",
      "type": "function"
    },
    {
      "inputs": [],
      "name": "paused",
      "outputs": [
        {
          "internalType": "bool",
          "name": "",
          "type": "bool"
        }
      ],
      "stateMutability": "view",
      "type": "function"
    },
    {
      "inputs": [
        {
          "internalType": "bytes32",
          "name": "role",
          "type": "bytes32"
        },
        {
          "internalType": "address",
          "name": "account",
          "type": "address"
        }
      ],
      "name": "renounceRole",
      "outputs": [],
      "stateMutability": "nonpayable",
      "type": "function"
    },
    {
      "inputs": [
        {
          "internalType": "bytes32",
          "name": "role",
          "type": "bytes32"
        },
        {
          "internalType": "address",
          "name": "account",
          "type": "address"
        }
      ],
      "name": "revokeRole",
      "outputs": [],
      "stateMutability": "nonpayable",
      "type": "function"
    },
    {
      "inputs": [
        {
          "internalType": "address",
          "name": "from",
          "type": "address"
        },
        {
          "internalType": "address",
          "name": "to",
          "type": "address"
        },
        {
          "internalType": "uint256",
          "name": "tokenId",
          "type": "uint256"
        }
      ],
      "name": "safeTransferFrom",
      "outputs": [],
      "stateMutability": "nonpayable",
      "type": "function"
    },
    {
      "inputs": [
        {
          "internalType": "address",
          "name": "from",
          "type": "address"
        },
        {
          "internalType": "address",
          "name": "to",
          "type": "address"
        },
        {
          "internalType": "uint256",
          "name": "tokenId",
          "type": "uint256"
        },
        {
          "internalType": "bytes",
          "name": "_data",
          "type": "bytes"
        }
      ],
      "name": "safeTransferFrom",
      "outputs": [],
      "stateMutability": "nonpayable",
      "type": "function"
    },
    {
      "inputs": [
        {
          "internalType": "address",
          "name": "operator",
          "type": "address"
        },
        {
          "internalType": "bool",
          "name": "approved",
          "type": "bool"
        }
      ],
      "name": "setApprovalForAll",
      "outputs": [],
      "stateMutability": "nonpayable",
      "type": "function"
    },
    {
      "inputs": [
        {
          "internalType": "uint256",
          "name": "newValue",
          "type": "uint256"
        }
      ],
      "name": "setCurrentMetadataVersion",
      "outputs": [],
      "stateMutability": "nonpayable",
      "type": "function"
    },
    {
      "inputs": [
        {
          "internalType": "uint256",
          "name": "newValue",
          "type": "uint256"
        }
      ],
      "name": "setFirstSaleDeadline",
      "outputs": [],
      "stateMutability": "nonpayable",
      "type": "function"
    },
    {
      "inputs": [
        {
          "internalType": "uint256",
          "name": "newValue",
          "type": "uint256"
        }
      ],
      "name": "setInitialUniquettePrice",
      "outputs": [],
      "stateMutability": "nonpayable",
      "type": "function"
    },
    {
      "inputs": [
        {
          "internalType": "address payable",
          "name": "newAddress",
          "type": "address"
        }
      ],
      "name": "setMarketerAddress",
      "outputs": [],
      "stateMutability": "nonpayable",
      "type": "function"
    },
    {
      "inputs": [
        {
          "internalType": "uint256",
          "name": "newValue",
          "type": "uint256"
        }
      ],
      "name": "setMaxPriceIncrease",
      "outputs": [],
      "stateMutability": "nonpayable",
      "type": "function"
    },
    {
      "inputs": [
        {
          "internalType": "uint256",
          "name": "newValue",
          "type": "uint256"
        }
      ],
      "name": "setMinMetadataVersion",
      "outputs": [],
      "stateMutability": "nonpayable",
      "type": "function"
    },
    {
      "inputs": [
        {
          "internalType": "uint256",
          "name": "newValue",
          "type": "uint256"
        }
      ],
      "name": "setOriginalAuthorShare",
      "outputs": [],
      "stateMutability": "nonpayable",
      "type": "function"
    },
    {
      "inputs": [
        {
          "internalType": "uint256",
          "name": "newValue",
          "type": "uint256"
        }
      ],
      "name": "setProtocolFee",
      "outputs": [],
      "stateMutability": "nonpayable",
      "type": "function"
    },
    {
      "inputs": [
        {
          "internalType": "uint256",
          "name": "newValue",
          "type": "uint256"
        }
      ],
      "name": "setSubmissionCollateral",
      "outputs": [],
      "stateMutability": "nonpayable",
      "type": "function"
    },
    {
      "inputs": [
        {
          "internalType": "address",
          "name": "newAddress",
          "type": "address"
        }
      ],
      "name": "setTokenAddress",
      "outputs": [],
      "stateMutability": "nonpayable",
      "type": "function"
    },
    {
      "inputs": [
        {
          "internalType": "address payable",
          "name": "newAddress",
          "type": "address"
        }
      ],
      "name": "setTreasuryAddress",
      "outputs": [],
      "stateMutability": "nonpayable",
      "type": "function"
    },
    {
      "inputs": [
        {
          "internalType": "address payable",
          "name": "newAddress",
          "type": "address"
        }
      ],
      "name": "setVaultAddress",
      "outputs": [],
      "stateMutability": "nonpayable",
      "type": "function"
    },
    {
      "inputs": [
        {
          "internalType": "bytes4",
          "name": "interfaceId",
          "type": "bytes4"
        }
      ],
      "name": "supportsInterface",
      "outputs": [
        {
          "internalType": "bool",
          "name": "",
          "type": "bool"
        }
      ],
      "stateMutability": "view",
      "type": "function"
    },
    {
      "inputs": [],
      "name": "symbol",
      "outputs": [
        {
          "internalType": "string",
          "name": "",
          "type": "string"
        }
      ],
      "stateMutability": "view",
      "type": "function"
    },
    {
      "inputs": [
        {
          "internalType": "uint256",
          "name": "index",
          "type": "uint256"
        }
      ],
      "name": "tokenByIndex",
      "outputs": [
        {
          "internalType": "uint256",
          "name": "",
          "type": "uint256"
        }
      ],
      "stateMutability": "view",
      "type": "function"
    },
    {
      "inputs": [
        {
          "internalType": "address",
          "name": "owner",
          "type": "address"
        },
        {
          "internalType": "uint256",
          "name": "index",
          "type": "uint256"
        }
      ],
      "name": "tokenOfOwnerByIndex",
      "outputs": [
        {
          "internalType": "uint256",
          "name": "",
          "type": "uint256"
        }
      ],
      "stateMutability": "view",
      "type": "function"
    },
    {
      "inputs": [
        {
          "internalType": "uint256",
          "name": "tokenId",
          "type": "uint256"
        }
      ],
      "name": "tokenURI",
      "outputs": [
        {
          "internalType": "string",
          "name": "",
          "type": "string"
        }
      ],
      "stateMutability": "view",
      "type": "function"
    },
    {
      "inputs": [],
      "name": "totalSupply",
      "outputs": [
        {
          "internalType": "uint256",
          "name": "",
          "type": "uint256"
        }
      ],
      "stateMutability": "view",
      "type": "function"
    },
    {
      "inputs": [
        {
          "internalType": "address",
          "name": "from",
          "type": "address"
        },
        {
          "internalType": "address",
          "name": "to",
          "type": "address"
        },
        {
          "internalType": "uint256",
          "name": "tokenId",
          "type": "uint256"
        }
      ],
      "name": "transferFrom",
      "outputs": [],
      "stateMutability": "nonpayable",
      "type": "function"
    },
    {
      "inputs": [
        {
          "internalType": "string",
          "name": "hash",
          "type": "string"
        },
        {
          "internalType": "uint256",
          "name": "submissionReward",
          "type": "uint256"
        }
      ],
      "name": "uniquetteApprove",
      "outputs": [],
      "stateMutability": "nonpayable",
      "type": "function"
    },
    {
      "inputs": [
        {
          "internalType": "address",
          "name": "to",
          "type": "address"
        },
        {
          "internalType": "uint256",
          "name": "tokenId",
          "type": "uint256"
        }
      ],
      "name": "uniquetteBuy",
      "outputs": [],
      "stateMutability": "payable",
      "type": "function"
    },
    {
      "inputs": [
        {
          "internalType": "uint256",
          "name": "tokenId",
          "type": "uint256"
        },
        {
          "internalType": "uint256",
          "name": "price",
          "type": "uint256"
        }
      ],
      "name": "uniquetteForSale",
      "outputs": [],
      "stateMutability": "nonpayable",
      "type": "function"
    },
    {
      "inputs": [
        {
          "internalType": "string",
          "name": "hash",
          "type": "string"
        }
      ],
      "name": "uniquetteGetByHash",
      "outputs": [
        {
          "components": [
            {
              "internalType": "address",
              "name": "author",
              "type": "address"
            },
            {
              "internalType": "address",
              "name": "owner",
              "type": "address"
            },
            {
              "internalType": "uint256",
              "name": "collateralValue",
              "type": "uint256"
            },
            {
              "internalType": "uint256",
              "name": "lastPurchaseAmount",
              "type": "uint256"
            },
            {
              "internalType": "uint256",
              "name": "salePrice",
              "type": "uint256"
            },
            {
              "internalType": "bool",
              "name": "firstSale",
              "type": "bool"
            },
            {
              "internalType": "uint256",
              "name": "submissionReward",
              "type": "uint256"
            },
            {
              "internalType": "uint256",
              "name": "metadataVersion",
              "type": "uint256"
            },
            {
              "internalType": "uint256",
              "name": "tokenId",
              "type": "uint256"
            },
            {
              "internalType": "uint256",
              "name": "submissionDeposit",
              "type": "uint256"
            },
            {
              "internalType": "uint256",
              "name": "submitTime",
              "type": "uint256"
            },
            {
              "internalType": "uint256",
              "name": "firstSaleDeadline",
              "type": "uint256"
            },
            {
              "internalType": "enum Directory.UniquetteStatus",
              "name": "status",
              "type": "uint8"
            }
          ],
          "internalType": "struct Directory.Uniquette",
          "name": "",
          "type": "tuple"
        }
      ],
      "stateMutability": "view",
      "type": "function"
    },
    {
      "inputs": [
        {
          "internalType": "uint256",
          "name": "tokenId",
          "type": "uint256"
        }
      ],
      "name": "uniquetteHashById",
      "outputs": [
        {
          "internalType": "string",
          "name": "",
          "type": "string"
        }
      ],
      "stateMutability": "view",
      "type": "function"
    },
    {
      "inputs": [
        {
          "internalType": "uint256",
          "name": "tokenId",
          "type": "uint256"
        }
      ],
      "name": "uniquetteIncreaseCollateral",
      "outputs": [],
      "stateMutability": "payable",
      "type": "function"
    },
    {
      "inputs": [
        {
          "internalType": "uint256",
          "name": "tokenId",
          "type": "uint256"
        }
      ],
      "name": "uniquetteNotForSale",
      "outputs": [],
      "stateMutability": "nonpayable",
      "type": "function"
    },
    {
      "inputs": [
        {
          "internalType": "string",
          "name": "hash",
          "type": "string"
        }
      ],
      "name": "uniquetteReject",
      "outputs": [],
      "stateMutability": "nonpayable",
      "type": "function"
    },
    {
      "inputs": [
        {
          "internalType": "string",
          "name": "hash",
          "type": "string"
        },
        {
          "internalType": "uint256",
          "name": "metadataVersion",
          "type": "uint256"
        }
      ],
      "name": "uniquetteSubmit",
      "outputs": [],
      "stateMutability": "payable",
      "type": "function"
    },
    {
      "inputs": [],
      "name": "unpause",
      "outputs": [],
      "stateMutability": "nonpayable",
      "type": "function"
    }
  ],
  "transactionHash": "0x541ce3ed41c0f85380c05562fedbf980b488d0c44dff470eebea373ef524b012",
  "args": [],
  "solcInputHash": "d7188926475af8926c8f5dc271a8260f",
  "bytecode": "0x608060405234801561001057600080fd5b5061575180620000216000396000f3fe6080604052600436106102445760003560e01c806301ffc9a71461024957806306fdde031461027e578063081812fc146102a0578063095ea7b3146102cd5780630d47ca73146102ef57806318160ddd1461031c5780632324eef01461033b57806323b872dd1461035b578063248a9ca31461037b57806326a4e8d21461039b5780632f2ff15d146103bb5780632f745c59146103db57806336568abe146103fb5780633f4ba83a1461041b57806342842e0e1461043057806342966c68146104505780634f6ccce714610470578063507a0be21461049057806351d31bdf146104b0578063548bd6e3146104c35780635c975abb146104e35780635d955b9a146104fb5780636352211e1461051b5780636605bfda1461053b578063705a24cb1461055b57806370a082311461056e578063787dce3d1461058e5780638456cb59146105ae57806385535cc5146105c35780638aa2536a146105e35780638f81223f1461060357806391d148541461062357806395d89b41146106435780639e9ebd2514610658578063a217fddf14610678578063a22cb4651461068d578063a526b49c146106ad578063a5ea11da146106cd578063b86d3a7414610735578063b88d4fde14610755578063bc6ac04314610775578063bf14057214610795578063c87b56dd146107b5578063ccc57490146107d5578063d547741f146107f7578063d75be24814610817578063dc8e92ea14610837578063e65e1a1014610857578063e985e9c51461086a578063ee4993751461088a578063fa2491fa146108aa575b600080fd5b34801561025557600080fd5b50610269610264366004614c3e565b6108ca565b60405190151581526020015b60405180910390f35b34801561028a57600080fd5b506102936108dd565b604051610275919061508c565b3480156102ac57600080fd5b506102c06102bb366004614c02565b61096f565b6040516102759190614fd0565b3480156102d957600080fd5b506102ed6102e8366004614b4c565b6109fc565b005b3480156102fb57600080fd5b5061030f61030a366004614c76565b610a64565b604051610275919061542b565b34801561032857600080fd5b5060cb545b604051908152602001610275565b34801561034757600080fd5b506102ed610356366004614c02565b610ba9565b34801561036757600080fd5b506102ed610376366004614a63565b610be3565b34801561038757600080fd5b5061032d610396366004614c02565b610c19565b3480156103a757600080fd5b506102ed6103b6366004614a0f565b610c2e565b3480156103c757600080fd5b506102ed6103d6366004614c1a565b610c85565b3480156103e757600080fd5b5061032d6103f6366004614b4c565b610ca3565b34801561040757600080fd5b506102ed610416366004614c1a565b610d39565b34801561042757600080fd5b506102ed610db7565b34801561043c57600080fd5b506102ed61044b366004614a63565b610df5565b34801561045c57600080fd5b506102ed61046b366004614c02565b610e10565b34801561047c57600080fd5b5061032d61048b366004614c02565b61101c565b34801561049c57600080fd5b506102ed6104ab366004614c02565b6110bd565b6102ed6104be366004614cb5565b6110f7565b3480156104cf57600080fd5b506102ed6104de366004614c02565b611411565b3480156104ef57600080fd5b5060fb5460ff16610269565b34801561050757600080fd5b506102ed610516366004614c02565b61144b565b34801561052757600080fd5b506102c0610536366004614c02565b6116e9565b34801561054757600080fd5b506102ed610556366004614a0f565b611760565b6102ed610569366004614b4c565b6117b7565b34801561057a57600080fd5b5061032d610589366004614a0f565b612002565b34801561059a57600080fd5b506102ed6105a9366004614c02565b612089565b3480156105ba57600080fd5b506102ed6120c3565b3480156105cf57600080fd5b506102ed6105de366004614a0f565b6120ff565b3480156105ef57600080fd5b506102ed6105fe366004614dd6565b612156565b34801561060f57600080fd5b506102ed61061e366004614cfe565b612661565b34801561062f57600080fd5b5061026961063e366004614c1a565b6127ab565b34801561064f57600080fd5b506102936127d6565b34801561066457600080fd5b506102ed610673366004614c02565b6127e5565b34801561068457600080fd5b5061032d600081565b34801561069957600080fd5b506102ed6106a8366004614b1f565b61281f565b3480156106b957600080fd5b506102ed6106c8366004614c02565b612897565b3480156106d957600080fd5b506101965461019754610198546101995461019a5461019b5461019c5461019d54604080519889526020890197909752958701949094526060860192909252608085015260a084015260c083015260e082015261010001610275565b34801561074157600080fd5b50610293610750366004614c02565b6128d1565b34801561076157600080fd5b506102ed610770366004614aa3565b612a2c565b34801561078157600080fd5b506102ed610790366004614c02565b612a64565b3480156107a157600080fd5b506102ed6107b0366004614c02565b612a9e565b3480156107c157600080fd5b506102936107d0366004614c02565b612ad8565b3480156107e157600080fd5b5061032d6000805160206156dc83398151915281565b34801561080357600080fd5b506102ed610812366004614c1a565b612b80565b34801561082357600080fd5b506102ed610832366004614c76565b612b9d565b34801561084357600080fd5b506102ed610852366004614b77565b612e0a565b6102ed610865366004614c02565b612edb565b34801561087657600080fd5b50610269610885366004614a2b565b61313b565b34801561089657600080fd5b506102ed6108a5366004614a0f565b6131bb565b3480156108b657600080fd5b506102ed6108c5366004614cb5565b613212565b60006108d582613635565b90505b919050565b6060609780546108ec906155c0565b80601f0160208091040260200160405190810160405280929190818152602001828054610918906155c0565b80156109655780601f1061093a57610100808354040283529160200191610965565b820191906000526020600020905b81548152906001019060200180831161094857829003601f168201915b5050505050905090565b600061097a8261365a565b6109e05760405162461bcd60e51b815260206004820152602c60248201527f4552433732313a20617070726f76656420717565727920666f72206e6f6e657860448201526b34b9ba32b73a103a37b5b2b760a11b60648201526084015b60405180910390fd5b506000908152609b60205260409020546001600160a01b031690565b60405162461bcd60e51b815260206004820152603760248201527f4469726563746f72793a20617070726f7665206e6f7420737570706f72746564604482015276206f6e20756e69717565747465207472616e736665727360481b60648201526084016109d7565b610a6c614747565b600061019f8484604051610a81929190614f14565b9081526040805191829003602090810183206101a08401835280546001600160a01b03908116855260018201541691840191909152600280820154928401929092526003810154606084015260048101546080840152600581015460ff908116151560a0850152600682015460c0850152600782015460e085015260088201546101008501526009820154610120850152600a820154610140850152600b820154610160850152600c820154919261018085019290911690811115610b5657634e487b7160e01b600052602160045260246000fd5b6002811115610b7557634e487b7160e01b600052602160045260246000fd5b90525080519091506001600160a01b0316610ba25760405162461bcd60e51b81526004016109d7906152e0565b9392505050565b610bc16000805160206156dc8339815191523361063e565b610bdd5760405162461bcd60e51b81526004016109d790615157565b61019b55565b610bed3382613677565b610c095760405162461bcd60e51b81526004016109d790615317565b610c1483838361379d565b505050565b60009081526065602052604090206001015490565b610c466000805160206156dc8339815191523361063e565b610c625760405162461bcd60e51b81526004016109d790615157565b61019280546001600160a01b0319166001600160a01b0392909216919091179055565b610c8e82610c19565b610c9981335b613936565b610c14838361399a565b6000610cae83612002565b8210610d105760405162461bcd60e51b815260206004820152602b60248201527f455243373231456e756d657261626c653a206f776e657220696e646578206f7560448201526a74206f6620626f756e647360a81b60648201526084016109d7565b506001600160a01b0391909116600090815260c960209081526040808320938352929052205490565b6001600160a01b0381163314610da95760405162461bcd60e51b815260206004820152602f60248201527f416363657373436f6e74726f6c3a2063616e206f6e6c792072656e6f756e636560448201526e103937b632b9903337b91039b2b63360891b60648201526084016109d7565b610db38282613a20565b5050565b610dcf6000805160206156dc8339815191523361063e565b610deb5760405162461bcd60e51b81526004016109d790615157565b610df3613a87565b565b610c1483838360405180602001604052806000815250612a2c565b610e286000805160206156dc8339815191523361063e565b610e445760405162461bcd60e51b81526004016109d790615157565b600081815261019e6020526040808220905161019f91610e6391614f40565b9081526040805191829003602090810183206101a08401835280546001600160a01b03908116855260018201541691840191909152600280820154928401929092526003810154606084015260048101546080840152600581015460ff908116151560a0850152600682015460c0850152600782015460e085015260088201546101008501526009820154610120850152600a820154610140850152600b820154610160850152600c820154919261018085019290911690811115610f3857634e487b7160e01b600052602160045260246000fd5b6002811115610f5757634e487b7160e01b600052602160045260246000fd5b9052506101935460208201519192506001600160a01b0391821691161480610f83575042816101600151115b6110135760405162461bcd60e51b815260206004820152605560248201527f4469726563746f72793a206f6e6c7920756e6971756574746573206c6f636b6560448201527f6420696e207661756c74206f72207061737365642066697273742073616c6520606482015274191958591b1a5b994818d85b88189948189d5c9b9d605a1b608482015260a4016109d7565b610db382613b14565b600061102760cb5490565b821061108a5760405162461bcd60e51b815260206004820152602c60248201527f455243373231456e756d657261626c653a20676c6f62616c20696e646578206f60448201526b7574206f6620626f756e647360a01b60648201526084016109d7565b60cb82815481106110ab57634e487b7160e01b600052603260045260246000fd5b90600052602060002001549050919050565b6110d56000805160206156dc8339815191523361063e565b6110f15760405162461bcd60e51b81526004016109d790615157565b61019655565b600261015f54141561111b5760405162461bcd60e51b81526004016109d7906153f4565b600261015f5560405160009061019f906111389086908690614f14565b908152604051908190036020019020546001600160a01b03161461119d5760405162461bcd60e51b815260206004820152601c60248201527b111a5c9958dd1bdc9e4e88185b1c9958591e481cdd589b5a5d1d195960221b60448201526064016109d7565b6101995434146112145760405162461bcd60e51b815260206004820152603c60248201527f4469726563746f72793a20657861637420636f6c6c61746572616c2076616c7560448201527b65207265717569726564206e6f74206c657373206e6f74206d6f726560201b60648201526084016109d7565b61019b5481146112775760405162461bcd60e51b815260206004820152603a60248201526000805160206156bc8339815191526044820152796f742063757272656e742c20706c65617365207570677261646560301b60648201526084016109d7565b3361019f848460405161128b929190614f14565b90815260405190819003602001812080546001600160a01b03939093166001600160a01b031990931692909217909155819061019f906112ce9086908690614f14565b908152602001604051809103902060070181905550600061019f84846040516112f8929190614f14565b908152604051908190036020019020600c01805460ff1916600183600281111561133257634e487b7160e01b600052602160045260246000fd5b02179055503461019f848460405161134b929190614f14565b9081526020016040518091039020600901819055504261019f8484604051611374929190614f14565b908152604051908190036020019020600a015561019a54611395904261550f565b61019f84846040516113a8929190614f14565b908152604051908190036020019020600b01556113c23390565b6001600160a01b03167fd78169f547a54c6d55fa3e61e5526b1c0176b8b35e6e144f6c189848335903fe8484346040516113fe93929190615068565b60405180910390a25050600161015f5550565b6114296000805160206156dc8339815191523361063e565b6114455760405162461bcd60e51b81526004016109d790615157565b61019955565b600261015f54141561146f5760405162461bcd60e51b81526004016109d7906153f4565b600261015f5561147e8161365a565b61149a5760405162461bcd60e51b81526004016109d7906151cf565b600081815261019e6020526040812080546114b4906155c0565b80601f01602080910402602001604051908101604052809291908181526020018280546114e0906155c0565b801561152d5780601f106115025761010080835404028352916020019161152d565b820191906000526020600020905b81548152906001019060200180831161151057829003601f168201915b5050505050905060006001600160a01b031661019f826040516115509190614f24565b908152604051908190036020019020546001600160a01b031614156115875760405162461bcd60e51b81526004016109d79061529d565b600261019f8260405161159a9190614f24565b908152604051908190036020019020600c015460ff1660028111156115cf57634e487b7160e01b600052602160045260246000fd5b146115ec5760405162461bcd60e51b81526004016109d7906150c1565b6000339050600061019f836040516116049190614f24565b908152604051908190036020019020600101546001600160a01b031690506116293390565b6001600160a01b0316816001600160a01b0316148061164d575061164d8133610885565b6116695760405162461bcd60e51b81526004016109d790615368565b600061019f8460405161167c9190614f24565b90815260200160405180910390206004018190555083816001600160a01b0316836001600160a01b03167fb3a1be6af153f32ad3470d2f00b1bc04396ede2c19057c204c38db1adaa90481866040516116d5919061508c565b60405180910390a45050600161015f555050565b6000818152609960205260408120546001600160a01b0316806108d55760405162461bcd60e51b815260206004820152602960248201527f4552433732313a206f776e657220717565727920666f72206e6f6e657869737460448201526832b73a103a37b5b2b760b91b60648201526084016109d7565b6117786000805160206156dc8339815191523361063e565b6117945760405162461bcd60e51b81526004016109d790615157565b61019480546001600160a01b0319166001600160a01b0392909216919091179055565b600261015f5414156117db5760405162461bcd60e51b81526004016109d7906153f4565b600261015f556117ea8161365a565b6118065760405162461bcd60e51b81526004016109d7906151cf565b600081815261019e602052604081208054611820906155c0565b80601f016020809104026020016040519081016040528092919081815260200182805461184c906155c0565b80156118995780601f1061186e57610100808354040283529160200191611899565b820191906000526020600020905b81548152906001019060200180831161187c57829003601f168201915b50939450505050506001600160a01b0383166119025760405162461bcd60e51b815260206004820152602260248201527f4469726563746f72793a2062757920746f20746865207a65726f206164647265604482015261737360f01b60648201526084016109d7565b60006001600160a01b031661019f8260405161191e9190614f24565b908152604051908190036020019020546001600160a01b031614156119555760405162461bcd60e51b81526004016109d79061529d565b600261019f826040516119689190614f24565b908152604051908190036020019020600c015460ff16600281111561199d57634e487b7160e01b600052602160045260246000fd5b146119ba5760405162461bcd60e51b81526004016109d7906153b3565b600061019f826040516119cd9190614f24565b90815260200160405180910390206004015411611a365760405162461bcd60e51b815260206004820152602160248201527f4469726563746f72793a20756e69717565747465206e6f7420666f722073616c6044820152606560f81b60648201526084016109d7565b61019c5461019f82604051611a4b9190614f24565b9081526020016040518091039020600701541015611aba5760405162461bcd60e51b8152602060048201526038602482015260008051602061567c8339815191526044820152771bdbc81bdb190b081b5d5cdd081899481d5c19dc9859195960421b60648201526084016109d7565b600033905060006127106101985461019f85604051611ad99190614f24565b908152602001604051809103902060040154611af59190615547565b611aff9190615527565b90508061019f84604051611b139190614f24565b908152602001604051809103902060040154611b2f919061550f565b341015611ba6576040805162461bcd60e51b81526020600482015260248101919091527f4469726563746f72793a20696e73756666696369656e74207061796d656e742060448201527f666f722073616c6520707269636520706c75732070726f746f636f6c2066656560648201526084016109d7565b60008060008061019f87604051611bbd9190614f24565b9081526040519081900360200190206005015460ff1615611cce57600061019f88604051611beb9190614f24565b908152604051908190036020018120600501805492151560ff1990931692909217909155610197546127109161019f90611c26908b90614f24565b908152602001604051809103902060040154611c429190615547565b611c4c9190615527565b935061019f87604051611c5f9190614f24565b908152604051908190036020018120546001600160a01b0316935061019f90611c89908990614f24565b908152602001604051809103902060060154915061019f87604051611cae9190614f24565b908152604051908190036020019020546001600160a01b03169050611d23565b61019f87604051611cdf9190614f24565b908152602001604051809103902060040154935061019f87604051611d049190614f24565b908152604051908190036020019020600101546001600160a01b031692505b600085611d308634615566565b611d3a9190615566565b90508061019f89604051611d4e9190614f24565b90815260200160405180910390206002016000828254611d6e919061550f565b925050819055503461019f89604051611d879190614f24565b908152602001604051809103902060030181905550600061019f89604051611daf9190614f24565b90815260405190819003602001902060040155611dcc878a613ba9565b611e0361019f89604051611de09190614f24565b908152604051908190036020019020600101546001600160a01b03168b8b61379d565b888a6001600160a01b031661019f8a604051611e1f9190614f24565b908152604051908190036020018120600101546001600160a01b0316907f6a48cf89f57c6b3b06ecabcd3389b06a014e7d503e5159f494fa09678965116590611e69908c90614fd0565b60405180910390a461019454611e88906001600160a01b031687613c17565b888a6001600160a01b0316886001600160a01b03167f5d90ed55018a812d5146da57fe239c218fe08dfd6c476b2df791ecd2744d911461019f8c604051611ecf9190614f24565b90815260405190819003602001812060010154611ef9916001600160a01b03909116908c9061504f565b60405180910390a461019354611f18906001600160a01b031682613c17565b888a6001600160a01b0316886001600160a01b031660008051602061569c83398151915284604051611f4c91815260200190565b60405180910390a48415611f6d57611f6d6001600160a01b03851686613c17565b6001600160a01b03821615801590611f855750600083115b15611ff057610192546040516340c10f1960e01b81526001600160a01b03909116906340c10f1990611fbd908590879060040161504f565b600060405180830381600087803b158015611fd757600080fd5b505af1158015611feb573d6000803e3d6000fd5b505050505b5050600161015f555050505050505050565b60006001600160a01b03821661206d5760405162461bcd60e51b815260206004820152602a60248201527f4552433732313a2062616c616e636520717565727920666f7220746865207a65604482015269726f206164647265737360b01b60648201526084016109d7565b506001600160a01b03166000908152609a602052604090205490565b6120a16000805160206156dc8339815191523361063e565b6120bd5760405162461bcd60e51b81526004016109d790615157565b61019855565b6120db6000805160206156dc8339815191523361063e565b6120f75760405162461bcd60e51b81526004016109d790615157565b610df3613d2d565b6121176000805160206156dc8339815191523361063e565b6121335760405162461bcd60e51b81526004016109d790615157565b61019380546001600160a01b0319166001600160a01b0392909216919091179055565b600261015f54141561217a5760405162461bcd60e51b81526004016109d7906153f4565b600261015f556121898261365a565b6121a55760405162461bcd60e51b81526004016109d7906151cf565b600082815261019e6020526040812080546121bf906155c0565b80601f01602080910402602001604051908101604052809291908181526020018280546121eb906155c0565b80156122385780601f1061220d57610100808354040283529160200191612238565b820191906000526020600020905b81548152906001019060200180831161221b57829003601f168201915b5050505050905060006001600160a01b031661019f8260405161225b9190614f24565b908152604051908190036020019020546001600160a01b031614156122925760405162461bcd60e51b81526004016109d79061529d565b600261019f826040516122a59190614f24565b908152604051908190036020019020600c015460ff1660028111156122da57634e487b7160e01b600052602160045260246000fd5b146122f75760405162461bcd60e51b81526004016109d7906150c1565b61019c5461019f8260405161230c9190614f24565b90815260200160405180910390206007015410156123795760405162461bcd60e51b8152602060048201526036602482015260008051602061567c8339815191526044820152756f6f206f6c642c20706c65617365207570677261646560501b60648201526084016109d7565b6000339050600061019f836040516123919190614f24565b908152604051908190036020019020600101546001600160a01b031690506123b63390565b6001600160a01b0316816001600160a01b031614806123da57506123da8133610885565b6123f65760405162461bcd60e51b81526004016109d790615368565b600061019f846040516124099190614f24565b9081526020016040518091039020600201549050600061271061019f866040516124339190614f24565b90815260200160405180910390206002015461019d546124539190615547565b61245d9190615527565b61019f8660405161246e9190614f24565b90815260200160405180910390206002015461248a919061550f565b9050600061271061019f876040516124a29190614f24565b90815260200160405180910390206003015461019d546124c29190615547565b6124cc9190615527565b61019f876040516124dd9190614f24565b9081526020016040518091039020600301546124f9919061550f565b90508287101561256f5760405162461bcd60e51b815260206004820152603b60248201527f4469726563746f72793a2073616c65207072696365206d75737420626520657160448201527a1d585b081bdc881b5bdc99481d1a185b8818dbdb1b185d195c985b602a1b60648201526084016109d7565b818711158061257e5750808711155b6125dc5760405162461bcd60e51b815260206004820152602960248201527f4469726563746f72793a2073616c652070726963652065786365656473206d616044820152681e08185b1b1bddd95960ba1b60648201526084016109d7565b8661019f876040516125ee9190614f24565b90815260200160405180910390206004018190555087846001600160a01b0316866001600160a01b03167fd9007247b203260e36af761e87c4dcd8ad4d3abf85e977d902c766778e2c182b898b60405161264992919061509f565b60405180910390a45050600161015f55505050505050565b600054610100900460ff168061267a575060005460ff16155b6126965760405162461bcd60e51b81526004016109d790615205565b600054610100900460ff161580156126b8576000805461ffff19166101011790555b6126c28989613da8565b86516126d6906101919060208a01906147e1565b5061019280546001600160a01b03199081166001600160a01b038981169190911790925561019380548216888416179055610194805482168784161790556101958054909116918516919091179055815161019655602082015161019755604082015161019855606082015161019955608082015161019a5560a082015161019b5560c082015161019c5560e082015161019d556127766000335b613e2f565b61278e6000805160206156dc83398151915233612771565b80156127a0576000805461ff00191690555b505050505050505050565b60009182526065602090815260408084206001600160a01b0393909316845291905290205460ff1690565b6060609880546108ec906155c0565b6127fd6000805160206156dc8339815191523361063e565b6128195760405162461bcd60e51b81526004016109d790615157565b61019755565b60405162461bcd60e51b815260206004820152604160248201527f4469726563746f72793a20736574417070726f76616c466f72416c6c206e6f7460448201527f20737570706f72746564206f6e20756e69717565747465207472616e736665726064820152607360f81b608482015260a4016109d7565b6128af6000805160206156dc8339815191523361063e565b6128cb5760405162461bcd60e51b81526004016109d790615157565b61019a55565b60606128dc8261365a565b6129375760405162461bcd60e51b815260206004820152602660248201527f4469726563746f72793a20717565727920666f72206e6f6e6578697374656e74604482015265103a37b5b2b760d11b60648201526084016109d7565b600082815261019e6020526040808220905161019f9161295691614f40565b908152604051908190036020019020546001600160a01b0316141561298d5760405162461bcd60e51b81526004016109d7906152e0565b600082815261019e6020526040902080546129a7906155c0565b80601f01602080910402602001604051908101604052809291908181526020018280546129d3906155c0565b8015612a205780601f106129f557610100808354040283529160200191612a20565b820191906000526020600020905b815481529060010190602001808311612a0357829003601f168201915b50505050509050919050565b612a363383613677565b612a525760405162461bcd60e51b81526004016109d790615317565b612a5e84848484613e39565b50505050565b612a7c6000805160206156dc8339815191523361063e565b612a985760405162461bcd60e51b81526004016109d790615157565b61019d55565b612ab66000805160206156dc8339815191523361063e565b612ad25760405162461bcd60e51b81526004016109d790615157565b61019c55565b6060612ae38261365a565b612b425760405162461bcd60e51b815260206004820152602a60248201527f4469726563746f72793a2055524920717565727920666f72206e6f6e657869736044820152693a32b73a103a37b5b2b760b11b60648201526084016109d7565b61019161019e6000848152602001908152602001600020604051602001612b6a929190614f4c565b6040516020818303038152906040529050919050565b612b8982610c19565b612b938133610c94565b610c148383613a20565b612bb56000805160206156dc8339815191523361063e565b612bd15760405162461bcd60e51b81526004016109d790615157565b600261015f541415612bf55760405162461bcd60e51b81526004016109d7906153f4565b600261015f5560405160009061019f90612c129085908590614f14565b908152604051908190036020019020546001600160a01b03161415612c495760405162461bcd60e51b81526004016109d790615198565b600061019f8383604051612c5e929190614f14565b908152604051908190036020019020600c015460ff166002811115612c9357634e487b7160e01b600052602160045260246000fd5b14612cb05760405162461bcd60e51b81526004016109d790615253565b600061019f8383604051612cc5929190614f14565b908152604051908190036020018120546001600160a01b0316915060009061019f90612cf49086908690614f14565b908152602001604051809103902060090154905061019f8484604051612d1b929190614f14565b90815260405190819003602001902080546001600160a01b031990811682556001820180549091169055600060028201819055600382018190556004820181905560058201805460ff1990811690915560068301829055600783018290556008830182905560098301829055600a8301829055600b830191909155600c9091018054909116905561019454612db9906001600160a01b031682613c17565b6001600160a01b0382167fba15625ca9c4f301c8c4fc07d6ce430446085224c127bbf687e2d724c5b742be338686604051612df693929190615021565b60405180910390a25050600161015f555050565b612e226000805160206156dc8339815191523361063e565b612e3e5760405162461bcd60e51b81526004016109d790615157565b60005b81811015610c14576000838383818110612e6b57634e487b7160e01b600052603260045260246000fd5b604051630852cd8d60e31b81526020909102929092013560048301819052925030916342966c689150602401600060405180830381600087803b158015612eb157600080fd5b505af1158015612ec5573d6000803e3d6000fd5b505050505080612ed4906155fb565b9050612e41565b600261015f541415612eff5760405162461bcd60e51b81526004016109d7906153f4565b600261015f55612f0e8161365a565b612f2a5760405162461bcd60e51b81526004016109d7906151cf565b600081815261019e602052604081208054612f44906155c0565b80601f0160208091040260200160405190810160405280929190818152602001828054612f70906155c0565b8015612fbd5780601f10612f9257610100808354040283529160200191612fbd565b820191906000526020600020905b815481529060010190602001808311612fa057829003601f168201915b5050505050905060006001600160a01b031661019f82604051612fe09190614f24565b908152604051908190036020019020546001600160a01b031614156130175760405162461bcd60e51b81526004016109d79061529d565b600261019f8260405161302a9190614f24565b908152604051908190036020019020600c015460ff16600281111561305f57634e487b7160e01b600052602160045260246000fd5b1461307c5760405162461bcd60e51b81526004016109d7906153b3565b61019354613093906001600160a01b031634613c17565b3461019f826040516130a59190614f24565b908152602001604051809103902060020160008282546130c5919061550f565b925050819055508161019f826040516130de9190614f24565b908152604051908190036020019020600101546001600160a01b03166131013390565b6001600160a01b031660008051602061569c8339815191523460405161312991815260200190565b60405180910390a45050600161015f55565b60006131556000805160206156dc833981519152836127ab565b8061316e5750610195546001600160a01b038381169116145b806131875750610193546001600160a01b038381169116145b80610ba257506001600160a01b038084166000908152609c602090815260408083209386168352929052205460ff16610ba2565b6131d36000805160206156dc8339815191523361063e565b6131ef5760405162461bcd60e51b81526004016109d790615157565b61019580546001600160a01b0319166001600160a01b0392909216919091179055565b61322a6000805160206156dc8339815191523361063e565b6132465760405162461bcd60e51b81526004016109d790615157565b600261015f54141561326a5760405162461bcd60e51b81526004016109d7906153f4565b600261015f5560405160009061019f906132879086908690614f14565b908152604051908190036020019020546001600160a01b031614156132be5760405162461bcd60e51b81526004016109d790615198565b600061019f84846040516132d3929190614f14565b908152604051908190036020019020600c015460ff16600281111561330857634e487b7160e01b600052602160045260246000fd5b146133255760405162461bcd60e51b81526004016109d790615253565b61019b5461019f848460405161333c929190614f14565b908152602001604051809103902060070154146133ae5760405162461bcd60e51b815260206004820152603c60248201526000805160206156bc83398151915260448201527b1bdd0818dd5c9c995b9d0b081b5d5cdd081899481d5c19dc9859195960221b60648201526084016109d7565b6133bd6101a080546001019055565b60006133c96101a05490565b610193549091506133e3906001600160a01b031682613e6c565b600081815261019e602052604090206133fd908585614865565b50610193546040516001600160a01b039091169061019f906134229087908790614f14565b908152602001604051809103902060010160006101000a8154816001600160a01b0302191690836001600160a01b031602179055508061019f858560405161346b929190614f14565b908152602001604051809103902060080181905550600261019f8585604051613495929190614f14565b908152604051908190036020019020600c01805460ff191660018360028111156134cf57634e487b7160e01b600052602160045260246000fd5b02179055506101965461019f85856040516134eb929190614f14565b908152602001604051809103902060040181905550600161019f8585604051613515929190614f14565b908152604051908190036020018120600501805492151560ff1990931692909217909155829061019f9061354c9087908790614f14565b9081526020016040518091039020600601819055506135bb61019f8585604051613577929190614f14565b90815260200160405180910390206009015461019f868660405161359c929190614f14565b908152604051908190036020019020546001600160a01b031690613c17565b8061019f85856040516135cf929190614f14565b908152604051908190036020019020546001600160a01b03167f4d4a48eb0427bf58d36a2e1bd9914e37b9a4838b8319ae9bbef31b24e8f9edc56136103390565b878760405161362193929190615021565b60405180910390a35050600161015f555050565b60006001600160e01b0319821663780e9d6360e01b14806108d557506108d582613f98565b6000908152609960205260409020546001600160a01b0316151590565b60006136828261365a565b6136e65760405162461bcd60e51b815260206004820152602f60248201527f4469726563746f72793a206f70657261746f7220717565727920666f72206e6f60448201526e3732bc34b9ba32b73a103a37b5b2b760891b60648201526084016109d7565b60006136f1836116e9565b9050836001600160a01b03166137068461096f565b6001600160a01b03161480613795575060405163e985e9c560e01b81526001600160a01b03808316600483015285166024820152309063e985e9c59060440160206040518083038186803b15801561375d57600080fd5b505afa158015613771573d6000803e3d6000fd5b505050506040513d601f19601f820116820180604052508101906137959190614be6565b949350505050565b826001600160a01b03166137b0826116e9565b6001600160a01b0316146138185760405162461bcd60e51b815260206004820152602960248201527f4552433732313a207472616e73666572206f6620746f6b656e2074686174206960448201526839903737ba1037bbb760b91b60648201526084016109d7565b6001600160a01b03821661387a5760405162461bcd60e51b8152602060048201526024808201527f4552433732313a207472616e7366657220746f20746865207a65726f206164646044820152637265737360e01b60648201526084016109d7565b613885838383613fd8565b613890600082613ba9565b6001600160a01b0383166000908152609a602052604081208054600192906138b9908490615566565b90915550506001600160a01b0382166000908152609a602052604081208054600192906138e790849061550f565b909155505060008181526099602052604080822080546001600160a01b0319166001600160a01b0386811691821790925591518493918716916000805160206156fc83398151915291a4505050565b61394082826127ab565b610db357613958816001600160a01b0316601461403a565b61396383602061403a565b604051602001613974929190614f61565b60408051601f198184030181529082905262461bcd60e51b82526109d79160040161508c565b6139a482826127ab565b610db35760008281526065602090815260408083206001600160a01b03851684529091529020805460ff191660011790556139dc3390565b6001600160a01b0316816001600160a01b0316837f2f8788117e7eff1d82e926ec794901d17c78024a50270940304540a733656f0d60405160405180910390a45050565b613a2a82826127ab565b15610db35760008281526065602090815260408083206001600160a01b0385168085529252808320805460ff1916905551339285917ff6391f5c32d9c69d2a47ea670b442974b53935d1edc7fd64eb21e047a839171b9190a45050565b60fb5460ff16613ad05760405162461bcd60e51b815260206004820152601460248201527314185d5cd8589b194e881b9bdd081c185d5cd95960621b60448201526064016109d7565b60fb805460ff191690557f5db9ee0a495bf2e6ff9c91a7834c1ba4fdd244a5e8aa4e537bd38aeae4b073aa335b604051613b0a9190614fd0565b60405180910390a1565b6000613b1f826116e9565b9050613b2d81600084613fd8565b613b38600083613ba9565b6001600160a01b0381166000908152609a60205260408120805460019290613b61908490615566565b909155505060008281526099602052604080822080546001600160a01b0319169055518391906001600160a01b038416906000805160206156fc833981519152908390a45050565b6000818152609b6020526040902080546001600160a01b0319166001600160a01b0384169081179091558190613bde826116e9565b6001600160a01b03167f8c5be1e5ebec7d5bd14f71427d1e84f3dd0314c0f7b2291e5b200ac8c7c3b92560405160405180910390a45050565b80471015613c675760405162461bcd60e51b815260206004820152601d60248201527f416464726573733a20696e73756666696369656e742062616c616e636500000060448201526064016109d7565b6000826001600160a01b03168260405160006040518083038185875af1925050503d8060008114613cb4576040519150601f19603f3d011682016040523d82523d6000602084013e613cb9565b606091505b5050905080610c145760405162461bcd60e51b815260206004820152603a60248201527f416464726573733a20756e61626c6520746f2073656e642076616c75652c20726044820152791958da5c1a595b9d081b585e481a185d99481c995d995c9d195960321b60648201526084016109d7565b60fb5460ff1615613d735760405162461bcd60e51b815260206004820152601060248201526f14185d5cd8589b194e881c185d5cd95960821b60448201526064016109d7565b60fb805460ff191660011790557f62e78cea01bee320cd4e420270b5ea74000d11b0c9f74754ebdbfc544b05a258613afd3390565b600054610100900460ff1680613dc1575060005460ff16155b613ddd5760405162461bcd60e51b81526004016109d790615205565b600054610100900460ff16158015613dff576000805461ffff19166101011790555b613e0761421b565b613e0f61421b565b613e198383614287565b8015610c14576000805461ff0019169055505050565b610db3828261399a565b613e4484848461379d565b613e508484848461431c565b612a5e5760405162461bcd60e51b81526004016109d790615105565b6001600160a01b038216613ec25760405162461bcd60e51b815260206004820181905260248201527f4552433732313a206d696e7420746f20746865207a65726f206164647265737360448201526064016109d7565b613ecb8161365a565b15613f175760405162461bcd60e51b815260206004820152601c60248201527b115490cdcc8c4e881d1bdad95b88185b1c9958591e481b5a5b9d195960221b60448201526064016109d7565b613f2360008383613fd8565b6001600160a01b0382166000908152609a60205260408120805460019290613f4c90849061550f565b909155505060008181526099602052604080822080546001600160a01b0319166001600160a01b03861690811790915590518392906000805160206156fc833981519152908290a45050565b60006001600160e01b031982166380ac58cd60e01b1480613fc957506001600160e01b03198216635b5e139f60e01b145b806108d557506108d582614429565b8161019f61019e6000848152602001908152602001600020604051613ffd9190614f40565b90815260405190819003602001902060010180546001600160a01b03929092166001600160a01b0319909216919091179055610c1483838361445e565b60606000614049836002615547565b61405490600261550f565b6001600160401b0381111561407957634e487b7160e01b600052604160045260246000fd5b6040519080825280601f01601f1916602001820160405280156140a3576020820181803683370190505b509050600360fc1b816000815181106140cc57634e487b7160e01b600052603260045260246000fd5b60200101906001600160f81b031916908160001a905350600f60fb1b8160018151811061410957634e487b7160e01b600052603260045260246000fd5b60200101906001600160f81b031916908160001a905350600061412d846002615547565b61413890600161550f565b90505b60018111156141cc576f181899199a1a9b1b9c1cb0b131b232b360811b85600f166010811061417a57634e487b7160e01b600052603260045260246000fd5b1a60f81b82828151811061419e57634e487b7160e01b600052603260045260246000fd5b60200101906001600160f81b031916908160001a90535060049490941c936141c5816155a9565b905061413b565b508315610ba25760405162461bcd60e51b815260206004820181905260248201527f537472696e67733a20686578206c656e67746820696e73756666696369656e7460448201526064016109d7565b600054610100900460ff1680614234575060005460ff16155b6142505760405162461bcd60e51b81526004016109d790615205565b600054610100900460ff16158015614272576000805461ffff19166101011790555b8015614284576000805461ff00191690555b50565b600054610100900460ff16806142a0575060005460ff16155b6142bc5760405162461bcd60e51b81526004016109d790615205565b600054610100900460ff161580156142de576000805461ffff19166101011790555b82516142f19060979060208601906147e1565b5081516143059060989060208501906147e1565b508015610c14576000805461ff0019169055505050565b60006001600160a01b0384163b1561441e57604051630a85bd0160e11b81526001600160a01b0385169063150b7a0290614360903390899088908890600401614fe4565b602060405180830381600087803b15801561437a57600080fd5b505af19250505080156143aa575060408051601f3d908101601f191682019092526143a791810190614c5a565b60015b614404573d8080156143d8576040519150601f19603f3d011682016040523d82523d6000602084013e6143dd565b606091505b5080516143fc5760405162461bcd60e51b81526004016109d790615105565b805181602001fd5b6001600160e01b031916630a85bd0160e11b149050613795565b506001949350505050565b60006001600160e01b03198216637965db0b60e01b14806108d557506301ffc9a760e01b6001600160e01b03198316146108d5565b6144698383836144d0565b60fb5460ff1615610c145760405162461bcd60e51b815260206004820152602b60248201527f4552433732315061757361626c653a20746f6b656e207472616e73666572207760448201526a1a1a5b19481c185d5cd95960aa1b60648201526084016109d7565b6001600160a01b03831661452b576145268160cb8054600083815260cc60205260408120829055600182018355919091527fa7ce836d032b2bf62b7e2097a8e0a6d8aeb35405ad15271e96d3b0188a1d06fb0155565b61454e565b816001600160a01b0316836001600160a01b03161461454e5761454e838261458d565b6001600160a01b03821661456a576145658161462a565b610c14565b826001600160a01b0316826001600160a01b031614610c1457610c148282614703565b6000600161459a84612002565b6145a49190615566565b600083815260ca60205260409020549091508082146145f7576001600160a01b038416600090815260c960209081526040808320858452825280832054848452818420819055835260ca90915290208190555b50600091825260ca602090815260408084208490556001600160a01b03909416835260c981528383209183525290812055565b60cb5460009061463c90600190615566565b600083815260cc602052604081205460cb805493945090928490811061467257634e487b7160e01b600052603260045260246000fd5b906000526020600020015490508060cb83815481106146a157634e487b7160e01b600052603260045260246000fd5b600091825260208083209091019290925582815260cc909152604080822084905585825281205560cb8054806146e757634e487b7160e01b600052603160045260246000fd5b6001900381819060005260206000200160009055905550505050565b600061470e83612002565b6001600160a01b03909316600090815260c960209081526040808320868452825280832085905593825260ca9052919091209190915550565b604051806101a0016040528060006001600160a01b0316815260200160006001600160a01b03168152602001600081526020016000815260200160008152602001600015158152602001600081526020016000815260200160008152602001600081526020016000815260200160008152602001600060028111156147dc57634e487b7160e01b600052602160045260246000fd5b905290565b8280546147ed906155c0565b90600052602060002090601f01602090048101928261480f5760008555614855565b82601f1061482857805160ff1916838001178555614855565b82800160010185558215614855579182015b8281111561485557825182559160200191906001019061483a565b506148619291506148d9565b5090565b828054614871906155c0565b90600052602060002090601f0160209004810192826148935760008555614855565b82601f106148ac5782800160ff19823516178555614855565b82800160010185558215614855579182015b828111156148555782358255916020019190600101906148be565b5b8082111561486157600081556001016148da565b60006001600160401b038311156149075761490761562c565b61491a601f8401601f19166020016154df565b905082815283838301111561492e57600080fd5b828260208301376000602084830101529392505050565b80356108d881615642565b600082601f830112614960578081fd5b61010061496c816154df565b808486848701111561497c578485fd5b8493505b60088410156149a057803583526001939093019260209283019201614980565b5095945050505050565b60008083601f8401126149bb578182fd5b5081356001600160401b038111156149d1578182fd5b6020830191508360208285010111156149e957600080fd5b9250929050565b600082601f830112614a00578081fd5b610ba2838335602085016148ee565b600060208284031215614a20578081fd5b8135610ba281615642565b60008060408385031215614a3d578081fd5b8235614a4881615642565b91506020830135614a5881615642565b809150509250929050565b600080600060608486031215614a77578081fd5b8335614a8281615642565b92506020840135614a9281615642565b929592945050506040919091013590565b60008060008060808587031215614ab8578081fd5b8435614ac381615642565b93506020850135614ad381615642565b92506040850135915060608501356001600160401b03811115614af4578182fd5b8501601f81018713614b04578182fd5b614b13878235602084016148ee565b91505092959194509250565b60008060408385031215614b31578182fd5b8235614b3c81615642565b91506020830135614a5881615657565b60008060408385031215614b5e578182fd5b8235614b6981615642565b946020939093013593505050565b60008060208385031215614b89578182fd5b82356001600160401b0380821115614b9f578384fd5b818501915085601f830112614bb2578384fd5b813581811115614bc0578485fd5b8660208260051b8501011115614bd4578485fd5b60209290920196919550909350505050565b600060208284031215614bf7578081fd5b8151610ba281615657565b600060208284031215614c13578081fd5b5035919050565b60008060408385031215614c2c578182fd5b823591506020830135614a5881615642565b600060208284031215614c4f578081fd5b8135610ba281615665565b600060208284031215614c6b578081fd5b8151610ba281615665565b60008060208385031215614c88578182fd5b82356001600160401b03811115614c9d578283fd5b614ca9858286016149aa565b90969095509350505050565b600080600060408486031215614cc9578081fd5b83356001600160401b03811115614cde578182fd5b614cea868287016149aa565b909790965060209590950135949350505050565b6000806000806000806000806101e0898b031215614d1a578586fd5b88356001600160401b0380821115614d30578788fd5b614d3c8c838d016149f0565b995060208b0135915080821115614d51578788fd5b614d5d8c838d016149f0565b985060408b0135915080821115614d72578788fd5b50614d7f8b828c016149f0565b965050614d8e60608a01614945565b9450614d9c60808a01614945565b9350614daa60a08a01614945565b9250614db860c08a01614945565b9150614dc78a60e08b01614950565b90509295985092959890939650565b60008060408385031215614de8578182fd5b50508035926020909101359150565b6001600160a01b03169052565b60008151808452614e1c81602086016020860161557d565b601f01601f19169290920160200192915050565b60038110614e4e57634e487b7160e01b600052602160045260246000fd5b9052565b60008284528282602086013780602084860101526020601f19601f85011685010190509392505050565b8054600090600181811c9080831680614e9657607f831692505b6020808410821415614eb657634e487b7160e01b86526022600452602486fd5b818015614eca5760018114614edb57614f08565b60ff19861689528489019650614f08565b60008881526020902060005b86811015614f005781548b820152908501908301614ee7565b505084890196505b50505050505092915050565b6000828483379101908152919050565b60008251614f3681846020870161557d565b9190910192915050565b6000610ba28284614e7c565b6000613795614f5b8386614e7c565b84614e7c565b600076020b1b1b2b9b9a1b7b73a3937b61d1030b1b1b7bab73a1604d1b82528351614f9381601785016020880161557d565b7001034b99036b4b9b9b4b733903937b6329607d1b6017918401918201528351614fc481602884016020880161557d565b01602801949350505050565b6001600160a01b0391909116815260200190565b6001600160a01b038581168252841660208201526040810183905260806060820181905260009061501790830184614e04565b9695505050505050565b6001600160a01b03841681526040602082018190526000906150469083018486614e52565b95945050505050565b6001600160a01b03929092168252602082015260400190565b60006040825261507c604083018587614e52565b9050826020830152949350505050565b600060208252610ba26020830184614e04565b6000604082526150b26040830185614e04565b90508260208301529392505050565b60208082526024908201527f4469726563746f72793a20756e69717565747465206973206e6f7420617070726040820152631bdd995960e21b606082015260800190565b60208082526032908201527f4552433732313a207472616e7366657220746f206e6f6e20455243373231526560408201527131b2b4bb32b91034b6b83632b6b2b73a32b960711b606082015260800190565b60208082526021908201527f4469726563746f72793a2063616c6c6572206973206e6f7420676f7665726e6f6040820152603960f91b606082015260800190565b6020808252601f908201527f4469726563746f72793a207375626d697373696f6e206e6f7420666f756e6400604082015260600190565b6020808252601c908201527b2234b932b1ba37b93c9d103737b732bc34b9ba32b73a103a37b5b2b760211b604082015260600190565b6020808252602e908201527f496e697469616c697a61626c653a20636f6e747261637420697320616c72656160408201526d191e481a5b9a5d1a585b1a5e995960921b606082015260800190565b6020808252602a908201527f4469726563746f72793a207375626d697373696f6e206e6f742070656e64696e60408201526919c8185c1c1c9bdd985b60b21b606082015260800190565b60208082526023908201527f4469726563746f72793a20756e6971756574746520646f6573206e6f742065786040820152621a5cdd60ea1b606082015260800190565b6020808252601e908201527f4469726563746f72793a20756e69717565747465206e6f7420666f756e640000604082015260600190565b60208082526031908201527f4552433732313a207472616e736665722063616c6c6572206973206e6f74206f6040820152701ddb995c881b9bdc88185c1c1c9bdd9959607a1b606082015260800190565b6020808252602b908201527f4469726563746f72793a2063616c6c6572206973206e6f74206f776e6572206e60408201526a1bdc88185c1c1c9bdd995960aa1b606082015260800190565b60208082526021908201527f4469726563746f72793a20756e69717565747465206e6f7420617070726f76656040820152601960fa1b606082015260800190565b6020808252601f908201527f5265656e7472616e637947756172643a207265656e7472616e742063616c6c00604082015260600190565b60006101a08201905061543f828451614df7565b60208301516154516020840182614df7565b5060408301516040830152606083015160608301526080830151608083015260a083015161548360a084018215159052565b5060c0838101519083015260e080840151908301526101008084015190830152610120808401519083015261014080840151908301526101608084015190830152610180808401516154d782850182614e30565b505092915050565b604051601f8201601f191681016001600160401b03811182821017156155075761550761562c565b604052919050565b6000821982111561552257615522615616565b500190565b60008261554257634e487b7160e01b81526012600452602481fd5b500490565b600081600019048311821515161561556157615561615616565b500290565b60008282101561557857615578615616565b500390565b60005b83811015615598578181015183820152602001615580565b83811115612a5e5750506000910152565b6000816155b8576155b8615616565b506000190190565b600181811c908216806155d457607f821691505b602082108114156155f557634e487b7160e01b600052602260045260246000fd5b50919050565b600060001982141561560f5761560f615616565b5060010190565b634e487b7160e01b600052601160045260246000fd5b634e487b7160e01b600052604160045260246000fd5b6001600160a01b038116811461428457600080fd5b801515811461428457600080fd5b6001600160e01b03198116811461428457600080fdfe4469726563746f72793a206d657461646174612076657273696f6e20697320740a7607b0b6665c6192e995edd0c765abfbeeb267a2ea3248d0b9125c3c1f42084469726563746f72793a206d657461646174612076657273696f6e206973206e7935bd0ae54bc31f548c14dba4d37c5c64b3f8ca900cb468fb8abd54d5894f55ddf252ad1be2c89b69c2b068fc378daa952ba7f163c4a11628f55a4df523b3efa2646970667358221220b160655a723988768a6800003b62fb26b9f228464ffc519bd2c038545c2dce0564736f6c63430008030033",
  "devdoc": {
    "kind": "dev",
    "methods": {
      "approve(address,uint256)": {
        "details": "See {IERC721-approve}."
      },
      "balanceOf(address)": {
        "details": "See {IERC721-balanceOf}."
      },
      "getApproved(uint256)": {
        "details": "See {IERC721-getApproved}."
      },
      "getRoleAdmin(bytes32)": {
        "details": "Returns the admin role that controls `role`. See {grantRole} and {revokeRole}. To change a role's admin, use {_setRoleAdmin}."
      },
      "grantRole(bytes32,address)": {
        "details": "Grants `role` to `account`. If `account` had not been already granted `role`, emits a {RoleGranted} event. Requirements: - the caller must have ``role``'s admin role."
      },
      "hasRole(bytes32,address)": {
        "details": "Returns `true` if `account` has been granted `role`."
      },
      "name()": {
        "details": "See {IERC721Metadata-name}."
      },
      "ownerOf(uint256)": {
        "details": "See {IERC721-ownerOf}."
      },
      "paused()": {
        "details": "Returns true if the contract is paused, and false otherwise."
      },
      "renounceRole(bytes32,address)": {
        "details": "Revokes `role` from the calling account. Roles are often managed via {grantRole} and {revokeRole}: this function's purpose is to provide a mechanism for accounts to lose their privileges if they are compromised (such as when a trusted device is misplaced). If the calling account had been granted `role`, emits a {RoleRevoked} event. Requirements: - the caller must be `account`."
      },
      "revokeRole(bytes32,address)": {
        "details": "Revokes `role` from `account`. If `account` had been granted `role`, emits a {RoleRevoked} event. Requirements: - the caller must have ``role``'s admin role."
      },
      "safeTransferFrom(address,address,uint256)": {
        "details": "See {IERC721-safeTransferFrom}."
      },
      "safeTransferFrom(address,address,uint256,bytes)": {
        "details": "See {IERC721-safeTransferFrom}."
      },
      "setApprovalForAll(address,bool)": {
        "details": "See {IERC721-setApprovalForAll}."
      },
      "symbol()": {
        "details": "See {IERC721Metadata-symbol}."
      },
      "tokenByIndex(uint256)": {
        "details": "See {IERC721Enumerable-tokenByIndex}."
      },
      "tokenOfOwnerByIndex(address,uint256)": {
        "details": "See {IERC721Enumerable-tokenOfOwnerByIndex}."
      },
      "tokenURI(uint256)": {
        "details": "See {IERC721Metadata-tokenURI}."
      },
      "totalSupply()": {
        "details": "See {IERC721Enumerable-totalSupply}."
      },
      "transferFrom(address,address,uint256)": {
        "details": "See {IERC721-transferFrom}."
      }
    },
    "version": 1
  },
  "userdoc": {
    "kind": "user",
    "methods": {},
    "version": 1
  },
  "storageLayout": {
    "storage": [
      {
        "astId": 622,
        "contract": "contracts/Directory.sol:Directory",
        "label": "_initialized",
        "offset": 0,
        "slot": "0",
        "type": "t_bool"
      },
      {
        "astId": 625,
        "contract": "contracts/Directory.sol:Directory",
        "label": "_initializing",
        "offset": 1,
        "slot": "0",
        "type": "t_bool"
      },
      {
        "astId": 4046,
        "contract": "contracts/Directory.sol:Directory",
        "label": "__gap",
        "offset": 0,
        "slot": "1",
        "type": "t_array(t_uint256)50_storage"
      },
      {
        "astId": 4649,
        "contract": "contracts/Directory.sol:Directory",
        "label": "__gap",
        "offset": 0,
        "slot": "51",
        "type": "t_array(t_uint256)50_storage"
      },
      {
        "astId": 307,
        "contract": "contracts/Directory.sol:Directory",
        "label": "_roles",
        "offset": 0,
        "slot": "101",
        "type": "t_mapping(t_bytes32,t_struct(RoleData)302_storage)"
      },
      {
        "astId": 615,
        "contract": "contracts/Directory.sol:Directory",
        "label": "__gap",
        "offset": 0,
        "slot": "102",
        "type": "t_array(t_uint256)49_storage"
      },
      {
        "astId": 2228,
        "contract": "contracts/Directory.sol:Directory",
        "label": "_name",
        "offset": 0,
        "slot": "151",
        "type": "t_string_storage"
      },
      {
        "astId": 2230,
        "contract": "contracts/Directory.sol:Directory",
        "label": "_symbol",
        "offset": 0,
        "slot": "152",
        "type": "t_string_storage"
      },
      {
        "astId": 2234,
        "contract": "contracts/Directory.sol:Directory",
        "label": "_owners",
        "offset": 0,
        "slot": "153",
        "type": "t_mapping(t_uint256,t_address)"
      },
      {
        "astId": 2238,
        "contract": "contracts/Directory.sol:Directory",
        "label": "_balances",
        "offset": 0,
        "slot": "154",
        "type": "t_mapping(t_address,t_uint256)"
      },
      {
        "astId": 2242,
        "contract": "contracts/Directory.sol:Directory",
        "label": "_tokenApprovals",
        "offset": 0,
        "slot": "155",
        "type": "t_mapping(t_uint256,t_address)"
      },
      {
        "astId": 2248,
        "contract": "contracts/Directory.sol:Directory",
        "label": "_operatorApprovals",
        "offset": 0,
        "slot": "156",
        "type": "t_mapping(t_address,t_mapping(t_address,t_bool))"
      },
      {
        "astId": 3046,
        "contract": "contracts/Directory.sol:Directory",
        "label": "__gap",
        "offset": 0,
        "slot": "157",
        "type": "t_array(t_uint256)44_storage"
      },
      {
        "astId": 3220,
        "contract": "contracts/Directory.sol:Directory",
        "label": "_ownedTokens",
        "offset": 0,
        "slot": "201",
        "type": "t_mapping(t_address,t_mapping(t_uint256,t_uint256))"
      },
      {
        "astId": 3224,
        "contract": "contracts/Directory.sol:Directory",
        "label": "_ownedTokensIndex",
        "offset": 0,
        "slot": "202",
        "type": "t_mapping(t_uint256,t_uint256)"
      },
      {
        "astId": 3227,
        "contract": "contracts/Directory.sol:Directory",
        "label": "_allTokens",
        "offset": 0,
        "slot": "203",
        "type": "t_array(t_uint256)dyn_storage"
      },
      {
        "astId": 3231,
        "contract": "contracts/Directory.sol:Directory",
        "label": "_allTokensIndex",
        "offset": 0,
        "slot": "204",
        "type": "t_mapping(t_uint256,t_uint256)"
      },
      {
        "astId": 3546,
        "contract": "contracts/Directory.sol:Directory",
        "label": "__gap",
        "offset": 0,
        "slot": "205",
        "type": "t_array(t_uint256)46_storage"
      },
      {
        "astId": 683,
        "contract": "contracts/Directory.sol:Directory",
        "label": "_paused",
        "offset": 0,
        "slot": "251",
        "type": "t_bool"
      },
      {
        "astId": 774,
        "contract": "contracts/Directory.sol:Directory",
        "label": "__gap",
        "offset": 0,
        "slot": "252",
        "type": "t_array(t_uint256)49_storage"
      },
      {
        "astId": 3614,
        "contract": "contracts/Directory.sol:Directory",
        "label": "__gap",
        "offset": 0,
        "slot": "301",
        "type": "t_array(t_uint256)50_storage"
      },
      {
        "astId": 789,
        "contract": "contracts/Directory.sol:Directory",
        "label": "_status",
        "offset": 0,
        "slot": "351",
        "type": "t_uint256"
      },
      {
        "astId": 832,
        "contract": "contracts/Directory.sol:Directory",
        "label": "__gap",
        "offset": 0,
        "slot": "352",
        "type": "t_array(t_uint256)49_storage"
      },
      {
        "astId": 5800,
        "contract": "contracts/Directory.sol:Directory",
        "label": "_tokensBaseURI",
        "offset": 0,
        "slot": "401",
        "type": "t_string_storage"
      },
      {
        "astId": 5803,
        "contract": "contracts/Directory.sol:Directory",
        "label": "_token",
        "offset": 0,
        "slot": "402",
        "type": "t_contract(Token)7686"
      },
      {
        "astId": 5806,
        "contract": "contracts/Directory.sol:Directory",
        "label": "_vault",
        "offset": 0,
        "slot": "403",
        "type": "t_contract(Vault)8084"
      },
      {
        "astId": 5809,
        "contract": "contracts/Directory.sol:Directory",
        "label": "_treasury",
        "offset": 0,
        "slot": "404",
        "type": "t_contract(Treasury)7887"
      },
      {
        "astId": 5812,
        "contract": "contracts/Directory.sol:Directory",
        "label": "_marketer",
        "offset": 0,
        "slot": "405",
        "type": "t_contract(Marketer)7518"
      },
      {
        "astId": 5814,
        "contract": "contracts/Directory.sol:Directory",
        "label": "_initialUniquettePrice",
        "offset": 0,
        "slot": "406",
        "type": "t_uint256"
      },
      {
        "astId": 5816,
        "contract": "contracts/Directory.sol:Directory",
        "label": "_originalAuthorShare",
        "offset": 0,
        "slot": "407",
        "type": "t_uint256"
      },
      {
        "astId": 5818,
        "contract": "contracts/Directory.sol:Directory",
        "label": "_protocolFee",
        "offset": 0,
        "slot": "408",
        "type": "t_uint256"
      },
      {
        "astId": 5820,
        "contract": "contracts/Directory.sol:Directory",
        "label": "_submissionDeposit",
        "offset": 0,
        "slot": "409",
        "type": "t_uint256"
      },
      {
        "astId": 5822,
        "contract": "contracts/Directory.sol:Directory",
        "label": "_firstSaleDeadline",
        "offset": 0,
        "slot": "410",
        "type": "t_uint256"
      },
      {
        "astId": 5824,
        "contract": "contracts/Directory.sol:Directory",
        "label": "_currentMetadataVersion",
        "offset": 0,
        "slot": "411",
        "type": "t_uint256"
      },
      {
        "astId": 5826,
        "contract": "contracts/Directory.sol:Directory",
        "label": "_minMetadataVersion",
        "offset": 0,
        "slot": "412",
        "type": "t_uint256"
      },
      {
        "astId": 5828,
        "contract": "contracts/Directory.sol:Directory",
        "label": "_maxPriceIncrease",
        "offset": 0,
        "slot": "413",
        "type": "t_uint256"
      },
      {
        "astId": 5832,
        "contract": "contracts/Directory.sol:Directory",
        "label": "_idToHashMapping",
        "offset": 0,
        "slot": "414",
        "type": "t_mapping(t_uint256,t_string_storage)"
      },
      {
        "astId": 5837,
        "contract": "contracts/Directory.sol:Directory",
        "label": "_uniquettes",
        "offset": 0,
        "slot": "415",
        "type": "t_mapping(t_string_memory_ptr,t_struct(Uniquette)5718_storage)"
      },
      {
        "astId": 5840,
        "contract": "contracts/Directory.sol:Directory",
        "label": "_tokenIdTracker",
        "offset": 0,
        "slot": "416",
        "type": "t_struct(Counter)4053_storage"
      }
    ],
    "types": {
      "t_address": {
        "encoding": "inplace",
        "label": "address",
        "numberOfBytes": "20"
      },
      "t_array(t_uint256)44_storage": {
        "base": "t_uint256",
        "encoding": "inplace",
        "label": "uint256[44]",
        "numberOfBytes": "1408"
      },
      "t_array(t_uint256)46_storage": {
        "base": "t_uint256",
        "encoding": "inplace",
        "label": "uint256[46]",
        "numberOfBytes": "1472"
      },
      "t_array(t_uint256)49_storage": {
        "base": "t_uint256",
        "encoding": "inplace",
        "label": "uint256[49]",
        "numberOfBytes": "1568"
      },
      "t_array(t_uint256)50_storage": {
        "base": "t_uint256",
        "encoding": "inplace",
        "label": "uint256[50]",
        "numberOfBytes": "1600"
      },
      "t_array(t_uint256)dyn_storage": {
        "base": "t_uint256",
        "encoding": "dynamic_array",
        "label": "uint256[]",
        "numberOfBytes": "32"
      },
      "t_bool": {
        "encoding": "inplace",
        "label": "bool",
        "numberOfBytes": "1"
      },
      "t_bytes32": {
        "encoding": "inplace",
        "label": "bytes32",
        "numberOfBytes": "32"
      },
      "t_contract(Marketer)7518": {
        "encoding": "inplace",
        "label": "contract Marketer",
        "numberOfBytes": "20"
      },
      "t_contract(Token)7686": {
        "encoding": "inplace",
        "label": "contract Token",
        "numberOfBytes": "20"
      },
      "t_contract(Treasury)7887": {
        "encoding": "inplace",
        "label": "contract Treasury",
        "numberOfBytes": "20"
      },
      "t_contract(Vault)8084": {
        "encoding": "inplace",
        "label": "contract Vault",
        "numberOfBytes": "20"
      },
      "t_enum(UniquetteStatus)5690": {
        "encoding": "inplace",
        "label": "enum Directory.UniquetteStatus",
        "numberOfBytes": "1"
      },
      "t_mapping(t_address,t_bool)": {
        "encoding": "mapping",
        "key": "t_address",
        "label": "mapping(address => bool)",
        "numberOfBytes": "32",
        "value": "t_bool"
      },
      "t_mapping(t_address,t_mapping(t_address,t_bool))": {
        "encoding": "mapping",
        "key": "t_address",
        "label": "mapping(address => mapping(address => bool))",
        "numberOfBytes": "32",
        "value": "t_mapping(t_address,t_bool)"
      },
      "t_mapping(t_address,t_mapping(t_uint256,t_uint256))": {
        "encoding": "mapping",
        "key": "t_address",
        "label": "mapping(address => mapping(uint256 => uint256))",
        "numberOfBytes": "32",
        "value": "t_mapping(t_uint256,t_uint256)"
      },
      "t_mapping(t_address,t_uint256)": {
        "encoding": "mapping",
        "key": "t_address",
        "label": "mapping(address => uint256)",
        "numberOfBytes": "32",
        "value": "t_uint256"
      },
      "t_mapping(t_bytes32,t_struct(RoleData)302_storage)": {
        "encoding": "mapping",
        "key": "t_bytes32",
        "label": "mapping(bytes32 => struct AccessControlUpgradeable.RoleData)",
        "numberOfBytes": "32",
        "value": "t_struct(RoleData)302_storage"
      },
      "t_mapping(t_string_memory_ptr,t_struct(Uniquette)5718_storage)": {
        "encoding": "mapping",
        "key": "t_string_memory_ptr",
        "label": "mapping(string => struct Directory.Uniquette)",
        "numberOfBytes": "32",
        "value": "t_struct(Uniquette)5718_storage"
      },
      "t_mapping(t_uint256,t_address)": {
        "encoding": "mapping",
        "key": "t_uint256",
        "label": "mapping(uint256 => address)",
        "numberOfBytes": "32",
        "value": "t_address"
      },
      "t_mapping(t_uint256,t_string_storage)": {
        "encoding": "mapping",
        "key": "t_uint256",
        "label": "mapping(uint256 => string)",
        "numberOfBytes": "32",
        "value": "t_string_storage"
      },
      "t_mapping(t_uint256,t_uint256)": {
        "encoding": "mapping",
        "key": "t_uint256",
        "label": "mapping(uint256 => uint256)",
        "numberOfBytes": "32",
        "value": "t_uint256"
      },
      "t_string_memory_ptr": {
        "encoding": "bytes",
        "label": "string",
        "numberOfBytes": "32"
      },
      "t_string_storage": {
        "encoding": "bytes",
        "label": "string",
        "numberOfBytes": "32"
      },
      "t_struct(Counter)4053_storage": {
        "encoding": "inplace",
        "label": "struct CountersUpgradeable.Counter",
        "members": [
          {
            "astId": 4052,
            "contract": "contracts/Directory.sol:Directory",
            "label": "_value",
            "offset": 0,
            "slot": "0",
            "type": "t_uint256"
          }
        ],
        "numberOfBytes": "32"
      },
      "t_struct(RoleData)302_storage": {
        "encoding": "inplace",
        "label": "struct AccessControlUpgradeable.RoleData",
        "members": [
          {
            "astId": 299,
            "contract": "contracts/Directory.sol:Directory",
            "label": "members",
            "offset": 0,
            "slot": "0",
            "type": "t_mapping(t_address,t_bool)"
          },
          {
            "astId": 301,
            "contract": "contracts/Directory.sol:Directory",
            "label": "adminRole",
            "offset": 0,
            "slot": "1",
            "type": "t_bytes32"
          }
        ],
        "numberOfBytes": "64"
      },
      "t_struct(Uniquette)5718_storage": {
        "encoding": "inplace",
        "label": "struct Directory.Uniquette",
        "members": [
          {
            "astId": 5692,
            "contract": "contracts/Directory.sol:Directory",
            "label": "author",
            "offset": 0,
            "slot": "0",
            "type": "t_address"
          },
          {
            "astId": 5694,
            "contract": "contracts/Directory.sol:Directory",
            "label": "owner",
            "offset": 0,
            "slot": "1",
            "type": "t_address"
          },
          {
            "astId": 5696,
            "contract": "contracts/Directory.sol:Directory",
            "label": "collateralValue",
            "offset": 0,
            "slot": "2",
            "type": "t_uint256"
          },
          {
            "astId": 5698,
            "contract": "contracts/Directory.sol:Directory",
            "label": "lastPurchaseAmount",
            "offset": 0,
            "slot": "3",
            "type": "t_uint256"
          },
          {
            "astId": 5700,
            "contract": "contracts/Directory.sol:Directory",
            "label": "salePrice",
            "offset": 0,
            "slot": "4",
            "type": "t_uint256"
          },
          {
            "astId": 5702,
            "contract": "contracts/Directory.sol:Directory",
            "label": "firstSale",
            "offset": 0,
            "slot": "5",
            "type": "t_bool"
          },
          {
            "astId": 5704,
            "contract": "contracts/Directory.sol:Directory",
            "label": "submissionReward",
            "offset": 0,
            "slot": "6",
            "type": "t_uint256"
          },
          {
            "astId": 5706,
            "contract": "contracts/Directory.sol:Directory",
            "label": "metadataVersion",
            "offset": 0,
            "slot": "7",
            "type": "t_uint256"
          },
          {
            "astId": 5708,
            "contract": "contracts/Directory.sol:Directory",
            "label": "tokenId",
            "offset": 0,
            "slot": "8",
            "type": "t_uint256"
          },
          {
            "astId": 5710,
            "contract": "contracts/Directory.sol:Directory",
            "label": "submissionDeposit",
            "offset": 0,
            "slot": "9",
            "type": "t_uint256"
          },
          {
            "astId": 5712,
            "contract": "contracts/Directory.sol:Directory",
            "label": "submitTime",
            "offset": 0,
            "slot": "10",
            "type": "t_uint256"
          },
          {
            "astId": 5714,
            "contract": "contracts/Directory.sol:Directory",
            "label": "firstSaleDeadline",
            "offset": 0,
            "slot": "11",
            "type": "t_uint256"
          },
          {
            "astId": 5717,
            "contract": "contracts/Directory.sol:Directory",
            "label": "status",
            "offset": 0,
            "slot": "12",
            "type": "t_enum(UniquetteStatus)5690"
          }
        ],
        "numberOfBytes": "416"
      },
      "t_uint256": {
        "encoding": "inplace",
        "label": "uint256",
        "numberOfBytes": "32"
      }
    }
  }
}